{"abi":[{"type":"constructor","inputs":[],"stateMutability":"nonpayable"},{"type":"function","name":"APR_STEP","inputs":[],"outputs":[{"name":"","type":"uint256","internalType":"uint256"}],"stateMutability":"view"},{"type":"function","name":"MAX_ACTIVE_OFFERS","inputs":[],"outputs":[{"name":"","type":"uint256","internalType":"uint256"}],"stateMutability":"view"},{"type":"function","name":"MAX_OFFERS_PER_LENDER","inputs":[],"outputs":[{"name":"","type":"uint256","internalType":"uint256"}],"stateMutability":"view"},{"type":"function","name":"activeOfferCount","inputs":[],"outputs":[{"name":"","type":"uint256","internalType":"uint256"}],"stateMutability":"view"},{"type":"function","name":"aprBuckets","inputs":[{"name":"","type":"uint256","internalType":"uint256"}],"outputs":[{"name":"apr","type":"uint256","internalType":"uint256"},{"name":"totalLiquidity","type":"uint256","internalType":"uint256"}],"stateMutability":"view"},{"type":"function","name":"aprToIndex","inputs":[{"name":"","type":"uint256","internalType":"uint256"}],"outputs":[{"name":"","type":"uint256","internalType":"uint256"}],"stateMutability":"view"},{"type":"function","name":"aprValues","inputs":[{"name":"","type":"uint256","internalType":"uint256"}],"outputs":[{"name":"","type":"uint256","internalType":"uint256"}],"stateMutability":"view"},{"type":"function","name":"borrowAsset","inputs":[],"outputs":[{"name":"","type":"address","internalType":"address"}],"stateMutability":"view"},{"type":"function","name":"cancelOffer","inputs":[{"name":"offerId","type":"uint256","internalType":"uint256"}],"outputs":[],"stateMutability":"nonpayable"},{"type":"function","name":"cleanupExpiredOffers","inputs":[{"name":"maxCleanup","type":"uint256","internalType":"uint256"}],"outputs":[],"stateMutability":"nonpayable"},{"type":"function","name":"executeDrawdown","inputs":[{"name":"amount","type":"uint256","internalType":"uint256"},{"name":"useSeniorOnly","type":"bool","internalType":"bool"}],"outputs":[{"name":"filledOffers","type":"tuple[]","internalType":"struct IRevvFiOfferBook.Offer[]","components":[{"name":"id","type":"uint256","internalType":"uint256"},{"name":"lender","type":"address","internalType":"address"},{"name":"amount","type":"uint256","internalType":"uint256"},{"name":"remainingAmount","type":"uint256","internalType":"uint256"},{"name":"apr","type":"uint256","internalType":"uint256"},{"name":"seniority","type":"uint8","internalType":"uint8"},{"name":"expiry","type":"uint256","internalType":"uint256"},{"name":"active","type":"bool","internalType":"bool"},{"name":"isSenior","type":"bool","internalType":"bool"}]},{"name":"weightedApr","type":"uint256","internalType":"uint256"}],"stateMutability":"nonpayable"},{"type":"function","name":"factory","inputs":[],"outputs":[{"name":"","type":"address","internalType":"address"}],"stateMutability":"view"},{"type":"function","name":"getActiveOfferCount","inputs":[],"outputs":[{"name":"","type":"uint256","internalType":"uint256"}],"stateMutability":"view"},{"type":"function","name":"getBestOffers","inputs":[{"name":"amount","type":"uint256","internalType":"uint256"},{"name":"useSeniorOnly","type":"bool","internalType":"bool"}],"outputs":[{"name":"bestOffers","type":"tuple[]","internalType":"struct IRevvFiOfferBook.Offer[]","components":[{"name":"id","type":"uint256","internalType":"uint256"},{"name":"lender","type":"address","internalType":"address"},{"name":"amount","type":"uint256","internalType":"uint256"},{"name":"remainingAmount","type":"uint256","internalType":"uint256"},{"name":"apr","type":"uint256","internalType":"uint256"},{"name":"seniority","type":"uint8","internalType":"uint8"},{"name":"expiry","type":"uint256","internalType":"uint256"},{"name":"active","type":"bool","internalType":"bool"},{"name":"isSenior","type":"bool","internalType":"bool"}]},{"name":"totalAvail","type":"uint256","internalType":"uint256"},{"name":"weightedApr","type":"uint256","internalType":"uint256"}],"stateMutability":"view"},{"type":"function","name":"getLenderOffers","inputs":[{"name":"lender","type":"address","internalType":"address"}],"outputs":[{"name":"","type":"tuple[]","internalType":"struct IRevvFiOfferBook.Offer[]","components":[{"name":"id","type":"uint256","internalType":"uint256"},{"name":"lender","type":"address","internalType":"address"},{"name":"amount","type":"uint256","internalType":"uint256"},{"name":"remainingAmount","type":"uint256","internalType":"uint256"},{"name":"apr","type":"uint256","internalType":"uint256"},{"name":"seniority","type":"uint8","internalType":"uint8"},{"name":"expiry","type":"uint256","internalType":"uint256"},{"name":"active","type":"bool","internalType":"bool"},{"name":"isSenior","type":"bool","internalType":"bool"}]}],"stateMutability":"view"},{"type":"function","name":"getOffer","inputs":[{"name":"offerId","type":"uint256","internalType":"uint256"}],"outputs":[{"name":"","type":"tuple","internalType":"struct RevvFiOfferBook.Offer","components":[{"name":"id","type":"uint256","internalType":"uint256"},{"name":"lender","type":"address","internalType":"address"},{"name":"amount","type":"uint256","internalType":"uint256"},{"name":"remainingAmount","type":"uint256","internalType":"uint256"},{"name":"apr","type":"uint256","internalType":"uint256"},{"name":"seniority","type":"uint8","internalType":"uint8"},{"name":"expiry","type":"uint256","internalType":"uint256"},{"name":"active","type":"bool","internalType":"bool"}]}],"stateMutability":"view"},{"type":"function","name":"getTotalLiquidityAvailable","inputs":[],"outputs":[{"name":"","type":"uint256","internalType":"uint256"}],"stateMutability":"view"},{"type":"function","name":"initialize","inputs":[{"name":"_factory","type":"address","internalType":"address"},{"name":"_market","type":"address","internalType":"address"},{"name":"_borrowAsset","type":"address","internalType":"address"}],"outputs":[],"stateMutability":"nonpayable"},{"type":"function","name":"isActiveOffer","inputs":[{"name":"","type":"uint256","internalType":"uint256"}],"outputs":[{"name":"","type":"bool","internalType":"bool"}],"stateMutability":"view"},{"type":"function","name":"lenderOfferIds","inputs":[{"name":"","type":"address","internalType":"address"},{"name":"","type":"uint256","internalType":"uint256"}],"outputs":[{"name":"","type":"uint256","internalType":"uint256"}],"stateMutability":"view"},{"type":"function","name":"market","inputs":[],"outputs":[{"name":"","type":"address","internalType":"address"}],"stateMutability":"view"},{"type":"function","name":"modifyOffer","inputs":[{"name":"offerId","type":"uint256","internalType":"uint256"},{"name":"newAmount","type":"uint256","internalType":"uint256"},{"name":"newApr","type":"uint256","internalType":"uint256"},{"name":"newDuration","type":"uint256","internalType":"uint256"}],"outputs":[],"stateMutability":"nonpayable"},{"type":"function","name":"nextOfferId","inputs":[],"outputs":[{"name":"","type":"uint256","internalType":"uint256"}],"stateMutability":"view"},{"type":"function","name":"offerInBucketId","inputs":[{"name":"","type":"uint256","internalType":"uint256"}],"outputs":[{"name":"","type":"uint256","internalType":"uint256"}],"stateMutability":"view"},{"type":"function","name":"offers","inputs":[{"name":"","type":"uint256","internalType":"uint256"}],"outputs":[{"name":"id","type":"uint256","internalType":"uint256"},{"name":"lender","type":"address","internalType":"address"},{"name":"amount","type":"uint256","internalType":"uint256"},{"name":"remainingAmount","type":"uint256","internalType":"uint256"},{"name":"apr","type":"uint256","internalType":"uint256"},{"name":"seniority","type":"uint8","internalType":"uint8"},{"name":"expiry","type":"uint256","internalType":"uint256"},{"name":"active","type":"bool","internalType":"bool"}],"stateMutability":"view"},{"type":"function","name":"submitOffer","inputs":[{"name":"amount","type":"uint256","internalType":"uint256"},{"name":"apr","type":"uint256","internalType":"uint256"},{"name":"seniority","type":"uint8","internalType":"uint8"},{"name":"duration","type":"uint256","internalType":"uint256"}],"outputs":[{"name":"offerId","type":"uint256","internalType":"uint256"}],"stateMutability":"nonpayable"},{"type":"function","name":"totalLiquidity","inputs":[],"outputs":[{"name":"","type":"uint256","internalType":"uint256"}],"stateMutability":"view"},{"type":"event","name":"DrawdownExecutedOffer","inputs":[{"name":"borrower","type":"address","indexed":true,"internalType":"address"},{"name":"totalAmount","type":"uint256","indexed":false,"internalType":"uint256"},{"name":"weightedApr","type":"uint256","indexed":false,"internalType":"uint256"}],"anonymous":false},{"type":"event","name":"Initialized","inputs":[{"name":"version","type":"uint8","indexed":false,"internalType":"uint8"}],"anonymous":false},{"type":"event","name":"OfferCancelled","inputs":[{"name":"offerId","type":"uint256","indexed":true,"internalType":"uint256"},{"name":"lender","type":"address","indexed":true,"internalType":"address"}],"anonymous":false},{"type":"event","name":"OfferFilled","inputs":[{"name":"offerId","type":"uint256","indexed":true,"internalType":"uint256"},{"name":"lender","type":"address","indexed":true,"internalType":"address"},{"name":"amountFilled","type":"uint256","indexed":false,"internalType":"uint256"}],"anonymous":false},{"type":"event","name":"OfferModified","inputs":[{"name":"offerId","type":"uint256","indexed":true,"internalType":"uint256"},{"name":"newAmount","type":"uint256","indexed":false,"internalType":"uint256"},{"name":"newApr","type":"uint256","indexed":false,"internalType":"uint256"},{"name":"newDuration","type":"uint256","indexed":false,"internalType":"uint256"}],"anonymous":false},{"type":"event","name":"OfferSubmitted","inputs":[{"name":"offerId","type":"uint256","indexed":true,"internalType":"uint256"},{"name":"lender","type":"address","indexed":true,"internalType":"address"},{"name":"amount","type":"uint256","indexed":false,"internalType":"uint256"},{"name":"apr","type":"uint256","indexed":false,"internalType":"uint256"},{"name":"seniority","type":"uint8","indexed":false,"internalType":"uint8"},{"name":"expiry","type":"uint256","indexed":false,"internalType":"uint256"}],"anonymous":false},{"type":"error","name":"InsufficientOfferAmount","inputs":[]},{"type":"error","name":"InvalidSeniority","inputs":[]},{"type":"error","name":"MaxOffersExceeded","inputs":[]},{"type":"error","name":"NoActiveOffers","inputs":[]},{"type":"error","name":"OfferNotActive","inputs":[]},{"type":"error","name":"ReentrancyGuardReentrantCall","inputs":[]},{"type":"error","name":"SafeERC20FailedOperation","inputs":[{"name":"token","type":"address","internalType":"address"}]},{"type":"error","name":"UnauthorizedCaller","inputs":[]},{"type":"error","name":"ZeroAddress","inputs":[]},{"type":"error","name":"ZeroAmount","inputs":[]},{"type":"error","name":"ZeroApr","inputs":[]}],"bytecode":{"object":"0x6080806040523460df5760017f9b779b17422d0df92223018b32b4d1fa46e071723d6817e2486d003becc55f00555f549060ff8260081c16608d575060ff808216036054575b604051611c3490816100e48239f35b60ff90811916175f557f7f26b83ff96e1f2b6a682f133852f6798a09c465da95921460cefb3847402498602060405160ff8152a15f6045565b62461bcd60e51b815260206004820152602760248201527f496e697469616c697a61626c653a20636f6e747261637420697320696e697469604482015266616c697a696e6760c81b6064820152608490fd5b5f80fdfe6080806040526004361015610012575f80fd5b5f3560e01c9081630cd244831461104c575080630db687be1461100f57806315770f92146107705780631706fe1314610e605780632014b71c14610d6a57806333cd259714610d4f578063365aac3314610d06578063446456e514610cde5780634579268a14610bd65780635f5d065514610bb95780636a0454df14610b9d57806370f52305146108e857806380f55605146108c0578063812c63821461088857806387dcec95146102365780638a72ea6a146108015780638d81a1d3146107d25780638fbd2b16146107a8578063be358e671461078d578063be6fdf9a14610770578063c0c53b8b1461059c578063c2e43f1d146103c0578063c45a015514610395578063c9fdfcce1461027d578063e106c05b14610253578063eb32a675146102365763ef706adf14610145575f80fd5b346102325760203660031901126102325760043561016161179c565b805f52600360205260405f2060018060a01b036001820154163314801590610223575b6102145760078101805460ff191690556003906101a083611b12565b016101ae81546007546112e4565b600755805490816101f3575b33837f1f51377b3e685a0e2419f9bb4ba7c07ec54936353ba3d0fb3c6538dab67662225f80a360015f516020611bdf5f395f51905f5255005b6002545f9261020c9133906001600160a01b03166118c9565b555f806101ba565b635c427cd960e01b5f5260045ffd5b5060ff60078201541615610184565b5f80fd5b34610232575f366003190112610232576020600854604051908152f35b34610232576020366003190112610232576004355f52600d602052602060405f2054604051908152f35b34610232576020366003190112610232576001600160a01b0361029e611135565b165f52600460205260405f208054603281115f14610390575060325b6102c381611259565b915f5b8281106102e757604051602080825281906102e39082018761109d565b0390f35b806102f46001928461118f565b90549060031b1c5f52600360205260405f20805490838060a01b038482015416600282015491600381015460048201549060ff6005840154169460ff6007600686015495015416946103446111c5565b97885260208801526040870152606086015260808501528260a085015260c0840152151560e08301521561010082015261037e8287611224565b526103898186611224565b50016102c6565b6102ba565b34610232575f366003190112610232575f5460405160109190911c6001600160a01b03168152602090f35b34610232576103ce3661107e565b6001546001600160a01b03163303610214576103f382916103ed61179c565b826112f1565b921161058d576104038151611259565b905f5b8151811015610526578061041c60019284611224565b51515f52600360205260405f2060606104358386611224565b51015190600381016104488382546112e4565b8155610456836007546112e4565b600755600482019061046c848354855490611814565b6104768588611224565b51610481868a611224565b5261048c8589611224565b5083606061049a878b611224565b5101526104ba84878060a01b0360025416888060a01b03895416906118c9565b5461051557506007810160ff1981541690556104d68154611b12565b7fd5f3552d5f96296cf317f1ff0718c8430d2e840d3f949d1605e153e8f583a958602082549286808060a01b039101541693604051908152a301610406565b548154610521916119b3565b6104d6565b6105838385876040519081528160208201527f71bb7db5826ee7f4728165cba6e22dd34aee9a9b73be58e7ac6ea5be7609713f60403392a260015f516020611bdf5f395f51905f525560405192839260408452604084019061109d565b9060208301520390f35b630a7fc9bf60e21b5f5260045ffd5b34610232576060366003190112610232576105b5611135565b6024356001600160a01b0381169190829003610232576044356001600160a01b03811690819003610232575f549060ff8260081c161591828093610763575b801561074c575b156106f05760ff1981166001175f55826106df575b506001600160a01b0383161580156106d7575b80156106cf575b6106c0575f549262010000600160b01b039060101b16938462010000600160b01b03198516175f556001600160601b0360a01b60015416176001556001600160601b0360a01b6002541617600255600160065561068357005b610100600160b01b031916175f55604051600181527f7f26b83ff96e1f2b6a682f133852f6798a09c465da95921460cefb384740249890602090a1005b63d92e233d60e01b5f5260045ffd5b50801561062a565b508315610623565b61ffff1916610101175f5584610610565b60405162461bcd60e51b815260206004820152602e60248201527f496e697469616c697a61626c653a20636f6e747261637420697320616c72656160448201526d191e481a5b9a5d1a585b1a5e995960921b6064820152608490fd5b50303b1580156105fb5750600160ff8216146105fb565b50600160ff8216106105f4565b34610232575f366003190112610232576020600754604051908152f35b34610232575f36600319011261023257602060405160648152f35b34610232576020366003190112610232576004355f52600e602052602060405f2054604051908152f35b34610232576020366003190112610232576004355f526005602052602060ff60405f2054166040519015158152f35b34610232576020366003190112610232576004355f52600360205261010060405f2080549060018060a01b03600182015416906002810154600382015460048301549060ff6005850154169260ff600760068701549601541695604051978852602088015260408701526060860152608085015260a084015260c0830152151560e0820152f35b3461023257602036600319011261023257600435600c54811015610232576108b1602091611177565b90549060031b1c604051908152f35b34610232575f366003190112610232576001546040516001600160a01b039091168152602090f35b3461023257608036600319011261023257600435602435906044359060ff8216809203610232576064359261091b61179c565b6305f5e1008210610b70578015610b8e5760018311610b7f578315610b70576101f46008541015610b6157335f526004602052601460405f20541015610b6157600254610976908390309033906001600160a01b031661194a565b60065492610983846112d6565b6006556109908542611238565b600761099a6111a4565b86815260208101923384526040820187815260608301888152608084019088825260a085019288845260c0860194855260e0860197600189528c5f52600360205260405f2096518755600187019060018060a01b039051166001600160601b0360a01b82541617905551600286015551600385015551600484015560ff6005840191511660ff19825416179055516006820155019051151560ff80198354169116179055335f526004602052610a538460405f20611777565b835f52600560205260405f20600160ff19825416179055600954845f52600a60205260405f2055600954600160401b811015610b4d57602095610abd86610aa5846001610af89601600955600961118f565b90919082549060031b91821b915f19901b1916179055565b610ac86008546112d6565b600855855f5260038752610ae386600460405f2001546119b3565b610aef85600754611238565b60075542611238565b916040519384528584015260408301526060820152817f2ee8871fe528da3127dc4dda62594b1154a1090e1686c055c8d3134ba47eb11760803393a360015f516020611bdf5f395f51905f5255604051908152f35b634e487b7160e01b5f52604160045260245ffd5b637c2b823960e11b5f5260045ffd5b631f2a200560e01b5f5260045ffd5b6308f849d560e21b5f5260045ffd5b638c43977360e01b5f5260045ffd5b34610232575f3660031901126102325760206040516101f48152f35b34610232575f366003190112610232576020600654604051908152f35b34610232576020366003190112610232575f60e0610bf26111a4565b8281528260208201528260408201528260608201528260808201528260a08201528260c082015201526004355f52600360205261010060405f20610c346111a4565b81549182825260ff60018060a01b036001830154166020840190815260028301546040850190815260038401546060860190815260048501549160808701928352846005870154169360a0880194855260e086600760068a01549960c08c019a8b520154169801971515885260405198895260018060a01b039051166020890152516040880152516060870152516080860152511660a08401525160c083015251151560e0820152f35b34610232575f366003190112610232576002546040516001600160a01b039091168152602090f35b3461023257604036600319011261023257610d1f611135565b6001600160a01b03165f90815260046020526040902080546024359190821015610232576020916108b19161118f565b34610232575f36600319011261023257602060405160148152f35b3461023257602036600319011261023257600435610d8661179c565b5f90815b600954831080610e57575b15610e4457610da38361114b565b90549060031b1c805f52600360205260405f2042600682015411155f14610e3157610df192916007826003610dec940180549081610df9575b505001805460ff19169055611b12565b6112d6565b905b90610d8a565b60025460018401545f93610e1b9290916001600160a01b0390811691166118c9565b610e27815485546112e4565b8455558880610ddc565b50509091610e3e906112d6565b91610df3565b60015f516020611bdf5f395f51905f5255005b50818110610d95565b3461023257608036600319011261023257600435604435606435602435610e8561179c565b5f84815260036020526040902060018101549092906001600160a01b031633036102145760ff600784015416156110005781158015610ff3575b610b70578315610b8e578015610b705760028301938454936003810194610ee8865480926112e4565b9081861061058d577fcec4e6d0937f30ec7b79423b833abf1e4dafe836737ef7d842a35c076c0ae42b9760609787610f328795610f2c8e9660048a01978854611814565b826112e4565b6002548354919491906001600160a01b031681861115610fb657610f729150610f6a610f5f8654886112e4565b80923090339061194a565b600754611238565b6007555b5555556006610f858442611238565b910155610f9286826119b3565b60405192835260208301526040820152a260015f516020611bdf5f395f51905f5255005b85828110610fc7575b505050610f76565b610fd7610fe091610fe8946112e4565b809233906118c9565b6007546112e4565b6007558d8085610fbf565b506305f5e1008210610ebf565b634d80826b60e11b5f5260045ffd5b346102325761103d6110296110233661107e565b906112f1565b60405193849360608552606085019061109d565b91602084015260408301520390f35b34610232576020366003190112610232576040906004355f52600b602052815f20600181549101549082526020820152f35b6040906003190112610232576004359060243580151581036102325790565b90602080835192838152019201905f5b8181106110ba5750505090565b9091926020610120600192610100875180518352858060a01b0385820151168584015260408101516040840152606081015160608401526080810151608084015260ff60a08201511660a084015260c081015160c084015260e0810151151560e08401520151151561010082015201940191019190916110ad565b600435906001600160a01b038216820361023257565b6009548110156111635760095f5260205f2001905f90565b634e487b7160e01b5f52603260045260245ffd5b600c5481101561116357600c5f5260205f2001905f90565b8054821015611163575f5260205f2001905f90565b60405190610100820182811067ffffffffffffffff821117610b4d57604052565b60405190610120820182811067ffffffffffffffff821117610b4d57604052565b6040519190601f01601f1916820167ffffffffffffffff811183821017610b4d57604052565b67ffffffffffffffff8111610b4d5760051b60200190565b80518210156111635760209160051b010190565b9190820180921161124557565b634e487b7160e01b5f52601160045260245ffd5b9061126b6112668361120c565b6111e6565b828152809261127c601f199161120c565b01905f5b82811061128c57505050565b6020906112976111c5565b5f81525f838201525f60408201525f60608201525f60808201525f60a08201525f60c08201525f60e08201525f61010082015282828501015201611280565b5f1981146112455760010190565b9190820391821161124557565b90916060905f600954156117685791600c9491939454936113146112668661120c565b85815294601f196113248261120c565b013660208801375f5b8181106117365750505f935b85518510156113d15760018501808611611245575b86518110156113c5578061136460019289611224565b515f52600b60205260405f205461137b888a611224565b515f52600b60205260405f205411611394575b0161134e565b61139e8789611224565b516113a9828a611224565b516113b4898b611224565b526113bf828a611224565b5261138e565b50600190940193611339565b91959094919350915f9183610660916113e9836111e6565b6032815292959791969195601f19015f5b8181106116e15750505f945f905b82518210806116d8575b806116ce575b156115e857989695929761142c8284611224565b515f52600b60205260405f209660025f98019384549b5b8c8a10806115df575b806115d5575b156115b7576114618a8761118f565b90549060031b1c5f5260036020528d60405f209760ff60078a015416159586158097906115ab575b801561159d575b61157c578b8061158d575b61157c5760038a01548181101561156e579e8f91826114b9916112e4565b9f6114c391611238565b99600481015497888302948386048a1484151715611245576114eb61155f9661156598611238565b9983549460018060a01b03600186015416926002860154600660ff600589015416970154946115186111c5565b9889526020890152604088015286015260808501528260a085015260c084015260e08301521561010082015261154e828c611224565b52611559818b611224565b506112d6565b996112d6565b98959a92611443565b509d8e906114b982806112e4565b9d98509a90506115659194506112d6565b5060ff60058b015416151561149b565b5060068a0154421015611490565b5060038a015415611489565b9850935099509296906115c9906112d6565b90989695979297611408565b5060328710611452565b5083151561144c565b9598999450505050929361165a57508415611646578490049261160a81611259565b915f5b82811061161c57505050929190565b8061162960019284611224565b516116348287611224565b5261163f8186611224565b500161160d565b634e487b7160e01b5f52601260045260245ffd5b929450919250505061166c60206111e6565b5f8152905f90815b82811061168557505050905f905f90565b6020906116906111c5565b5f81525f838201525f60408201525f848201525f60808201525f60a08201525f60c08201525f60e08201525f61010082015282828701015201611674565b5060328710611418565b50881515611412565b6020906116f29a989a9994996111c5565b5f81525f838201525f60408201525f8d8201525f60808201525f60a08201525f60c08201525f60e08201525f610100820152828288010152019896989792976113fa565b8061174960019299949699979597611177565b90549060031b1c61175a828a611224565b52019693919694929461132d565b63772806c360e01b5f5260045ffd5b90815491600160401b831015610b4d5782610aa591600161179a9501815561118f565b565b60025f516020611bdf5f395f51905f5254146117c55760025f516020611bdf5f395f51905f5255565b633ee5aeb560e01b5f5260045ffd5b80548015611800575f1901906117fd6117ed838361118f565b8154905f199060031b1b19169055565b55565b634e487b7160e01b5f52603160045260245ffd5b606490045f52600b60205260405f2091611833600184019182546112e4565b9055805f526003602052600360405f2001541561184e575050565b90815f52600e6020525f604081205560025f9101905b8154808210156118c35783611879838561118f565b90549060031b1c1461188e5750600101611864565b9092505f1981019081116112455761179a92610aa56118b06118be938561118f565b90549060031b1c918461118f565b6117d4565b50505050565b916040519163a9059cbb60e01b5f5260018060a01b031660045260245260205f60448180865af19060015f5114821615611929575b604052156119095750565b635274afe760e01b5f9081526001600160a01b0391909116600452602490fd5b90600181151661194157823b15153d151616906118fe565b503d5f823e3d90fd5b6040516323b872dd60e01b5f9081526001600160a01b039384166004529290931660245260449390935260209060648180865af19060015f511482161561199b575b6040525f606052156119095750565b90600181151661194157823b15153d1516169061198c565b906064820491815f52600e6020528260405f205414611b0d57815f52600e60205260405f2054611a8c575b825f52600b60205260405f205415611a44575b50815f52600b602052611a0a81600260405f2001611777565b805f526003602052600360405f200154825f52600b602052611a34600160405f2001918254611238565b90555f52600e60205260405f2055565b825f52600b60205260405f2055600c54825f52600d60205260405f2055600c54600160401b811015610b4d5782610aa5826001611a869401600c55600c61118f565b5f6119f1565b9190805f52600e60205260405f20545f52600b60205260405f209260025f9401935b845480821015611b025783611ac3838861118f565b90549060031b1c14611ad85750600101611aae565b5f95919293949519810190811161124557611afd92610aa56118b06118be938561118f565b6119de565b5050909192506119de565b505050565b805f52600560205260ff60405f20541615611bdb57805f52600a60205260405f20546009545f19810190811161124557611b4b9061114b565b90549060031b1c611b5f81610aa58461114b565b5f52600a60205260405f20556009548015611800575f1901611b856117ed82600961118f565b600955805f52600a6020525f6040812055805f52600560205260405f2060ff1981541690556008549081156112455761179a915f1901600855805f52600360205260405f20906003600483015492015491611814565b5056fe9b779b17422d0df92223018b32b4d1fa46e071723d6817e2486d003becc55f00a264697066735822122055f460b4a95d3def27e27521c878217a07b1494cadbc61983ca1493275dad70964736f6c63430008210033","linkReferences":{}},"methodIdentifiers":{"APR_STEP()":"be358e67","MAX_ACTIVE_OFFERS()":"6a0454df","MAX_OFFERS_PER_LENDER()":"33cd2597","activeOfferCount()":"87dcec95","aprBuckets(uint256)":"0cd24483","aprToIndex(uint256)":"e106c05b","aprValues(uint256)":"812c6382","borrowAsset()":"446456e5","cancelOffer(uint256)":"ef706adf","cleanupExpiredOffers(uint256)":"2014b71c","executeDrawdown(uint256,bool)":"c2e43f1d","factory()":"c45a0155","getActiveOfferCount()":"eb32a675","getBestOffers(uint256,bool)":"0db687be","getLenderOffers(address)":"c9fdfcce","getOffer(uint256)":"4579268a","getTotalLiquidityAvailable()":"be6fdf9a","initialize(address,address,address)":"c0c53b8b","isActiveOffer(uint256)":"8d81a1d3","lenderOfferIds(address,uint256)":"365aac33","market()":"80f55605","modifyOffer(uint256,uint256,uint256,uint256)":"1706fe13","nextOfferId()":"5f5d0655","offerInBucketId(uint256)":"8fbd2b16","offers(uint256)":"8a72ea6a","submitOffer(uint256,uint256,uint8,uint256)":"70f52305","totalLiquidity()":"15770f92"},"id":61}