{"abi":[{"type":"constructor","inputs":[],"stateMutability":"nonpayable"},{"type":"function","name":"BP","inputs":[],"outputs":[{"name":"","type":"uint256","internalType":"uint256"}],"stateMutability":"view"},{"type":"function","name":"borrowAsset","inputs":[],"outputs":[{"name":"","type":"address","internalType":"address"}],"stateMutability":"view"},{"type":"function","name":"borrowDecimals","inputs":[],"outputs":[{"name":"","type":"uint8","internalType":"uint8"}],"stateMutability":"view"},{"type":"function","name":"borrower","inputs":[],"outputs":[{"name":"","type":"address","internalType":"address"}],"stateMutability":"view"},{"type":"function","name":"collateralAsset","inputs":[],"outputs":[{"name":"","type":"address","internalType":"address"}],"stateMutability":"view"},{"type":"function","name":"collateralBalance","inputs":[{"name":"","type":"address","internalType":"address"}],"outputs":[{"name":"","type":"uint256","internalType":"uint256"}],"stateMutability":"view"},{"type":"function","name":"collateralDecimals","inputs":[],"outputs":[{"name":"","type":"uint8","internalType":"uint8"}],"stateMutability":"view"},{"type":"function","name":"collateralOracle","inputs":[],"outputs":[{"name":"","type":"address","internalType":"address"}],"stateMutability":"view"},{"type":"function","name":"collateralOracleDecimals","inputs":[],"outputs":[{"name":"","type":"uint8","internalType":"uint8"}],"stateMutability":"view"},{"type":"function","name":"depositCollateral","inputs":[{"name":"borrowerAddr","type":"address","internalType":"address"},{"name":"amount","type":"uint256","internalType":"uint256"}],"outputs":[],"stateMutability":"nonpayable"},{"type":"function","name":"endLiquidation","inputs":[],"outputs":[],"stateMutability":"nonpayable"},{"type":"function","name":"factory","inputs":[],"outputs":[{"name":"","type":"address","internalType":"address"}],"stateMutability":"view"},{"type":"function","name":"getCollateralBalance","inputs":[{"name":"borrowerAddr","type":"address","internalType":"address"}],"outputs":[{"name":"","type":"uint256","internalType":"uint256"}],"stateMutability":"view"},{"type":"function","name":"getCollateralRatio","inputs":[{"name":"borrowerAddr","type":"address","internalType":"address"},{"name":"debt","type":"uint256","internalType":"uint256"}],"outputs":[{"name":"","type":"uint256","internalType":"uint256"}],"stateMutability":"view"},{"type":"function","name":"getCollateralValue","inputs":[{"name":"borrower","type":"address","internalType":"address"}],"outputs":[{"name":"value","type":"uint256","internalType":"uint256"},{"name":"amount","type":"uint256","internalType":"uint256"}],"stateMutability":"view"},{"type":"function","name":"getHealthStatus","inputs":[{"name":"borrowerAddr","type":"address","internalType":"address"},{"name":"debt","type":"uint256","internalType":"uint256"}],"outputs":[{"name":"","type":"uint8","internalType":"enum IRevvFiCollateralEscrow.HealthStatus"}],"stateMutability":"view"},{"type":"function","name":"getMaxBorrowable","inputs":[{"name":"borrowerAddr","type":"address","internalType":"address"}],"outputs":[{"name":"","type":"uint256","internalType":"uint256"}],"stateMutability":"view"},{"type":"function","name":"initialize","inputs":[{"name":"_factory","type":"address","internalType":"address"},{"name":"_market","type":"address","internalType":"address"},{"name":"_borrower","type":"address","internalType":"address"},{"name":"_borrowAsset","type":"address","internalType":"address"},{"name":"_collateralAsset","type":"address","internalType":"address"},{"name":"_collateralOracle","type":"address","internalType":"address"},{"name":"_collateralDecimals","type":"uint8","internalType":"uint8"},{"name":"_borrowDecimals","type":"uint8","internalType":"uint8"}],"outputs":[],"stateMutability":"nonpayable"},{"type":"function","name":"isHealthy","inputs":[{"name":"borrowerAddr","type":"address","internalType":"address"},{"name":"debt","type":"uint256","internalType":"uint256"}],"outputs":[{"name":"","type":"bool","internalType":"bool"}],"stateMutability":"view"},{"type":"function","name":"isLiquidatable","inputs":[{"name":"borrowerAddr","type":"address","internalType":"address"},{"name":"debt","type":"uint256","internalType":"uint256"}],"outputs":[{"name":"","type":"bool","internalType":"bool"}],"stateMutability":"view"},{"type":"function","name":"isLiquidationActive","inputs":[],"outputs":[{"name":"","type":"bool","internalType":"bool"}],"stateMutability":"view"},{"type":"function","name":"liquidate","inputs":[{"name":"borrowerAddr","type":"address","internalType":"address"},{"name":"collateralToSeize","type":"uint256","internalType":"uint256"},{"name":"debtToCover","type":"uint256","internalType":"uint256"},{"name":"liquidatorAddr","type":"address","internalType":"address"}],"outputs":[{"name":"","type":"uint256","internalType":"uint256"},{"name":"","type":"uint256","internalType":"uint256"}],"stateMutability":"nonpayable"},{"type":"function","name":"liquidationActive","inputs":[],"outputs":[{"name":"","type":"bool","internalType":"bool"}],"stateMutability":"view"},{"type":"function","name":"liquidationThreshold","inputs":[],"outputs":[{"name":"","type":"uint256","internalType":"uint256"}],"stateMutability":"view"},{"type":"function","name":"market","inputs":[],"outputs":[{"name":"","type":"address","internalType":"address"}],"stateMutability":"view"},{"type":"function","name":"minCollateralRatio","inputs":[],"outputs":[{"name":"","type":"uint256","internalType":"uint256"}],"stateMutability":"view"},{"type":"function","name":"setLiquidationThreshold","inputs":[{"name":"newThreshold","type":"uint256","internalType":"uint256"}],"outputs":[],"stateMutability":"nonpayable"},{"type":"function","name":"setMinCollateralRatio","inputs":[{"name":"newRatio","type":"uint256","internalType":"uint256"}],"outputs":[],"stateMutability":"nonpayable"},{"type":"function","name":"startLiquidation","inputs":[],"outputs":[],"stateMutability":"nonpayable"},{"type":"function","name":"totalCollateral","inputs":[],"outputs":[{"name":"","type":"uint256","internalType":"uint256"}],"stateMutability":"view"},{"type":"function","name":"withdrawCollateral","inputs":[{"name":"borrowerAddr","type":"address","internalType":"address"},{"name":"amount","type":"uint256","internalType":"uint256"},{"name":"currentDebt","type":"uint256","internalType":"uint256"}],"outputs":[],"stateMutability":"nonpayable"},{"type":"event","name":"CollateralDeposited","inputs":[{"name":"borrower","type":"address","indexed":true,"internalType":"address"},{"name":"amount","type":"uint256","indexed":false,"internalType":"uint256"}],"anonymous":false},{"type":"event","name":"CollateralLiquidated","inputs":[{"name":"borrower","type":"address","indexed":true,"internalType":"address"},{"name":"collateralAmount","type":"uint256","indexed":false,"internalType":"uint256"},{"name":"debtAmount","type":"uint256","indexed":false,"internalType":"uint256"}],"anonymous":false},{"type":"event","name":"CollateralWithdrawn","inputs":[{"name":"borrower","type":"address","indexed":true,"internalType":"address"},{"name":"amount","type":"uint256","indexed":false,"internalType":"uint256"}],"anonymous":false},{"type":"event","name":"Initialized","inputs":[{"name":"version","type":"uint8","indexed":false,"internalType":"uint8"}],"anonymous":false},{"type":"event","name":"LiquidationEnded","inputs":[{"name":"borrower","type":"address","indexed":true,"internalType":"address"}],"anonymous":false},{"type":"event","name":"LiquidationStarted","inputs":[{"name":"borrower","type":"address","indexed":true,"internalType":"address"}],"anonymous":false},{"type":"event","name":"LiquidationThresholdUpdated","inputs":[{"name":"oldThreshold","type":"uint256","indexed":false,"internalType":"uint256"},{"name":"newThreshold","type":"uint256","indexed":false,"internalType":"uint256"}],"anonymous":false},{"type":"event","name":"MinCollateralRatioUpdated","inputs":[{"name":"oldRatio","type":"uint256","indexed":false,"internalType":"uint256"},{"name":"newRatio","type":"uint256","indexed":false,"internalType":"uint256"}],"anonymous":false},{"type":"error","name":"AlreadyLiquidating","inputs":[]},{"type":"error","name":"CollateralBelowMinimum","inputs":[]},{"type":"error","name":"InsufficientCollateral","inputs":[]},{"type":"error","name":"InvalidCollateralRatio","inputs":[]},{"type":"error","name":"InvalidDecimals","inputs":[]},{"type":"error","name":"OraclePriceStale","inputs":[]},{"type":"error","name":"ReentrancyGuardReentrantCall","inputs":[]},{"type":"error","name":"SafeERC20FailedOperation","inputs":[{"name":"token","type":"address","internalType":"address"}]},{"type":"error","name":"UnauthorizedCaller","inputs":[]},{"type":"error","name":"ZeroAddress","inputs":[]},{"type":"error","name":"ZeroAmount","inputs":[]}],"bytecode":{"object":"0x6080806040523460df5760017f9b779b17422d0df92223018b32b4d1fa46e071723d6817e2486d003becc55f00555f549060ff8260081c16608d575060ff808216036054575b60405161131a90816100e48239f35b60ff90811916175f557f7f26b83ff96e1f2b6a682f133852f6798a09c465da95921460cefb3847402498602060405160ff8152a15f6045565b62461bcd60e51b815260206004820152602760248201527f496e697469616c697a61626c653a20636f6e747261637420697320696e697469604482015266616c697a696e6760c81b6064820152608490fd5b5f80fdfe60806040526004361015610011575f80fd5b5f3560e01c806316187ccc14610e185780632703ee85146105b6578063365e1f481461072d5780633853627514610d975780633d3a066f14610c745780633fdfb2aa14610c4d5780634031234c14610c30578063446456e514610c085780634ac8eb5f14610beb5780634bdec14114610bc8578063515bc19414610b7c57806353ebb89914610b4b57806355d511ff146107bc5780637df1f1b91461079457806380f556051461076c57806384da26661461074f578063956fa4a31461072d57806395ec2c8a146106ad57806397904e42146106685780639cfdbd5e1461064c5780639dba70f9146105ee578063a1bf2840146105b6578063a217d5ce1461058e578063a31e8cb514610489578063a5d5db0c14610332578063aabaecd61461030a578063bbbe386914610292578063c45a015514610267578063d0b0c816146101b8578063d948b626146101955763ec9c6c301461016e575f80fd5b34610191575f36600319011261019157602060ff60055460a81c16604051908152f35b5f80fd5b34610191575f36600319011261019157602060ff60055460b01c16604051908152f35b34610191576020366003190112610191575f546004359060101c6001600160a01b03163303610258578015801561024c575b61023d57600854811161022e577fcdadd717dc9ee3550a289071d1af75e229726888d51e3a31c9e3dfc693d4852b60406009548151908152836020820152a1600955005b63a7967db160e01b5f5260045ffd5b6339ab046560e11b5f5260045ffd5b506127108110156101ea565b635c427cd960e01b5f5260045ffd5b34610191575f366003190112610191575f5460405160109190911c6001600160a01b03168152602090f35b34610191575f366003190112610191576001546001600160a01b0316330361025857600a5460ff81166102fb5760ff1916600117600a556002546001600160a01b03167f7f62ed89ea2c6fb057e4ea77729c1d3f18056339791fce29ac89760197b45b295f80a2005b633c5235bd60e21b5f5260045ffd5b34610191575f366003190112610191576004546040516001600160a01b039091168152602090f35b346101915760403660031901126101915761034b610e3f565b60015460243591906001600160a01b031633036102585761036a6111fd565b60ff600a54166102fb576001600160a01b031690811561047a57801561046b5760018060a01b03600454166040516323b872dd60e01b5f5233600452306024528260445260205f60648180865af19060015f511482161561044a575b6040525f60605215610438575060207fd7243f6f8212d5188fd054141cf6ea89cfc0d91facb8c3afe2f88a135848014291835f526006825260405f2061040d82825461103a565b905561041b8160075461103a565b600755604051908152a260015f5160206112c55f395f51905f5255005b635274afe760e01b5f5260045260245ffd5b90600181151661046257823b15153d151616906103c6565b503d5f823e3d90fd5b631f2a200560e01b5f5260045ffd5b63d92e233d60e01b5f5260045ffd5b34610191576080366003190112610191576104a2610e3f565b6024356044356104b0610e55565b6001549093906001600160a01b03163303610258576104cd6111fd565b60ff600a541615610258576001600160a01b03165f81815260066020526040902054831161057f5761053483604095835f526006602052865f20610512838254610eeb565b905561052082600754610eeb565b6007556004546001600160a01b0316611235565b7f4f65008ff243a1aab5777a6563d91c319b667f92b3f74af652fc9cd4f247d20b848051858152846020820152a260015f5160206112c55f395f51905f525582519182526020820152f35b633a23d82560e01b5f5260045ffd5b34610191575f366003190112610191576005546040516001600160a01b039091168152602090f35b34610191576020366003190112610191576001600160a01b036105d7610e3f565b165f526006602052602060405f2054604051908152f35b34610191575f366003190112610191576001546001600160a01b0316330361025857600a805460ff191690556002546001600160a01b03167fe513b42585b0ceec0d56d56fe3a23861c15a2f74eb4c32c94334d63d68ff4dcf5f80a2005b34610191575f3660031901126101915760206040516127108152f35b34610191576020366003190112610191576001600160a01b03610689610e3f565b165f5260066020526040805f20546106a08161106c565b9082519182526020820152f35b34610191576020366003190112610191576001600160a01b036106ce610e3f565b165f5260066020526106e360405f205461106c565b806106f5575060205f5b604051908152f35b6127108102908104612710036107195761071460209160085490610e7e565b6106ed565b634e487b7160e01b5f52601160045260245ffd5b34610191575f36600319011261019157602060ff600a54166040519015158152f35b34610191575f366003190112610191576020600854604051908152f35b34610191575f366003190112610191576001546040516001600160a01b039091168152602090f35b34610191575f366003190112610191576002546040516001600160a01b039091168152602090f35b3461019157610100366003190112610191576107d6610e3f565b6024356001600160a01b0381169190829003610191576044356001600160a01b0381169081900361019157610809610e55565b906084356001600160a01b038116908190036101915760a4356001600160a01b03811692908390036101915760c4359160ff8316948584036101915760e4359260ff841696878503610191575f549760ff8960081c16159889809a610b3e575b8015610b27575b15610acb5760ff1981166001175f5589610aba575b506001600160a01b038a16158015610ab2575b8015610aaa575b8015610a99575b8015610a91575b8015610a89575b61047a578115918215610a7e575b508115610a75575b8115610a6a575b50610a5b575f549762010000600160b01b039060101b16988962010000600160b01b03198a16175f556001600160601b0360a01b60015416176001556001600160601b0360a01b600254161760025560018060a01b03166001600160601b0360a01b60035416176003556001600160601b0360a01b600454161760045560046020846005549460ff60a81b9060a81b169360ff60b01b9060b01b16946bffffffffffffffffff0000ff60a01b161794848685171760055561271060085561251c6009556040519283809263313ce56760e01b82525afa908115610a50575f91610a14575b5060ff60a01b19909316171760a09190911b60ff60a01b16176005556109d757005b610100600160b01b031916175f55604051600181527f7f26b83ff96e1f2b6a682f133852f6798a09c465da95921460cefb384740249890602090a1005b90506020813d602011610a48575b81610a2f60209383611004565b81010312610191575160ff8116810361019157876109b5565b3d9150610a22565b6040513d5f823e3d90fd5b630692acc560e51b5f5260045ffd5b60129150118a6108d1565b801591506108ca565b60121091508b6108c2565b5087156108b4565b5084156108ad565b506001600160a01b038416156108a6565b50821561089f565b508a15610898565b61ffff1916610101175f558b610885565b60405162461bcd60e51b815260206004820152602e60248201527f496e697469616c697a61626c653a20636f6e747261637420697320616c72656160448201526d191e481a5b9a5d1a585b1a5e995960921b6064820152608490fd5b50303b1580156108705750600160ff821614610870565b50600160ff821610610869565b34610191576040366003190112610191576020610b72610b69610e3f565b60243590610fb0565b6040519015158152f35b3461019157604036600319011261019157610ba1610b98610e3f565b60243590610f4a565b6040516003821015610bb4576020918152f35b634e487b7160e01b5f52602160045260245ffd5b34610191575f36600319011261019157602060ff60055460a01c16604051908152f35b34610191575f366003190112610191576020600754604051908152f35b34610191575f366003190112610191576003546040516001600160a01b039091168152602090f35b34610191575f366003190112610191576020600954604051908152f35b34610191576040366003190112610191576020610b72610c6b610e3f565b60243590610ef8565b3461019157606036600319011261019157610c8d610e3f565b6001546044359190602435906001600160a01b0316330361025857610cb06111fd565b60ff600a54166102fb576001600160a01b03821692831561047a57811561046b57835f5260066020528160405f20541061057f57835f526006602052610cfa8260405f2054610eeb565b9080610d5e575b5090610d44817fc30fcfbcaac9e0deffa719714eaa82396ff506a0d0d0eebe170830177288715d94602094875f526006865260405f205561052082600754610eeb565b604051908152a260015f5160206112c55f395f51905f5255005b610d6982939261106c565b90612710820291808304612710149015171561071957610d8891610e7e565b6008541161057f579084610d01565b34610191576020366003190112610191575f546004359060101c6001600160a01b031633036102585780158015610e0d575b61023d57600954811061022e577f948ba262e91565b9caa2284557ddf9a7fb36ee3f00681b4fd1bfaae941e9188f60406008548151908152836020820152a1600855005b50614e208111610dc9565b346101915760403660031901126101915760206106ed610e36610e3f565b60243590610e9c565b600435906001600160a01b038216820361019157565b606435906001600160a01b038216820361019157565b8181029291811591840414171561071957565b8115610e88570490565b634e487b7160e01b5f52601260045260245ffd5b8115610ee4576001600160a01b03165f90815260066020526040902054610ec29061106c565b90612710820291808304612710149015171561071957610ee191610e7e565b90565b50505f1990565b9190820391821161071957565b8115610f44576001600160a01b03165f90815260066020526040902054610f1e9061106c565b90612710820291808304612710149015171561071957610f3d91610e7e565b6009541190565b50505f90565b8115610f44576001600160a01b03165f90815260066020526040902054610f709061106c565b90612710820291808304612710149015171561071957610f8f91610e7e565b600954811015610f9f5750600290565b60085411610fab575f90565b600190565b8115610ffd576001600160a01b03165f90815260066020526040902054610fd69061106c565b90612710820291808304612710149015171561071957610ff591610e7e565b600854111590565b5050600190565b90601f8019910116810190811067ffffffffffffffff82111761102657604052565b634e487b7160e01b5f52604160045260245ffd5b9190820180921161071957565b9060ff8091169116039060ff821161071957565b60ff16604d811161071957600a0a90565b80156111f857600554604051633fabe5a360e21b81529160a0836004816001600160a01b0386165afa928315610a50575f935f945f925f926111a2575b505f861392831593611199575b8315611181575b508215611167575b505061115857610ee1926110d891610e6b565b9060ff8160a01c1660ff8260b01c16908181115f1461111e5761110d929361110d61110860ff9461111394611047565b61105b565b90610e7e565b925b60a81c1661105b565b90808210611134575b505060ff61110d91611115565b61110d929361114b61110860ff9461115194611047565b90610e6b565b9291611127565b6308b9f95b60e01b5f5260045ffd5b69ffffffffffffffffffff91925081169116105f806110c5565b909250611c208101809111610719574211915f6110bd565b801593506110b6565b955050505060a0833d60a0116111f0575b816111c060a09383611004565b81010312610191576111d1836112ad565b60208401516111e76080606087015196016112ad565b9094915f6110a9565b3d91506111b3565b505f90565b60025f5160206112c55f395f51905f5254146112265760025f5160206112c55f395f51905f5255565b633ee5aeb560e01b5f5260045ffd5b916040519163a9059cbb60e01b5f5260018060a01b031660045260245260205f60448180865af19060015f5114821615611295575b604052156112755750565b635274afe760e01b5f9081526001600160a01b0391909116600452602490fd5b90600181151661046257823b15153d1516169061126a565b519069ffffffffffffffffffff821682036101915756fe9b779b17422d0df92223018b32b4d1fa46e071723d6817e2486d003becc55f00a2646970667358221220a791abd93a2a99f7b0684da94e88c291021b6a8a684b04dc0726c827d3b3d75c64736f6c63430008210033","linkReferences":{}},"methodIdentifiers":{"BP()":"9cfdbd5e","borrowAsset()":"446456e5","borrowDecimals()":"d948b626","borrower()":"7df1f1b9","collateralAsset()":"aabaecd6","collateralBalance(address)":"a1bf2840","collateralDecimals()":"ec9c6c30","collateralOracle()":"a217d5ce","collateralOracleDecimals()":"4bdec141","depositCollateral(address,uint256)":"a5d5db0c","endLiquidation()":"9dba70f9","factory()":"c45a0155","getCollateralBalance(address)":"2703ee85","getCollateralRatio(address,uint256)":"16187ccc","getCollateralValue(address)":"97904e42","getHealthStatus(address,uint256)":"515bc194","getMaxBorrowable(address)":"95ec2c8a","initialize(address,address,address,address,address,address,uint8,uint8)":"55d511ff","isHealthy(address,uint256)":"53ebb899","isLiquidatable(address,uint256)":"3fdfb2aa","isLiquidationActive()":"956fa4a3","liquidate(address,uint256,uint256,address)":"a31e8cb5","liquidationActive()":"365e1f48","liquidationThreshold()":"4031234c","market()":"80f55605","minCollateralRatio()":"84da2666","setLiquidationThreshold(uint256)":"d0b0c816","setMinCollateralRatio(uint256)":"38536275","startLiquidation()":"bbbe3869","totalCollateral()":"4ac8eb5f","withdrawCollateral(address,uint256,uint256)":"3d3a066f"},"id":56}