{"abi":[{"type":"constructor","inputs":[],"stateMutability":"nonpayable"},{"type":"function","name":"BP","inputs":[],"outputs":[{"name":"","type":"uint256","internalType":"uint256"}],"stateMutability":"view"},{"type":"function","name":"borrowAsset","inputs":[],"outputs":[{"name":"","type":"address","internalType":"address"}],"stateMutability":"view"},{"type":"function","name":"borrowDecimals","inputs":[],"outputs":[{"name":"","type":"uint8","internalType":"uint8"}],"stateMutability":"view"},{"type":"function","name":"borrower","inputs":[],"outputs":[{"name":"","type":"address","internalType":"address"}],"stateMutability":"view"},{"type":"function","name":"collateralAsset","inputs":[],"outputs":[{"name":"","type":"address","internalType":"address"}],"stateMutability":"view"},{"type":"function","name":"collateralBalance","inputs":[{"name":"","type":"address","internalType":"address"}],"outputs":[{"name":"","type":"uint256","internalType":"uint256"}],"stateMutability":"view"},{"type":"function","name":"collateralDecimals","inputs":[],"outputs":[{"name":"","type":"uint8","internalType":"uint8"}],"stateMutability":"view"},{"type":"function","name":"collateralOracle","inputs":[],"outputs":[{"name":"","type":"address","internalType":"address"}],"stateMutability":"view"},{"type":"function","name":"collateralOracleDecimals","inputs":[],"outputs":[{"name":"","type":"uint8","internalType":"uint8"}],"stateMutability":"view"},{"type":"function","name":"depositCollateral","inputs":[{"name":"borrowerAddr","type":"address","internalType":"address"},{"name":"amount","type":"uint256","internalType":"uint256"}],"outputs":[],"stateMutability":"nonpayable"},{"type":"function","name":"endLiquidation","inputs":[],"outputs":[],"stateMutability":"nonpayable"},{"type":"function","name":"factory","inputs":[],"outputs":[{"name":"","type":"address","internalType":"address"}],"stateMutability":"view"},{"type":"function","name":"getCollateralBalance","inputs":[{"name":"borrowerAddr","type":"address","internalType":"address"}],"outputs":[{"name":"","type":"uint256","internalType":"uint256"}],"stateMutability":"view"},{"type":"function","name":"getCollateralRatio","inputs":[{"name":"borrowerAddr","type":"address","internalType":"address"},{"name":"debt","type":"uint256","internalType":"uint256"}],"outputs":[{"name":"","type":"uint256","internalType":"uint256"}],"stateMutability":"view"},{"type":"function","name":"getCollateralValue","inputs":[{"name":"borrower","type":"address","internalType":"address"}],"outputs":[{"name":"value","type":"uint256","internalType":"uint256"},{"name":"amount","type":"uint256","internalType":"uint256"}],"stateMutability":"view"},{"type":"function","name":"getHealthStatus","inputs":[{"name":"borrowerAddr","type":"address","internalType":"address"},{"name":"debt","type":"uint256","internalType":"uint256"}],"outputs":[{"name":"","type":"uint8","internalType":"enum IRevvFiCollateralEscrow.HealthStatus"}],"stateMutability":"view"},{"type":"function","name":"getMaxBorrowable","inputs":[{"name":"borrowerAddr","type":"address","internalType":"address"}],"outputs":[{"name":"","type":"uint256","internalType":"uint256"}],"stateMutability":"view"},{"type":"function","name":"initialize","inputs":[{"name":"_factory","type":"address","internalType":"address"},{"name":"_market","type":"address","internalType":"address"},{"name":"_borrower","type":"address","internalType":"address"},{"name":"_borrowAsset","type":"address","internalType":"address"},{"name":"_collateralAsset","type":"address","internalType":"address"},{"name":"_collateralOracle","type":"address","internalType":"address"},{"name":"_collateralDecimals","type":"uint8","internalType":"uint8"},{"name":"_borrowDecimals","type":"uint8","internalType":"uint8"}],"outputs":[],"stateMutability":"nonpayable"},{"type":"function","name":"isHealthy","inputs":[{"name":"borrowerAddr","type":"address","internalType":"address"},{"name":"debt","type":"uint256","internalType":"uint256"}],"outputs":[{"name":"","type":"bool","internalType":"bool"}],"stateMutability":"view"},{"type":"function","name":"isLiquidatable","inputs":[{"name":"borrowerAddr","type":"address","internalType":"address"},{"name":"debt","type":"uint256","internalType":"uint256"}],"outputs":[{"name":"","type":"bool","internalType":"bool"}],"stateMutability":"view"},{"type":"function","name":"isLiquidationActive","inputs":[],"outputs":[{"name":"","type":"bool","internalType":"bool"}],"stateMutability":"view"},{"type":"function","name":"liquidate","inputs":[{"name":"borrowerAddr","type":"address","internalType":"address"},{"name":"collateralToSeize","type":"uint256","internalType":"uint256"},{"name":"debtToCover","type":"uint256","internalType":"uint256"},{"name":"liquidatorAddr","type":"address","internalType":"address"}],"outputs":[{"name":"","type":"uint256","internalType":"uint256"},{"name":"","type":"uint256","internalType":"uint256"}],"stateMutability":"nonpayable"},{"type":"function","name":"liquidationActive","inputs":[],"outputs":[{"name":"","type":"bool","internalType":"bool"}],"stateMutability":"view"},{"type":"function","name":"liquidationThreshold","inputs":[],"outputs":[{"name":"","type":"uint256","internalType":"uint256"}],"stateMutability":"view"},{"type":"function","name":"market","inputs":[],"outputs":[{"name":"","type":"address","internalType":"address"}],"stateMutability":"view"},{"type":"function","name":"minCollateralRatio","inputs":[],"outputs":[{"name":"","type":"uint256","internalType":"uint256"}],"stateMutability":"view"},{"type":"function","name":"setLiquidationThreshold","inputs":[{"name":"newThreshold","type":"uint256","internalType":"uint256"}],"outputs":[],"stateMutability":"nonpayable"},{"type":"function","name":"setMinCollateralRatio","inputs":[{"name":"newRatio","type":"uint256","internalType":"uint256"}],"outputs":[],"stateMutability":"nonpayable"},{"type":"function","name":"setStalePriceThreshold","inputs":[{"name":"newThreshold","type":"uint256","internalType":"uint256"}],"outputs":[],"stateMutability":"nonpayable"},{"type":"function","name":"stalePriceThreshold","inputs":[],"outputs":[{"name":"","type":"uint256","internalType":"uint256"}],"stateMutability":"view"},{"type":"function","name":"startLiquidation","inputs":[],"outputs":[],"stateMutability":"nonpayable"},{"type":"function","name":"totalCollateral","inputs":[],"outputs":[{"name":"","type":"uint256","internalType":"uint256"}],"stateMutability":"view"},{"type":"function","name":"withdrawCollateral","inputs":[{"name":"borrowerAddr","type":"address","internalType":"address"},{"name":"amount","type":"uint256","internalType":"uint256"},{"name":"currentDebt","type":"uint256","internalType":"uint256"}],"outputs":[],"stateMutability":"nonpayable"},{"type":"event","name":"CollateralDeposited","inputs":[{"name":"borrower","type":"address","indexed":true,"internalType":"address"},{"name":"amount","type":"uint256","indexed":false,"internalType":"uint256"}],"anonymous":false},{"type":"event","name":"CollateralLiquidated","inputs":[{"name":"borrower","type":"address","indexed":true,"internalType":"address"},{"name":"collateralAmount","type":"uint256","indexed":false,"internalType":"uint256"},{"name":"debtAmount","type":"uint256","indexed":false,"internalType":"uint256"}],"anonymous":false},{"type":"event","name":"CollateralWithdrawn","inputs":[{"name":"borrower","type":"address","indexed":true,"internalType":"address"},{"name":"amount","type":"uint256","indexed":false,"internalType":"uint256"}],"anonymous":false},{"type":"event","name":"Initialized","inputs":[{"name":"version","type":"uint8","indexed":false,"internalType":"uint8"}],"anonymous":false},{"type":"event","name":"LiquidationEnded","inputs":[{"name":"borrower","type":"address","indexed":true,"internalType":"address"}],"anonymous":false},{"type":"event","name":"LiquidationStarted","inputs":[{"name":"borrower","type":"address","indexed":true,"internalType":"address"}],"anonymous":false},{"type":"event","name":"LiquidationThresholdUpdated","inputs":[{"name":"oldThreshold","type":"uint256","indexed":false,"internalType":"uint256"},{"name":"newThreshold","type":"uint256","indexed":false,"internalType":"uint256"}],"anonymous":false},{"type":"event","name":"MinCollateralRatioUpdated","inputs":[{"name":"oldRatio","type":"uint256","indexed":false,"internalType":"uint256"},{"name":"newRatio","type":"uint256","indexed":false,"internalType":"uint256"}],"anonymous":false},{"type":"event","name":"StalePriceThresholdUpdated","inputs":[{"name":"oldThreshold","type":"uint256","indexed":false,"internalType":"uint256"},{"name":"newThreshold","type":"uint256","indexed":false,"internalType":"uint256"}],"anonymous":false},{"type":"error","name":"AddressEmptyCode","inputs":[{"name":"target","type":"address","internalType":"address"}]},{"type":"error","name":"AddressInsufficientBalance","inputs":[{"name":"account","type":"address","internalType":"address"}]},{"type":"error","name":"AlreadyLiquidating","inputs":[]},{"type":"error","name":"CollateralBelowMinimum","inputs":[]},{"type":"error","name":"FailedInnerCall","inputs":[]},{"type":"error","name":"InsufficientCollateral","inputs":[]},{"type":"error","name":"InvalidCollateralRatio","inputs":[]},{"type":"error","name":"InvalidDecimals","inputs":[]},{"type":"error","name":"InvalidStalePriceThreshold","inputs":[]},{"type":"error","name":"OraclePriceStale","inputs":[]},{"type":"error","name":"ReentrancyGuardReentrantCall","inputs":[]},{"type":"error","name":"SafeERC20FailedOperation","inputs":[{"name":"token","type":"address","internalType":"address"}]},{"type":"error","name":"UnauthorizedCaller","inputs":[]},{"type":"error","name":"ZeroAddress","inputs":[]},{"type":"error","name":"ZeroAmount","inputs":[]}],"bytecode":{"object":"0x6080806040523460c15760015f556001549060ff8260081c16606f575060ff808216036035575b60405161142490816100c68239f35b60ff90811916176001557f7f26b83ff96e1f2b6a682f133852f6798a09c465da95921460cefb3847402498602060405160ff8152a15f6026565b62461bcd60e51b815260206004820152602760248201527f496e697469616c697a61626c653a20636f6e747261637420697320696e697469604482015266616c697a696e6760c81b6064820152608490fd5b5f80fdfe6080806040526004361015610012575f80fd5b5f3560e01c90816308cb221014610e935750806316187ccc14610e6c5780632599af3414610de35780632703ee851461057f578063365e1f48146106f65780633853627514610d615780633d3a066f14610c4b5780633fdfb2aa14610c245780634031234c14610c07578063446456e514610bdf5780634ac8eb5f14610bc25780634bdec14114610b9f578063515bc19414610b5357806353ebb89914610b2257806355d511ff146107855780637df1f1b91461075d57806380f556051461073557806384da266614610718578063956fa4a3146106f657806395ec2c8a1461067657806397904e42146106315780639cfdbd5e146106155780639dba70f9146105b7578063a1bf28401461057f578063a217d5ce14610557578063a31e8cb51461045f578063a5d5db0c1461034d578063aabaecd614610325578063bbbe3869146102ad578063c45a015514610281578063d0b0c816146101d1578063d948b626146101ae5763ec9c6c3014610187575f80fd5b346101aa575f3660031901126101aa57602060ff60065460a81c16604051908152f35b5f80fd5b346101aa575f3660031901126101aa57602060ff60065460b01c16604051908152f35b346101aa5760203660031901126101aa576001546004359060101c6001600160a01b031633036102725780158015610266575b610257576009548111610248577fcdadd717dc9ee3550a289071d1af75e229726888d51e3a31c9e3dfc693d4852b6040600a548151908152836020820152a1600a55005b63a7967db160e01b5f5260045ffd5b6339ab046560e11b5f5260045ffd5b50612710811015610204565b635c427cd960e01b5f5260045ffd5b346101aa575f3660031901126101aa5760015460405160109190911c6001600160a01b03168152602090f35b346101aa575f3660031901126101aa576002546001600160a01b0316330361027257600c5460ff81166103165760ff1916600117600c556003546001600160a01b03167f7f62ed89ea2c6fb057e4ea77729c1d3f18056339791fce29ac89760197b45b295f80a2005b633c5235bd60e21b5f5260045ffd5b346101aa575f3660031901126101aa576005546040516001600160a01b039091168152602090f35b346101aa5760403660031901126101aa57610366610ead565b60025460243591906001600160a01b031633036102725761038561126b565b60ff600c5416610316576001600160a01b03169081156104505780156104415760207fd7243f6f8212d5188fd054141cf6ea89cfc0d91facb8c3afe2f88a13584801429161040d60018060a01b0360055416604051906323b872dd60e01b8583015233602483015230604483015283606483015260648252610408608483611072565b6112dd565b835f526007825260405f206104238282546110a8565b9055610431816008546110a8565b600855604051908152a260015f55005b631f2a200560e01b5f5260045ffd5b63d92e233d60e01b5f5260045ffd5b346101aa5760803660031901126101aa57610478610ead565b602435604435610486610ec3565b6002549093906001600160a01b03163303610272576104a361126b565b60ff600c541615610272576001600160a01b03165f8181526007602052604090205483116105485761050a83604095835f526007602052865f206104e8838254610f59565b90556104f682600854610f59565b6008556005546001600160a01b0316611289565b7f4f65008ff243a1aab5777a6563d91c319b667f92b3f74af652fc9cd4f247d20b848051858152846020820152a260015f5582519182526020820152f35b633a23d82560e01b5f5260045ffd5b346101aa575f3660031901126101aa576006546040516001600160a01b039091168152602090f35b346101aa5760203660031901126101aa576001600160a01b036105a0610ead565b165f526007602052602060405f2054604051908152f35b346101aa575f3660031901126101aa576002546001600160a01b0316330361027257600c805460ff191690556003546001600160a01b03167fe513b42585b0ceec0d56d56fe3a23861c15a2f74eb4c32c94334d63d68ff4dcf5f80a2005b346101aa575f3660031901126101aa5760206040516127108152f35b346101aa5760203660031901126101aa576001600160a01b03610652610ead565b165f5260076020526040805f2054610669816110da565b9082519182526020820152f35b346101aa5760203660031901126101aa576001600160a01b03610697610ead565b165f5260076020526106ac60405f20546110da565b806106be575060205f5b604051908152f35b6127108102908104612710036106e2576106dd60209160095490610eec565b6106b6565b634e487b7160e01b5f52601160045260245ffd5b346101aa575f3660031901126101aa57602060ff600c54166040519015158152f35b346101aa575f3660031901126101aa576020600954604051908152f35b346101aa575f3660031901126101aa576002546040516001600160a01b039091168152602090f35b346101aa575f3660031901126101aa576003546040516001600160a01b039091168152602090f35b346101aa576101003660031901126101aa5761079f610ead565b6024356001600160a01b03811691908290036101aa576044356001600160a01b038116908190036101aa576107d2610ec3565b906084356001600160a01b038116908190036101aa5760a4356001600160a01b03811692908390036101aa5760c4359160ff8316948584036101aa5760e4359260ff8416968785036101aa576001549760ff8960081c16159889809a610b15575b8015610afe575b15610aa25789600160ff19831617600155610a90575b506001600160a01b038a16158015610a88575b8015610a80575b8015610a6f575b8015610a67575b8015610a5f575b610450578115918215610a54575b508115610a4b575b8115610a40575b50610a31576001549762010000600160b01b039060101b16988962010000600160b01b03198a16176001556001600160601b0360a01b60025416176002556001600160601b0360a01b600354161760035560018060a01b03166001600160601b0360a01b60045416176004556001600160601b0360a01b600554161760055560046020846006549460ff60a81b9060a81b169360ff60b01b9060b01b16946bffffffffffffffffff0000ff60a01b161794848685171760065561271060095561251c600a5562015180600b556040519283809263313ce56760e01b82525afa908115610a26575f916109ea575b5060ff60a01b19909316171760a09190911b60ff60a01b16176006556109ab57005b610100600160b01b0319161760019081556040519081527f7f26b83ff96e1f2b6a682f133852f6798a09c465da95921460cefb384740249890602090a1005b90506020813d602011610a1e575b81610a0560209383611072565b810103126101aa575160ff811681036101aa5787610989565b3d91506109f8565b6040513d5f823e3d90fd5b630692acc560e51b5f5260045ffd5b60129150118a61089c565b80159150610895565b60121091508b61088d565b50871561087f565b508415610878565b506001600160a01b03841615610871565b50821561086a565b508a15610863565b61ffff1916610101176001558b610850565b60405162461bcd60e51b815260206004820152602e60248201527f496e697469616c697a61626c653a20636f6e747261637420697320616c72656160448201526d191e481a5b9a5d1a585b1a5e995960921b6064820152608490fd5b50303b15801561083a5750600160ff82161461083a565b50600160ff821610610833565b346101aa5760403660031901126101aa576020610b49610b40610ead565b6024359061101e565b6040519015158152f35b346101aa5760403660031901126101aa57610b78610b6f610ead565b60243590610fb8565b6040516003821015610b8b576020918152f35b634e487b7160e01b5f52602160045260245ffd5b346101aa575f3660031901126101aa57602060ff60065460a01c16604051908152f35b346101aa575f3660031901126101aa576020600854604051908152f35b346101aa575f3660031901126101aa576004546040516001600160a01b039091168152602090f35b346101aa575f3660031901126101aa576020600a54604051908152f35b346101aa5760403660031901126101aa576020610b49610c42610ead565b60243590610f66565b346101aa5760603660031901126101aa57610c64610ead565b6002546044359190602435906001600160a01b0316330361027257610c8761126b565b60ff600c5416610316576001600160a01b03821692831561045057811561044157835f5260076020528160405f20541061054857835f526007602052610cd18260405f2054610f59565b9080610d28575b5090610d1b817fc30fcfbcaac9e0deffa719714eaa82396ff506a0d0d0eebe170830177288715d94602094875f526007865260405f20556104f682600854610f59565b604051908152a260015f55005b610d338293926110da565b9061271082029180830461271014901517156106e257610d5291610eec565b60095411610548579084610cd8565b346101aa5760203660031901126101aa576001546004359060101c6001600160a01b031633036102725780158015610dd8575b61025757600a548110610248577f948ba262e91565b9caa2284557ddf9a7fb36ee3f00681b4fd1bfaae941e9188f60406009548151908152836020820152a1600955005b50614e208111610d94565b346101aa5760203660031901126101aa576001546004359060101c6001600160a01b031633036102725780158015610e60575b610e51577f8f83b069a278bb20c05e2fd368a9a7a7bca85964a493d16acea1bf1864df39206040600b548151908152836020820152a1600b55005b636141993b60e01b5f5260045ffd5b5062093a808111610e16565b346101aa5760403660031901126101aa5760206106b6610e8a610ead565b60243590610f0a565b346101aa575f3660031901126101aa57602090600b548152f35b600435906001600160a01b03821682036101aa57565b606435906001600160a01b03821682036101aa57565b818102929181159184041417156106e257565b8115610ef6570490565b634e487b7160e01b5f52601260045260245ffd5b8115610f52576001600160a01b03165f90815260076020526040902054610f30906110da565b9061271082029180830461271014901517156106e257610f4f91610eec565b90565b50505f1990565b919082039182116106e257565b8115610fb2576001600160a01b03165f90815260076020526040902054610f8c906110da565b9061271082029180830461271014901517156106e257610fab91610eec565b600a541190565b50505f90565b8115610fb2576001600160a01b03165f90815260076020526040902054610fde906110da565b9061271082029180830461271014901517156106e257610ffd91610eec565b600a5481101561100d5750600290565b60095411611019575f90565b600190565b811561106b576001600160a01b03165f90815260076020526040902054611044906110da565b9061271082029180830461271014901517156106e25761106391610eec565b600954111590565b5050600190565b90601f8019910116810190811067ffffffffffffffff82111761109457604052565b634e487b7160e01b5f52604160045260245ffd5b919082018092116106e257565b9060ff8091169116039060ff82116106e257565b60ff16604d81116106e257600a0a90565b801561126657600654604051633fabe5a360e21b81529160a0836004816001600160a01b0386165afa928315610a26575f935f945f925f92611210575b505f861392831593611207575b83156111ef575b5082156111d5575b50506111c657610f4f9261114691610ed9565b9060ff8160a01c1660ff8260b01c16908181115f1461118c5761117b929361117b61117660ff94611181946110b5565b6110c9565b90610eec565b925b60a81c166110c9565b908082106111a2575b505060ff61117b91611183565b61117b92936111b961117660ff946111bf946110b5565b90610ed9565b9291611195565b6308b9f95b60e01b5f5260045ffd5b69ffffffffffffffffffff91925081169116105f80611133565b6111fe919350600b54906110a8565b4211915f61112b565b80159350611124565b955050505060a0833d60a01161125e575b8161122e60a09383611072565b810103126101aa5761123f836112c6565b60208401516112556080606087015196016112c6565b9094915f611117565b3d9150611221565b505f90565b60025f541461127a5760025f55565b633ee5aeb560e01b5f5260045ffd5b60405163a9059cbb60e01b60208201526001600160a01b0390921660248301526044808301939093529181526112c491610408606483611072565b565b519069ffffffffffffffffffff821682036101aa57565b81516001600160a01b03909116915f91829160200182855af13d15611384573d67ffffffffffffffff81116110945761133891604051916113286020601f19601f8401160184611072565b82523d5f602084013e5b83611390565b8051908115159182611360575b505061134e5750565b635274afe760e01b5f5260045260245ffd5b81925090602091810103126101aa57602001518015908115036101aa575f80611345565b61133890606090611332565b906113b457508051156113a557805190602001fd5b630a12f52160e11b5f5260045ffd5b815115806113e5575b6113c5575090565b639996b31560e01b5f9081526001600160a01b0391909116600452602490fd5b50803b156113bd56fea2646970667358221220e85d9f7922f29bae0af177b704f97d37e1e831f590b91368483f2080fc79af3564736f6c63430008210033","linkReferences":{}},"methodIdentifiers":{"BP()":"9cfdbd5e","borrowAsset()":"446456e5","borrowDecimals()":"d948b626","borrower()":"7df1f1b9","collateralAsset()":"aabaecd6","collateralBalance(address)":"a1bf2840","collateralDecimals()":"ec9c6c30","collateralOracle()":"a217d5ce","collateralOracleDecimals()":"4bdec141","depositCollateral(address,uint256)":"a5d5db0c","endLiquidation()":"9dba70f9","factory()":"c45a0155","getCollateralBalance(address)":"2703ee85","getCollateralRatio(address,uint256)":"16187ccc","getCollateralValue(address)":"97904e42","getHealthStatus(address,uint256)":"515bc194","getMaxBorrowable(address)":"95ec2c8a","initialize(address,address,address,address,address,address,uint8,uint8)":"55d511ff","isHealthy(address,uint256)":"53ebb899","isLiquidatable(address,uint256)":"3fdfb2aa","isLiquidationActive()":"956fa4a3","liquidate(address,uint256,uint256,address)":"a31e8cb5","liquidationActive()":"365e1f48","liquidationThreshold()":"4031234c","market()":"80f55605","minCollateralRatio()":"84da2666","setLiquidationThreshold(uint256)":"d0b0c816","setMinCollateralRatio(uint256)":"38536275","setStalePriceThreshold(uint256)":"2599af34","stalePriceThreshold()":"08cb2210","startLiquidation()":"bbbe3869","totalCollateral()":"4ac8eb5f","withdrawCollateral(address,uint256,uint256)":"3d3a066f"},"id":50}