{"abi":[{"type":"constructor","inputs":[],"stateMutability":"nonpayable"},{"type":"function","name":"BASIS_POINTS","inputs":[],"outputs":[{"name":"","type":"uint256","internalType":"uint256"}],"stateMutability":"view"},{"type":"function","name":"MAX_ACTIVE_POSITIONS","inputs":[],"outputs":[{"name":"","type":"uint256","internalType":"uint256"}],"stateMutability":"view"},{"type":"function","name":"MAX_APR_BPS","inputs":[],"outputs":[{"name":"","type":"uint256","internalType":"uint256"}],"stateMutability":"view"},{"type":"function","name":"activePositionIds","inputs":[{"name":"","type":"uint256","internalType":"uint256"}],"outputs":[{"name":"","type":"uint256","internalType":"uint256"}],"stateMutability":"view"},{"type":"function","name":"activePositionIndex","inputs":[{"name":"","type":"uint256","internalType":"uint256"}],"outputs":[{"name":"","type":"uint256","internalType":"uint256"}],"stateMutability":"view"},{"type":"function","name":"archController","inputs":[],"outputs":[{"name":"","type":"address","internalType":"address"}],"stateMutability":"view"},{"type":"function","name":"badDebt","inputs":[],"outputs":[{"name":"","type":"uint256","internalType":"uint256"}],"stateMutability":"view"},{"type":"function","name":"borrow","inputs":[{"name":"amount","type":"uint256","internalType":"uint256"},{"name":"useSeniorOnly","type":"bool","internalType":"bool"},{"name":"maxApr","type":"uint256","internalType":"uint256"}],"outputs":[],"stateMutability":"nonpayable"},{"type":"function","name":"borrowAsset","inputs":[],"outputs":[{"name":"","type":"address","internalType":"address"}],"stateMutability":"view"},{"type":"function","name":"borrower","inputs":[],"outputs":[{"name":"","type":"address","internalType":"address"}],"stateMutability":"view"},{"type":"function","name":"claimFunds","inputs":[{"name":"positionId","type":"uint256","internalType":"uint256"}],"outputs":[],"stateMutability":"nonpayable"},{"type":"function","name":"closeMarket","inputs":[],"outputs":[],"stateMutability":"nonpayable"},{"type":"function","name":"collateralAsset","inputs":[],"outputs":[{"name":"","type":"address","internalType":"address"}],"stateMutability":"view"},{"type":"function","name":"collateralEscrow","inputs":[],"outputs":[{"name":"","type":"address","internalType":"contract IRevvFiCollateralEscrow"}],"stateMutability":"view"},{"type":"function","name":"currentCycleBorrowedAmount","inputs":[],"outputs":[{"name":"","type":"uint256","internalType":"uint256"}],"stateMutability":"view"},{"type":"function","name":"depositCollateral","inputs":[{"name":"amount","type":"uint256","internalType":"uint256"}],"outputs":[],"stateMutability":"nonpayable"},{"type":"function","name":"endLiquidation","inputs":[],"outputs":[],"stateMutability":"nonpayable"},{"type":"function","name":"factory","inputs":[],"outputs":[{"name":"","type":"address","internalType":"address"}],"stateMutability":"view"},{"type":"function","name":"forceCloseMarket","inputs":[],"outputs":[],"stateMutability":"nonpayable"},{"type":"function","name":"getActivePositionsCount","inputs":[],"outputs":[{"name":"","type":"uint256","internalType":"uint256"}],"stateMutability":"view"},{"type":"function","name":"getActivePositionsPaginated","inputs":[{"name":"start","type":"uint256","internalType":"uint256"},{"name":"limit","type":"uint256","internalType":"uint256"}],"outputs":[{"name":"result","type":"uint256[]","internalType":"uint256[]"}],"stateMutability":"view"},{"type":"function","name":"getCollateralRatio","inputs":[],"outputs":[{"name":"","type":"uint256","internalType":"uint256"}],"stateMutability":"view"},{"type":"function","name":"getCurrentPrincipal","inputs":[],"outputs":[{"name":"","type":"uint256","internalType":"uint256"}],"stateMutability":"view"},{"type":"function","name":"getMaxBorrowable","inputs":[],"outputs":[{"name":"","type":"uint256","internalType":"uint256"}],"stateMutability":"view"},{"type":"function","name":"getPositionClaimable","inputs":[{"name":"positionId","type":"uint256","internalType":"uint256"}],"outputs":[{"name":"","type":"uint256","internalType":"uint256"}],"stateMutability":"view"},{"type":"function","name":"getPositionValue","inputs":[{"name":"positionId","type":"uint256","internalType":"uint256"}],"outputs":[{"name":"","type":"uint256","internalType":"uint256"}],"stateMutability":"view"},{"type":"function","name":"getTotalOwed","inputs":[],"outputs":[{"name":"","type":"uint256","internalType":"uint256"}],"stateMutability":"view"},{"type":"function","name":"guardian","inputs":[],"outputs":[{"name":"","type":"address","internalType":"address"}],"stateMutability":"view"},{"type":"function","name":"initialize","inputs":[{"name":"_factory","type":"address","internalType":"address"},{"name":"_archController","type":"address","internalType":"address"},{"name":"_borrower","type":"address","internalType":"address"},{"name":"_borrowAsset","type":"address","internalType":"address"},{"name":"_collateralAsset","type":"address","internalType":"address"}],"outputs":[],"stateMutability":"nonpayable"},{"type":"function","name":"isClosed","inputs":[],"outputs":[{"name":"","type":"bool","internalType":"bool"}],"stateMutability":"view"},{"type":"function","name":"isHealthy","inputs":[],"outputs":[{"name":"","type":"bool","internalType":"bool"}],"stateMutability":"view"},{"type":"function","name":"isInitialized","inputs":[],"outputs":[{"name":"","type":"bool","internalType":"bool"}],"stateMutability":"view"},{"type":"function","name":"isLiquidatable","inputs":[],"outputs":[{"name":"","type":"bool","internalType":"bool"}],"stateMutability":"view"},{"type":"function","name":"isLiquidating","inputs":[],"outputs":[{"name":"","type":"bool","internalType":"bool"}],"stateMutability":"view"},{"type":"function","name":"isPaused","inputs":[],"outputs":[{"name":"","type":"bool","internalType":"bool"}],"stateMutability":"view"},{"type":"function","name":"lenderPositions","inputs":[{"name":"","type":"address","internalType":"address"},{"name":"","type":"uint256","internalType":"uint256"}],"outputs":[{"name":"","type":"uint256","internalType":"uint256"}],"stateMutability":"view"},{"type":"function","name":"liquidate","inputs":[],"outputs":[],"stateMutability":"nonpayable"},{"type":"function","name":"liquidationAuctionId","inputs":[],"outputs":[{"name":"","type":"uint256","internalType":"uint256"}],"stateMutability":"view"},{"type":"function","name":"liquidator","inputs":[],"outputs":[{"name":"","type":"address","internalType":"contract IRevvFiLiquidator"}],"stateMutability":"view"},{"type":"function","name":"offerBook","inputs":[],"outputs":[{"name":"","type":"address","internalType":"contract IRevvFiOfferBook"}],"stateMutability":"view"},{"type":"function","name":"pause","inputs":[],"outputs":[],"stateMutability":"nonpayable"},{"type":"function","name":"positionActive","inputs":[{"name":"","type":"uint256","internalType":"uint256"}],"outputs":[{"name":"","type":"bool","internalType":"bool"}],"stateMutability":"view"},{"type":"function","name":"positionApr","inputs":[{"name":"","type":"uint256","internalType":"uint256"}],"outputs":[{"name":"","type":"uint256","internalType":"uint256"}],"stateMutability":"view"},{"type":"function","name":"positionClaimableAmount","inputs":[{"name":"","type":"uint256","internalType":"uint256"}],"outputs":[{"name":"","type":"uint256","internalType":"uint256"}],"stateMutability":"view"},{"type":"function","name":"positionLastAccrualTime","inputs":[{"name":"","type":"uint256","internalType":"uint256"}],"outputs":[{"name":"","type":"uint256","internalType":"uint256"}],"stateMutability":"view"},{"type":"function","name":"positionNFT","inputs":[],"outputs":[{"name":"","type":"address","internalType":"contract IRevvFiPositionNFT"}],"stateMutability":"view"},{"type":"function","name":"positionPrincipal","inputs":[{"name":"","type":"uint256","internalType":"uint256"}],"outputs":[{"name":"","type":"uint256","internalType":"uint256"}],"stateMutability":"view"},{"type":"function","name":"positionSeniority","inputs":[{"name":"","type":"uint256","internalType":"uint256"}],"outputs":[{"name":"","type":"uint8","internalType":"uint8"}],"stateMutability":"view"},{"type":"function","name":"positionSettled","inputs":[{"name":"","type":"uint256","internalType":"uint256"}],"outputs":[{"name":"","type":"bool","internalType":"bool"}],"stateMutability":"view"},{"type":"function","name":"repay","inputs":[{"name":"amount","type":"uint256","internalType":"uint256"}],"outputs":[],"stateMutability":"nonpayable"},{"type":"function","name":"repayFull","inputs":[],"outputs":[],"stateMutability":"nonpayable"},{"type":"function","name":"reputationRegistry","inputs":[],"outputs":[{"name":"","type":"address","internalType":"contract IReputationRegistry"}],"stateMutability":"view"},{"type":"function","name":"setContracts","inputs":[{"name":"_collateralEscrow","type":"address","internalType":"address"},{"name":"_offerBook","type":"address","internalType":"address"},{"name":"_positionNFT","type":"address","internalType":"address"},{"name":"_liquidator","type":"address","internalType":"address"},{"name":"_reputationRegistry","type":"address","internalType":"address"}],"outputs":[],"stateMutability":"nonpayable"},{"type":"function","name":"setGuardian","inputs":[{"name":"newGuardian","type":"address","internalType":"address"}],"outputs":[],"stateMutability":"nonpayable"},{"type":"function","name":"settleLiquidation","inputs":[{"name":"debtRepaid","type":"uint256","internalType":"uint256"},{"name":"lossAmount","type":"uint256","internalType":"uint256"}],"outputs":[],"stateMutability":"nonpayable"},{"type":"function","name":"settledPositionOwner","inputs":[{"name":"","type":"uint256","internalType":"uint256"}],"outputs":[{"name":"","type":"address","internalType":"address"}],"stateMutability":"view"},{"type":"function","name":"startLiquidation","inputs":[],"outputs":[],"stateMutability":"nonpayable"},{"type":"function","name":"totalAssets","inputs":[],"outputs":[{"name":"","type":"uint256","internalType":"uint256"}],"stateMutability":"view"},{"type":"function","name":"totalDebt","inputs":[],"outputs":[{"name":"","type":"uint256","internalType":"uint256"}],"stateMutability":"view"},{"type":"function","name":"totalRealizedLoss","inputs":[],"outputs":[{"name":"","type":"uint256","internalType":"uint256"}],"stateMutability":"view"},{"type":"function","name":"unpause","inputs":[],"outputs":[],"stateMutability":"nonpayable"},{"type":"function","name":"withdrawCollateral","inputs":[{"name":"amount","type":"uint256","internalType":"uint256"}],"outputs":[],"stateMutability":"nonpayable"},{"type":"event","name":"Borrow","inputs":[{"name":"borrower","type":"address","indexed":true,"internalType":"address"},{"name":"amount","type":"uint256","indexed":false,"internalType":"uint256"},{"name":"weightedApr","type":"uint256","indexed":false,"internalType":"uint256"}],"anonymous":false},{"type":"event","name":"ContractsSet","inputs":[],"anonymous":false},{"type":"event","name":"DrawdownExecuted","inputs":[{"name":"totalAmount","type":"uint256","indexed":false,"internalType":"uint256"},{"name":"weightedApr","type":"uint256","indexed":false,"internalType":"uint256"},{"name":"positionIds","type":"uint256[]","indexed":false,"internalType":"uint256[]"}],"anonymous":false},{"type":"event","name":"GuardianUpdated","inputs":[{"name":"oldGuardian","type":"address","indexed":true,"internalType":"address"},{"name":"newGuardian","type":"address","indexed":true,"internalType":"address"}],"anonymous":false},{"type":"event","name":"Initialized","inputs":[{"name":"version","type":"uint8","indexed":false,"internalType":"uint8"}],"anonymous":false},{"type":"event","name":"LenderRepaid","inputs":[{"name":"lender","type":"address","indexed":true,"internalType":"address"},{"name":"positionId","type":"uint256","indexed":true,"internalType":"uint256"},{"name":"newPrincipal","type":"uint256","indexed":false,"internalType":"uint256"},{"name":"claimableShare","type":"uint256","indexed":false,"internalType":"uint256"}],"anonymous":false},{"type":"event","name":"LiquidationEndedMarket","inputs":[{"name":"borrower","type":"address","indexed":true,"internalType":"address"}],"anonymous":false},{"type":"event","name":"LiquidationStartedMarket","inputs":[{"name":"borrower","type":"address","indexed":true,"internalType":"address"}],"anonymous":false},{"type":"event","name":"MarketClosedEvent","inputs":[{"name":"borrower","type":"address","indexed":true,"internalType":"address"},{"name":"timestamp","type":"uint256","indexed":false,"internalType":"uint256"}],"anonymous":false},{"type":"event","name":"PositionClaimed","inputs":[{"name":"positionId","type":"uint256","indexed":true,"internalType":"uint256"},{"name":"lender","type":"address","indexed":true,"internalType":"address"},{"name":"amount","type":"uint256","indexed":false,"internalType":"uint256"}],"anonymous":false},{"type":"event","name":"PositionSettled","inputs":[{"name":"positionId","type":"uint256","indexed":true,"internalType":"uint256"},{"name":"principalAmount","type":"uint256","indexed":false,"internalType":"uint256"},{"name":"interestAmount","type":"uint256","indexed":false,"internalType":"uint256"}],"anonymous":false},{"type":"event","name":"Repay","inputs":[{"name":"borrower","type":"address","indexed":true,"internalType":"address"},{"name":"amount","type":"uint256","indexed":false,"internalType":"uint256"},{"name":"interestPortion","type":"uint256","indexed":false,"internalType":"uint256"},{"name":"principalPortion","type":"uint256","indexed":false,"internalType":"uint256"}],"anonymous":false},{"type":"error","name":"AddressEmptyCode","inputs":[{"name":"target","type":"address","internalType":"address"}]},{"type":"error","name":"AddressInsufficientBalance","inputs":[{"name":"account","type":"address","internalType":"address"}]},{"type":"error","name":"AlreadyLiquidating","inputs":[]},{"type":"error","name":"BorrowAmountTooHigh","inputs":[]},{"type":"error","name":"FailedInnerCall","inputs":[]},{"type":"error","name":"InsufficientCollateral","inputs":[]},{"type":"error","name":"InsufficientRepayment","inputs":[]},{"type":"error","name":"LiquidationInProgress","inputs":[]},{"type":"error","name":"MarketClosed","inputs":[]},{"type":"error","name":"MarketPaused","inputs":[]},{"type":"error","name":"MaxAprExceeded","inputs":[]},{"type":"error","name":"NoOffersAvailable","inputs":[]},{"type":"error","name":"NoPrincipalToClaim","inputs":[]},{"type":"error","name":"NotInitialized","inputs":[]},{"type":"error","name":"NotLiquidatingMarket","inputs":[]},{"type":"error","name":"ReentrancyGuardReentrantCall","inputs":[]},{"type":"error","name":"SafeERC20FailedOperation","inputs":[{"name":"token","type":"address","internalType":"address"}]},{"type":"error","name":"TooManyActivePositions","inputs":[]},{"type":"error","name":"UnauthorizedCaller","inputs":[]},{"type":"error","name":"ZeroAddress","inputs":[]},{"type":"error","name":"ZeroAmount","inputs":[]}],"bytecode":{"object":"0x6080806040523460c15760015f556001549060ff8260081c16606f575060ff808216036035575b60405161373d90816100c68239f35b60ff90811916176001557f7f26b83ff96e1f2b6a682f133852f6798a09c465da95921460cefb3847402498602060405160ff8152a15f6026565b62461bcd60e51b815260206004820152602760248201527f496e697469616c697a61626c653a20636f6e747261637420697320696e697469604482015266616c697a696e6760c81b6064820152608490fd5b5f80fdfe6080806040526004361015610012575f80fd5b5f5f3560e01c91826301e1d1141461287d57508163062334d114612860578163138173e8146122055781631459457a14611fb85781631727b33114611e1057816317bc803a14611df35781631b55e33814611b7957816323228ecb14611b51578163253f7a3314611b2857816328a0702514611aea57816329d93d67146118ad5781632be6cc8b14610d8e5781632df2c0311461188457816331c9504414611867578163371fd8e6146116b7578163392e53cd146116925781633945c080146116765781633aa03451146116485781633f4ba83a146115f55781634046ebae146115cd57816341211618146115a4578163446456e51461157c578163452a93201461155057816347ad77881461152457816352f2d4e0146111bb5781635463557014611193578163578c65e41461116f5781636040a98d146111555781636112fe2e146110905781637c0eec71146110675781637df1f1b91461103f5781637e8ea3c9146110245781638456cb5914610fce578163862235cb14610fa05781638a0dac4a14610efd5781638bb4170814610ed357816395c8cbc9146102c857816397f58e9114610eae5781639dba70f914610db7578163a7173f6814610d8e578163a93d789f14610d38578163aabaecd614610d10578163ac591b8d14610cde578163b187bd2614610cbc578163b49d05c914610c94578163b86a0aaa14610c6e578163ba58817914610c3c578163bad4a01f14610ae8578163bbbe3869146107d0578163bbcac557146107b3578163c2b6b58c14610791578163c45a015514610765578163c511ed5e14610696578163c5e6f13f14610679578163c86c69cc1461061d578163c8db44e3146105f5578163cd377c531461053d578163e1f1c4a714610521578163e402080414610454578163e8e17bc81461042c578163f63bf8bd146102cd575063fc7b9c18146102c8575f80fd5b6129a6565b34610429576102db366128dd565b60015490949193919060101c6001600160a01b0316330361041a576001600160a01b031680158015610409575b80156103f8575b80156103e7575b80156103d6575b6103c7576001600160601b0360a01b600654161760065560018060a01b03166001600160601b0360a01b600754161760075560018060a01b03166001600160601b0360a01b600854161760085560018060a01b03166001600160601b0360a01b600954161760095560018060a01b03166001600160601b0360a01b600a541617600a557feaedf84a54115aef3214ad296d4e9d465ef83830625852a51d892bb830100c408180a180f35b63d92e233d60e01b8652600486fd5b506001600160a01b0385161561031d565b506001600160a01b03841615610316565b506001600160a01b0383161561030f565b506001600160a01b03821615610308565b635c427cd960e01b8652600486fd5b80fd5b346104295780600319360112610429576006546040516001600160a01b039091168152602090f35b346104295780600319360112610429576006546003546104b992916020916001600160a01b039081169116610487612c3d565b6040516353ebb89960e01b81526001600160a01b03909316600484015260248301529093849190829081906044820190565b03915afa9081156105155780916104d8575b6020826040519015158152f35b90506020823d60201161050d575b816104f3602093836129f3565b810103126104295750610507602091612a41565b826104cb565b3d91506104e6565b604051903d90823e3d90fd5b3461042957806003193601126104295760206040516127108152f35b346104295780600319360112610429576006546003546105a292916020916001600160a01b039081169116610570612c3d565b6040516305861f3360e21b81526001600160a01b03909316600484015260248301529093849190829081906044820190565b03915afa90811561051557906105be575b602090604051908152f35b506020813d6020116105ed575b816105d8602093836129f3565b810103126105e957602090516105b3565b5f80fd5b3d91506105cb565b34610429578060031936011261042957600a546040516001600160a01b039091168152602090f35b3461042957806003193601126104295780601354825b81841061064557602083604051908152f35b909161066f60019161065686612965565b90549060031b1c8452600b602052604084205490612a4e565b9301929190610633565b346104295780600319360112610429576020601354604051908152f35b346104295780600319360112610429576003546001600160a01b03163303610756576106c0612d13565b60155460ff8160081c1615610747576106d7612c3d565b610738576013546107295760019060ff19161760155560018060a01b03600354167f09a09c46728dfde8eed179c677c1238c3dde7f0d264ed782135a43b23222e2196020604051428152a26001815580f35b632b0e2f9160e21b8252600482fd5b630443f54160e21b8252600482fd5b6321c4e35760e21b8252600482fd5b635c427cd960e01b8152600490fd5b3461042957806003193601126104295760015460405160109190911c6001600160a01b03168152602090f35b34610429578060031936011261042957602060ff601554166040519015158152f35b346104295780600319360112610429576020601954604051908152f35b3461042957806003193601126104295760155460ff8160081c16156107475760101c60ff16610ad957610801612b0c565b15610aca578061080f612c3d565b600654600354604051632703ee8560e01b81526001600160a01b039182166004820152929116602083602481845afa928315610a6e578493610a93575b50803b15610a8e5783809160046040518094819363bbbe386960e01b83525af1908115610a6e578491610a79575b50506015805462ff00001916620100001790556005546009546108ab9184916001600160a01b0390811691166134fd565b6006546003546009546040805163a31e8cb560e01b81526001600160a01b0393841660048201526024810187905260448101869052918316606483015290929091839160849183918991165af18015610a6e57610a43575b5060095460035460048054600554604051630d7b2c8f60e11b815230938101939093526001600160a01b039384166024840152908316604483015282166064820152608481019490945260a4840192909252602091839160c49183918791165af19081156109ff578291610a0e575b5060168190556009546001600160a01b031690813b15610a0a578291602483926040519485938492632cd56ef360e21b845260048401525af180156109ff576109ea575b506003546001600160a01b03167f97ee3b9e4cd3242f1a9e7324336e978ed8d916c597cd0f6a3c8c5b65b93cad9b8280a280f35b816109f4916129f3565b6104295780826109b6565b6040513d84823e3d90fd5b5050fd5b9150506020813d602011610a3b575b81610a2a602093836129f3565b810103126105e95781905183610972565b3d9150610a1d565b604090813d8311610a67575b610a5981836129f3565b81010312610a0a5784610903565b503d610a4f565b6040513d86823e3d90fd5b81610a83916129f3565b610a0a57828561087a565b505050fd5b935091506020833d602011610ac2575b81610ab0602093836129f3565b810103126105e957839251918561084c565b3d9150610aa3565b633a23d82560e01b8152600490fd5b633c5235bd60e21b8152600490fd5b3461042957602036600319011261042957600354600435906001600160a01b03163303610c2d57610b17612d13565b60155460ff8116610c1f5760ff8160101c16610c105760ff60175416610c015760081c60ff1615610747578015610bf257600554829190610b7b9082906001600160a01b0316610b6982303384612fdf565b6006546001600160a01b0316906134fd565b6006546003546001600160a01b0391821692911690823b15610a8e5760405163297576c360e21b81526001600160a01b03909216600483015260248201529082908290818381604481015b03925af180156109ff57610bdd575b506001905580f35b81610be7916129f3565b610429578082610bd5565b631f2a200560e01b8252600482fd5b630a9105a360e31b8352600483fd5b631163355960e21b8352600483fd5b62b5f6bf60e41b8352600483fd5b635c427cd960e01b8252600482fd5b3461042957610c6a610c56610c503661294f565b90612c7e565b6040519182916020835260208301906129c0565b0390f35b34610429576020366003190112610429576020610c8c600435612d72565b604051908152f35b346104295780600319360112610429576007546040516001600160a01b039091168152602090f35b34610429578060031936011261042957602060ff601754166040519015158152f35b3461042957602036600319011261042957602090600435815260128252604060018060a01b0391205416604051908152f35b346104295780600319360112610429576005546040516001600160a01b039091168152602090f35b3461042957604036600319011261042957610d516128c7565b6001600160a01b0316815260186020526040812080546024359290831015610429576020610d7f8484612991565b90549060031b1c604051908152f35b346104295760203660031901126104295760406020916004358152601183522054604051908152f35b3461042957806003193601126104295760015460101c6001600160a01b0316330361075657610de4612d13565b60155460ff8160101c1615610e9f57610dfb612b0c565b610e905762ff0000191660155560065481906001600160a01b0316803b15610e8d57818091600460405180948193639dba70f960e01b83525af180156109ff57610e78575b506003546001600160a01b03167f445e027cfd2db85d19806ef8d31d4bdf988e15bd98e40d254519916e9f3130798280a26001815580f35b81610e82916129f3565b610429578082610e40565b50fd5b633a23d82560e01b8252600482fd5b63bc6fe51960e01b8252600482fd5b34610429578060031936011261042957602060ff60155460101c166040519015158152f35b346104295760203660031901126104295760043590601354821015610429576020610d7f83612965565b3461042957602036600319011261042957610f166128c7565b60015460101c6001600160a01b03163303610c2d576001600160a01b038116908115610f915760178054610100600160a81b03198116600893841b610100600160a81b031617909155901c6001600160a01b03167f064d28d3d3071c5cbc271a261c10c2f0f0d9e319390397101aa0eb23c6bad9098380a380f35b63d92e233d60e01b8352600483fd5b346104295760203660031901126104295760ff60406020926004358152601084522054166040519015158152f35b3461042957806003193601126104295760175433600882901c6001600160a01b0316141580611009575b610c2d5760ff191660011760175580f35b506001543360109190911c6001600160a01b03161415610ff8565b34610429578060031936011261042957602060405160648152f35b346104295780600319360112610429576003546040516001600160a01b039091168152602090f35b346104295760203660031901126104295760406020916004358152600c83522054604051908152f35b3461042957602036600319011261042957600354600435906001600160a01b03163303610c2d576110bf612d13565b60155460ff8116610c1f5760ff8160101c16610c105760ff60175416610c015760081c60ff1615610747578015610bf2576006546003548392916001600160a01b03918216911661110e612c3d565b90803b1561115157604051633d3a066f60e01b81526001600160a01b03909316600484015260248301939093526044820152908290829081838160648101610bc6565b8480fd5b346104295780600319360112610429576020610c8c612bac565b346104295780600319360112610429576020611189612b0c565b6040519015158152f35b346104295780600319360112610429576002546040516001600160a01b039091168152602090f35b34610429576111c93661294f565b506009546001600160a01b03163303610c2d5760ff60155460101c1615610e9f5781906111f4612c3d565b808210611345575b5080611335575b600a546001600160a01b0316908115158061132a575b6112ae575b50506015805462ff0000191690555060065481906001600160a01b0316803b15610e8d57818091600460405180948193639dba70f960e01b83525af180156109ff57611299575b506003546001600160a01b03167f445e027cfd2db85d19806ef8d31d4bdf988e15bd98e40d254519916e9f3130798280a280f35b816112a3916129f3565b610429578082611265565b60018060a01b036003541690601b5492803b15611151576040516360afb7eb60e11b81526001600160a01b03939093166004840152602483019390935260448201529082908290606490829084905af180156109ff57611315575b50601b5580828061121e565b8161131f916129f3565b610429578082611309565b50601b541515611219565b61133e81613062565b5050611203565b8192509061135291612aff565b61135e81601954612a4e565b60195561136d81601a54612a4e565b601a5591611379612ab5565b9281905b845182108061151b575b1561144b576113968286612aa1565b5190818452600f60205260ff6040852054161561144057818452600e602052600160ff60408620541603611440576113cd82612d72565b80156114345781811061140e57906113e491612aff565b818452600b60205260408420558252600c6020524260408320556114088291613054565b9061137d565b61142061142f91611408949593612aff565b9361142a81612df5565b612ea4565b613054565b50916114089150613054565b916114089150613054565b8291505b8451821080611512575b15611506576114688286612aa1565b5190818452600f60205260ff604085205416156114fb57818452600e60205260ff6040852054166114fb5761149c82612d72565b80156114ef578181106114dd57906114b391612aff565b818452600b60205260408420558252600c6020524260408320556114d78291613054565b9061144f565b61142061142f916114d7949593612aff565b50916114d79150613054565b916114d79150613054565b505091508190836111fc565b50801515611459565b50801515611387565b346104295760203660031901126104295760ff60406020926004358152600e8452205416604051908152f35b3461042957806003193601126104295760175460405160089190911c6001600160a01b03168152602090f35b346104295780600319360112610429576004546040516001600160a01b039091168152602090f35b346104295760203660031901126104295760406020916004358152600d83522054604051908152f35b346104295780600319360112610429576009546040516001600160a01b039091168152602090f35b3461042957806003193601126104295760175433600882901c6001600160a01b031614158061162d575b610c2d5760ff191660175580f35b506001543360109190911c6001600160a01b0316141561161f565b346104295760203660031901126104295760ff60406020926004358152600f84522054166040519015158152f35b3461042957806003193601126104295760206040516113888152f35b34610429578060031936011261042957602060ff60155460081c166040519015158152f35b3461042957602036600319011261042957600354600435906001600160a01b03163303610c2d576116e6612d13565b60ff60155460081c16156107475780801561185857611703612c3d565b908115611849578110611841575b5060045460035461173291839130916001600160a01b039182169116612fdf565b61173b81613062565b91906013541561179e575b7f2fe77b1c99aca6b022b8efc6e3e8dd1b48b30748709339b65c50ef3263443e099161179460018060a01b036003541694604051938493846040919493926060820195825260208201520152565b0390a26001815580f35b600a5484906001600160a01b031680151580611836575b6117c1575b5050611746565b60018060a01b0360035416601b54823b15611832576040516310290c9160e31b81526001600160a01b0392909216600483015260248201529082908290604490829084905af180156109ff5761181d575b50601b5583856117ba565b81611827916129f3565b611832578385611812565b8380fd5b50601b5415156117b5565b905082611711565b631f2a200560e01b8452600484fd5b631f2a200560e01b8352600483fd5b346104295780600319360112610429576020601654604051908152f35b346104295760203660031901126104295760406020916004358152600b83522054604051908152f35b346104295780600319360112610429576003546001600160a01b03163303610756576118d7612d13565b60ff60155460081c1615611adb576118ed612c3d565b8015610bf25760045460035461191391839130916001600160a01b039182169116612fdf565b61191b612ab5565b82908390845b81518110156119ed576119348183612aa1565b5193848752600f60205260ff604088205416156119e257906119d96119cf600193878a52600b6020526119c98a6040812054928a8252600c6020528a6119c2604064496cebb8006119a561198b8388205442612aff565b858852600d6020526119a0848920548b613023565b613023565b04946119b18689612a4e565b938152601160205220918254612a4e565b9055612a4e565b96612a4e565b9561142a81612df5565b01929192611921565b9293506001906119d9565b5050600a549092919084906001600160a01b031680151580611ad0575b611a5f575b50507f2fe77b1c99aca6b022b8efc6e3e8dd1b48b30748709339b65c50ef3263443e099161179460018060a01b036003541694604051938493846040919493926060820195825260208201520152565b60018060a01b0360035416601b54823b15611832576040516310290c9160e31b81526001600160a01b0392909216600483015260248201529082908290604490829084905af180156109ff57611abb575b50601b558385611a0f565b81611ac5916129f3565b611832578385611ab0565b50601b541515611a0a565b6321c4e35760e21b8152600490fd5b3461042957806003193601126104295760155460ff8160081c161561074757611b11612b0c565b15610e905760101c60ff16610ad957610801612b0c565b346104295760203660031901126104295760406020916004358152601483522054604051908152f35b346104295780600319360112610429576008546040516001600160a01b039091168152602090f35b3461042957602036600319011261042957600435611b95612d13565b60ff60155460081c161561074757808252601160205260408220548015611de4576024602060018060a01b0360045416604051928380926370a0823160e01b82523060048301525afa908115610a6e578491611db2575b508111611da3578183526010602052604083205460ff1615611d6357818352601260205260408320546001600160a01b03168015611ce7575b336001600160a01b0390911603611cd8578183526011602052826040812055611c59813360018060a01b0360045416612d31565b8183526010602052604083205460ff1615611ca65760407f78dd5e343bcb666bca386d600c40d1412bff3eb1772d8be0f416118a4cd5a9bd918151908152846020820152a25b6001815580f35b906040519182527ff18ca9717b47ea7629d17b5d7b2ede46e864155725629e7d0347924c2f6d112d60203393a3611c9f565b635c427cd960e01b8352600483fd5b506008546040516351c062ad60e11b81526004810184905290602090829060249082906001600160a01b03165afa908115610a6e578491611d29575b50611c25565b90506020813d602011611d5b575b81611d44602093836129f3565b8101031261183257611d5590612a2d565b84611d23565b3d9150611d37565b6008546040516331a9108f60e11b81526004810184905290602090829060249082906001600160a01b03165afa908115610a6e578491611d295750611c25565b633a23d82560e01b8352600483fd5b90506020813d602011611ddc575b81611dcd602093836129f3565b810103126105e9575184611bec565b3d9150611dc0565b63a12a456360e01b8352600483fd5b346104295780600319360112610429576020601a54604051908152f35b346104295780600319360112610429576003546001600160a01b0316330361075657611e3a612d13565b60ff60155460081c1615611adb576103e8611e53612c3d565b1015611f7357611e61612ab5565b815b8151811015611ef85780611e7960019284612aa1565b51808552600f60205260ff60408620541680611ee3575b611e9c575b5001611e63565b611ea581612d72565b906103e88210611eb6575b50611e95565b611edc918187526011602052611ed160408820918254612a4e565b905561142a81612df5565b8480611eb0565b50808552600b60205260408520541515611e90565b82611f01612c3d565b611f6457601354611f5557600160ff19601554161760155560018060a01b03600354167f09a09c46728dfde8eed179c677c1238c3dde7f0d264ed782135a43b23222e2196020604051428152a26001815580f35b632b0e2f9160e21b8152600490fd5b630443f54160e21b8152600490fd5b60405162461bcd60e51b815260206004820152601c60248201527f4465627420746f6f206869676820746f20666f72636520636c6f7365000000006044820152606490fd5b3461042957611fc6366128dd565b60019491929394549260ff8460081c1615938480956121f8575b80156121e1575b156121855784600160ff19831617600155612173575b506001600160a01b038316158015612162575b8015612151575b8015612140575b801561212f575b612120576001805462010000600160b01b03198116601086901b62010000600160b01b0316908117909255600280546001600160a01b03199081166001600160a01b039a8b1617909155600380548216988a16989098179097556004805488169389169390931790925560058054909616929096169190911790935560178054610100600160a81b03191660089290921b610100600160a81b03169190911790556015805461ff0019166101001790556120dd578280f35b610100600160b01b0319161760019081556040519081527f7f26b83ff96e1f2b6a682f133852f6798a09c465da95921460cefb384740249890602090a181808280f35b63d92e233d60e01b8752600487fd5b506001600160a01b03821615612025565b506001600160a01b0381161561201e565b506001600160a01b03851615612017565b506001600160a01b03861615612010565b61ffff19166101011760015587611ffd565b60405162461bcd60e51b815260206004820152602e60248201527f496e697469616c697a61626c653a20636f6e747261637420697320616c72656160448201526d191e481a5b9a5d1a585b1a5e995960921b6064820152608490fd5b50303b158015611fe75750600160ff821614611fe7565b50600160ff821610611fe0565b346105e95760603660031901126105e9576004356024358015158091036105e9576003546001600160a01b0316330361285157612240612d13565b60155460ff81166128435760ff8160101c166128345760ff601754166128255760081c60ff161561281657811561280757612279612bac565b82116127f85760075460405163c2e43f1d60e01b81526004810184905260248101929092525f908290604490829084906001600160a01b03165af1928315612539575f915f946126bb575b5060443584116126ac5761138884116126ac5781511561269d5760646122ee601354845190612a4e565b1161268e576122ff83601b54612a4e565b601b5561230c8251612a6f565b935f5b835181101561254457839060208260a4815f60018060a01b036008541660ff60a061236689608061235d82606061235d828f8d90612353836001808e1b0393612aa1565b510151169c612aa1565b5101519b612aa1565b510151166040519889968795636b991c2d60e01b875260048701523060248701526044860152606485015260848401525af1918215612539575f92612506575b50816123b28289612aa1565b526001600160a01b0360206123c78388612aa1565b510151165f52601860205260405f208054600160401b8110156124f2576123f8816124109360018794018155612991565b90919082549060031b91821b915f19901b1916179055565b606061241c8287612aa1565b510151825f52600b60205260405f2055815f52600c6020524260405f205560806124468287612aa1565b510151825f52600d60205260405f205560ff60a06124648388612aa1565b51015116825f52600e60205260405f209060ff19825416179055815f52601060205260405f2060ff198154169055815f5260116020525f6040812055601354825f52601460205260405f205560135491600160401b8310156124f2576124d7816123f88560018097016013556013612991565b5f52600f60205260405f208260ff198254161790550161230f565b634e487b7160e01b5f52604160045260245ffd5b9091506020813d8211612531575b81612521602093836129f3565b810103126105e9575190876123a6565b3d9150612514565b6040513d5f823e3d90fd5b506004546003549294919350909161256a9183916001600160a01b039081169116612d31565b600a546001600160a01b031680612605575b506125fb7fd6183328d9c97aa1695793c0f5cdfd9117f27e0c9ac65205c4c0eb031cc47f3d939460018060a01b03600354167fe1979fe4c35e0cef342fef5668e2c8e7a7e9f5d5d1ca8fee0ac6c427fa4153af60408051868152876020820152a2604051938493845260208401526060604084015260608301906129c0565b0390a16001815580f35b6003546001600160a01b031690803b156105e9576040516323d3b7e160e01b81526001600160a01b03929092166004830152602482018390525f908290604490829084905af18015612539571561257c577fd6183328d9c97aa1695793c0f5cdfd9117f27e0c9ac65205c4c0eb031cc47f3d93505f612683916129f3565b6125fb5f935061257c565b632b0e2f9160e21b5f5260045ffd5b63192bf2cb60e01b5f5260045ffd5b630297c41560e01b5f5260045ffd5b915092503d805f833e6126ce81836129f3565b8101906040818303126105e957805167ffffffffffffffff81116105e957810182601f820112156105e95780519061270582612a15565b9361271360405195866129f3565b82855260206101208187019402830101918183116105e957602001925b82841061274657505050506020015192846122c4565b610120848303126105e95760405190610120820182811067ffffffffffffffff8211176124f2576040528451825261278060208601612a2d565b602083015260408501516040830152606085015160608301526080850151608083015260a08501519060ff821682036105e9578260209260a061012095015260c087015160c08201526127d560e08801612a41565b60e08201526127e76101008801612a41565b610100820152815201930192612730565b63119fe6e360e01b5f5260045ffd5b631f2a200560e01b5f5260045ffd5b6321c4e35760e21b5f5260045ffd5b630a9105a360e31b5f5260045ffd5b631163355960e21b5f5260045ffd5b62b5f6bf60e41b5f5260045ffd5b635c427cd960e01b5f5260045ffd5b346105e9575f3660031901126105e9576020601b54604051908152f35b346105e9575f3660031901126105e95760208160248160018060a01b03600454166370a0823160e01b82523060048301525afa8015612539575f906105be57602090604051908152f35b600435906001600160a01b03821682036105e957565b60a09060031901126105e9576004356001600160a01b03811681036105e957906024356001600160a01b03811681036105e957906044356001600160a01b03811681036105e957906064356001600160a01b03811681036105e957906084356001600160a01b03811681036105e95790565b60409060031901126105e9576004359060243590565b60135481101561297d5760135f5260205f2001905f90565b634e487b7160e01b5f52603260045260245ffd5b805482101561297d575f5260205f2001905f90565b346105e9575f3660031901126105e9576020610c8c612c3d565b90602080835192838152019201905f5b8181106129dd5750505090565b82518452602093840193909201916001016129d0565b90601f8019910116810190811067ffffffffffffffff8211176124f257604052565b67ffffffffffffffff81116124f25760051b60200190565b51906001600160a01b03821682036105e957565b519081151582036105e957565b91908201809211612a5b57565b634e487b7160e01b5f52601160045260245ffd5b90612a7982612a15565b612a8660405191826129f3565b8281528092612a97601f1991612a15565b0190602036910137565b805182101561297d5760209160051b010190565b60405190601354808352826020810160135f5260205f20925f5b818110612ae6575050612ae4925003836129f3565b565b8454835260019485019487945060209093019201612acf565b91908203918211612a5b57565b600654600354612b60916020916001600160a01b039081169116612b2e612c3d565b604051631fefd95560e11b81526001600160a01b03909316600484015260248301529092839190829081906044820190565b03915afa908115612539575f91612b75575090565b90506020813d602011612ba4575b81612b90602093836129f3565b810103126105e957612ba190612a41565b90565b3d9150612b83565b600654600354604051634af6164560e11b81526001600160a01b0391821660048201529160209183916024918391165afa908115612539575f91612c0b575b50612bf4612c3d565b80821115612c0557612ba191612aff565b50505f90565b90506020813d602011612c35575b81612c26602093836129f3565b810103126105e957515f612beb565b3d9150612c19565b5f6013545f905b808210612c5057505090565b9091612c76600191612c70612c6486612965565b90549060031b1c612d72565b90612a4e565b920190612c44565b91906013549081841015612cf75783612cb292612c9e612cad9383612a4e565b90808211612cef575b50612aff565b612a6f565b915f5b8351811015612ceb5780612cd3612cce60019385612a4e565b612965565b90549060031b1c612ce48287612aa1565b5201612cb5565b5050565b90505f612ca7565b50509050604051612d096020826129f3565b5f81525f36813790565b60025f5414612d225760025f55565b633ee5aeb560e01b5f5260045ffd5b60405163a9059cbb60e01b60208201526001600160a01b03929092166024830152604480830193909352918152612ae491612d6d6064836129f3565b6135f7565b805f52600f60205260ff60405f205416158015612de1575b612ddc5780612ba1915f52600b60205264496cebb800612dd560405f205492805f52600c602052612dbf60405f205442612aff565b905f52600d6020526119a060405f205485613023565b0490612a4e565b505f90565b50805f52600b60205260405f205415612d8a565b805f52600b6020525f6040812055805f52601460205260405f20546013545f198101908111612a5b57612e2790612965565b90549060031b1c612e3b816123f884612965565b5f52601460205260405f20556013548015612e90575f1901612e5c81612965565b8154905f199060031b1b19169055601355805f5260146020525f60408120555f52600f60205260405f2060ff198154169055565b634e487b7160e01b5f52603160045260245ffd5b805f52601060205260ff60405f205416612fdc575f818152601260205260409020546001600160a01b031615612f37575b5f818152601060205260409020805460ff191660011790556008546001600160a01b031690813b156105e9575f91602483926040519485938492632fefd77f60e01b845260048401525af1801561253957612f2d5750565b5f612ae4916129f3565b6008546040516331a9108f60e11b81526004810183905290602090829060249082906001600160a01b03165afa908115612539575f91612fa2575b505f82815260126020526040902080546001600160a01b0319166001600160a01b03909216919091179055612ed5565b90506020813d602011612fd4575b81612fbd602093836129f3565b810103126105e957612fce90612a2d565b5f612f72565b3d9150612fb0565b50565b6040516323b872dd60e01b60208201526001600160a01b039283166024820152929091166044830152606480830193909352918152612ae491612d6d6084836129f3565b81810292918115918404141715612a5b57565b8115613040570490565b634e487b7160e01b5f52601260045260245ffd5b5f198114612a5b5760010190565b5f905f9261306e612ab5565b9182519361307b85612a6f565b9561308586612a6f565b945f905f5b88811061343257508115613423575f9592938593905b8988108061341a575b15613288576130b88884612aa1565b51906130c4898d612aa1565b51958615613279576130df866130da898c613023565b613036565b91818311613270575b8b831561325f576131296131489261312386938f8d808710155f14613242575061311191612aa1565b515b61311d8186612aff565b92612a4e565b9b612a4e565b98855f52601160205260405f20613141838254612a4e565b9055612aff565b835f52600b60205260405f2055825f52600c6020524260405f20556024602060018060a01b0360085416604051928380926331a9108f60e11b82528860048301525afa908115612539575f916131fc575b5090836131ee93926131f4955f52600b6020527ff6fc540193542dc4bbf6bcf9707f55489c017b3094d765abf460a52a5780ebf26040805f205492815193845286602085015260018060a01b031692a3612aff565b97613054565b9693946130a0565b929190506020833d821161323a575b81613218602093836129f3565b810103126105e9576131f4936132306131ee94612a2d565b9192935093613199565b3d915061320b565b906132536130da9161325a94612aa1565b5187613023565b613113565b509796509890506131f49150613054565b915080916130e8565b98909695506131f49150613054565b99509650935050509391505f5b8281106132a157505050565b6132ab8183612aa1565b5190815f52600f60205260ff60405f20541615613411576132cb82612d72565b91805f52600b60205260405f2054151580613405575b156133d5575f818152601260205260409020546001600160a01b031615613327575b80600193613321925f526011602052611ed160405f20918254612a4e565b01613295565b6008546040516331a9108f60e11b81526004810183905290602090829060249082906001600160a01b03165afa908115612539575f91613392575b505f82815260126020526040902080546001600160a01b0319166001600160a01b03909216919091179055613303565b9190506020823d82116133cd575b816133ad602093836129f3565b810103126105e9576001936133c461332193612a2d565b91925093613362565b3d91506133a0565b60019250805f52600b60205260405f2054156133f2575b50613321565b8061142a6133ff92612df5565b5f6133ec565b50620f424083106132e1565b60019150613321565b508415156130a9565b5050505050925050505f905f90565b9161343d8383612aa1565b51805f52600f60205260ff60405f2054161580156134e9575b6134df57600191816134d7925f52600b6020528c6134ba876134b464496cebb8006134ac60405f205496805f52600c60205261349660405f205442612aff565b905f52600d6020526119a060405f205489613023565b048095612a4e565b92612aa1565b526134c5868c612aa1565b526134d0858d612aa1565b5190612a4e565b925b0161308a565b50916001906134d9565b50805f52600b60205260405f205415613456565b60405163095ea7b360e01b602082019081526001600160a01b038416602483015260448083019590955293815291926135376064846129f3565b82516001600160a01b038316915f91829182855af19061355561366a565b826135bd575b50816135b2575b501561356d57505050565b60405163095ea7b360e01b60208201526001600160a01b0390931660248401525f6044808501919091528352612ae492612d6d906135ac6064826129f3565b826135f7565b90503b15155f613562565b805191925081159182156135d5575b5050905f61355b565b81925090602091810103126105e95760206135f09101612a41565b5f806135cc565b5f8061361f9260018060a01b03169360208151910182865af161361861366a565b90836136a9565b8051908115159182613647575b50506136355750565b635274afe760e01b5f5260045260245ffd5b81925090602091810103126105e95760206136629101612a41565b155f8061362c565b3d156136a4573d9067ffffffffffffffff82116124f25760405191613699601f8201601f1916602001846129f3565b82523d5f602084013e565b606090565b906136cd57508051156136be57805190602001fd5b630a12f52160e11b5f5260045ffd5b815115806136fe575b6136de575090565b639996b31560e01b5f9081526001600160a01b0391909116600452602490fd5b50803b156136d656fea264697066735822122053a862b8d0d985c7ee5550c21f80ef762e19cfed6feaf4f844ed15cd21695c8564736f6c63430008210033","linkReferences":{}},"methodIdentifiers":{"BASIS_POINTS()":"e1f1c4a7","MAX_ACTIVE_POSITIONS()":"7e8ea3c9","MAX_APR_BPS()":"3945c080","activePositionIds(uint256)":"8bb41708","activePositionIndex(uint256)":"253f7a33","archController()":"54635570","badDebt()":"bbcac557","borrow(uint256,bool,uint256)":"138173e8","borrowAsset()":"446456e5","borrower()":"7df1f1b9","claimFunds(uint256)":"1b55e338","closeMarket()":"c511ed5e","collateralAsset()":"aabaecd6","collateralEscrow()":"e8e17bc8","currentCycleBorrowedAmount()":"062334d1","depositCollateral(uint256)":"bad4a01f","endLiquidation()":"9dba70f9","factory()":"c45a0155","forceCloseMarket()":"1727b331","getActivePositionsCount()":"c5e6f13f","getActivePositionsPaginated(uint256,uint256)":"ba588179","getCollateralRatio()":"cd377c53","getCurrentPrincipal()":"c86c69cc","getMaxBorrowable()":"6040a98d","getPositionClaimable(uint256)":"a7173f68","getPositionValue(uint256)":"b86a0aaa","getTotalOwed()":"95c8cbc9","guardian()":"452a9320","initialize(address,address,address,address,address)":"1459457a","isClosed()":"c2b6b58c","isHealthy()":"e4020804","isInitialized()":"392e53cd","isLiquidatable()":"578c65e4","isLiquidating()":"97f58e91","isPaused()":"b187bd26","lenderPositions(address,uint256)":"a93d789f","liquidate()":"28a07025","liquidationAuctionId()":"31c95044","liquidator()":"4046ebae","offerBook()":"b49d05c9","pause()":"8456cb59","positionActive(uint256)":"3aa03451","positionApr(uint256)":"41211618","positionClaimableAmount(uint256)":"2be6cc8b","positionLastAccrualTime(uint256)":"7c0eec71","positionNFT()":"23228ecb","positionPrincipal(uint256)":"2df2c031","positionSeniority(uint256)":"47ad7788","positionSettled(uint256)":"862235cb","repay(uint256)":"371fd8e6","repayFull()":"29d93d67","reputationRegistry()":"c8db44e3","setContracts(address,address,address,address,address)":"f63bf8bd","setGuardian(address)":"8a0dac4a","settleLiquidation(uint256,uint256)":"52f2d4e0","settledPositionOwner(uint256)":"ac591b8d","startLiquidation()":"bbbe3869","totalAssets()":"01e1d114","totalDebt()":"fc7b9c18","totalRealizedLoss()":"17bc803a","unpause()":"3f4ba83a","withdrawCollateral(uint256)":"6112fe2e"},"id":54}