{"abi":[{"type":"constructor","inputs":[],"stateMutability":"nonpayable"},{"type":"function","name":"BASIS_POINTS","inputs":[],"outputs":[{"name":"","type":"uint256","internalType":"uint256"}],"stateMutability":"view"},{"type":"function","name":"MAX_ACTIVE_POSITIONS","inputs":[],"outputs":[{"name":"","type":"uint256","internalType":"uint256"}],"stateMutability":"view"},{"type":"function","name":"MAX_APR_BPS","inputs":[],"outputs":[{"name":"","type":"uint256","internalType":"uint256"}],"stateMutability":"view"},{"type":"function","name":"activePositionIds","inputs":[{"name":"","type":"uint256","internalType":"uint256"}],"outputs":[{"name":"","type":"uint256","internalType":"uint256"}],"stateMutability":"view"},{"type":"function","name":"activePositionIndex","inputs":[{"name":"","type":"uint256","internalType":"uint256"}],"outputs":[{"name":"","type":"uint256","internalType":"uint256"}],"stateMutability":"view"},{"type":"function","name":"archController","inputs":[],"outputs":[{"name":"","type":"address","internalType":"address"}],"stateMutability":"view"},{"type":"function","name":"badDebt","inputs":[],"outputs":[{"name":"","type":"uint256","internalType":"uint256"}],"stateMutability":"view"},{"type":"function","name":"borrow","inputs":[{"name":"amount","type":"uint256","internalType":"uint256"},{"name":"useSeniorOnly","type":"bool","internalType":"bool"},{"name":"maxApr","type":"uint256","internalType":"uint256"}],"outputs":[],"stateMutability":"nonpayable"},{"type":"function","name":"borrowAsset","inputs":[],"outputs":[{"name":"","type":"address","internalType":"address"}],"stateMutability":"view"},{"type":"function","name":"borrowIndex","inputs":[],"outputs":[{"name":"","type":"uint256","internalType":"uint256"}],"stateMutability":"view"},{"type":"function","name":"borrower","inputs":[],"outputs":[{"name":"","type":"address","internalType":"address"}],"stateMutability":"view"},{"type":"function","name":"cancelOffer","inputs":[{"name":"offerId","type":"uint256","internalType":"uint256"}],"outputs":[],"stateMutability":"nonpayable"},{"type":"function","name":"claimFunds","inputs":[{"name":"positionId","type":"uint256","internalType":"uint256"}],"outputs":[],"stateMutability":"nonpayable"},{"type":"function","name":"closeMarket","inputs":[],"outputs":[],"stateMutability":"nonpayable"},{"type":"function","name":"collateralAsset","inputs":[],"outputs":[{"name":"","type":"address","internalType":"address"}],"stateMutability":"view"},{"type":"function","name":"collateralEscrow","inputs":[],"outputs":[{"name":"","type":"address","internalType":"contract IRevvFiCollateralEscrow"}],"stateMutability":"view"},{"type":"function","name":"currentCycleBorrowedAmount","inputs":[],"outputs":[{"name":"","type":"uint256","internalType":"uint256"}],"stateMutability":"view"},{"type":"function","name":"depositCollateral","inputs":[{"name":"amount","type":"uint256","internalType":"uint256"}],"outputs":[],"stateMutability":"nonpayable"},{"type":"function","name":"endLiquidation","inputs":[],"outputs":[],"stateMutability":"nonpayable"},{"type":"function","name":"factory","inputs":[],"outputs":[{"name":"","type":"address","internalType":"address"}],"stateMutability":"view"},{"type":"function","name":"forceCloseMarket","inputs":[],"outputs":[],"stateMutability":"nonpayable"},{"type":"function","name":"getActivePositionsCount","inputs":[],"outputs":[{"name":"","type":"uint256","internalType":"uint256"}],"stateMutability":"view"},{"type":"function","name":"getActivePositionsPaginated","inputs":[{"name":"start","type":"uint256","internalType":"uint256"},{"name":"limit","type":"uint256","internalType":"uint256"}],"outputs":[{"name":"result","type":"uint256[]","internalType":"uint256[]"}],"stateMutability":"view"},{"type":"function","name":"getCollateralRatio","inputs":[],"outputs":[{"name":"","type":"uint256","internalType":"uint256"}],"stateMutability":"view"},{"type":"function","name":"getCurrentDebtIndex","inputs":[],"outputs":[{"name":"","type":"uint256","internalType":"uint256"}],"stateMutability":"view"},{"type":"function","name":"getCurrentPrincipal","inputs":[],"outputs":[{"name":"","type":"uint256","internalType":"uint256"}],"stateMutability":"view"},{"type":"function","name":"getMaxBorrowable","inputs":[],"outputs":[{"name":"","type":"uint256","internalType":"uint256"}],"stateMutability":"view"},{"type":"function","name":"getPositionClaimable","inputs":[{"name":"positionId","type":"uint256","internalType":"uint256"}],"outputs":[{"name":"","type":"uint256","internalType":"uint256"}],"stateMutability":"view"},{"type":"function","name":"getPositionValue","inputs":[{"name":"positionId","type":"uint256","internalType":"uint256"}],"outputs":[{"name":"","type":"uint256","internalType":"uint256"}],"stateMutability":"view"},{"type":"function","name":"getTotalOwed","inputs":[],"outputs":[{"name":"","type":"uint256","internalType":"uint256"}],"stateMutability":"view"},{"type":"function","name":"guardian","inputs":[],"outputs":[{"name":"","type":"address","internalType":"address"}],"stateMutability":"view"},{"type":"function","name":"initialize","inputs":[{"name":"_factory","type":"address","internalType":"address"},{"name":"_archController","type":"address","internalType":"address"},{"name":"_borrower","type":"address","internalType":"address"},{"name":"_borrowAsset","type":"address","internalType":"address"},{"name":"_collateralAsset","type":"address","internalType":"address"}],"outputs":[],"stateMutability":"nonpayable"},{"type":"function","name":"isClosed","inputs":[],"outputs":[{"name":"","type":"bool","internalType":"bool"}],"stateMutability":"view"},{"type":"function","name":"isHealthy","inputs":[],"outputs":[{"name":"","type":"bool","internalType":"bool"}],"stateMutability":"view"},{"type":"function","name":"isInitialized","inputs":[],"outputs":[{"name":"","type":"bool","internalType":"bool"}],"stateMutability":"view"},{"type":"function","name":"isLiquidatable","inputs":[],"outputs":[{"name":"","type":"bool","internalType":"bool"}],"stateMutability":"view"},{"type":"function","name":"isLiquidating","inputs":[],"outputs":[{"name":"","type":"bool","internalType":"bool"}],"stateMutability":"view"},{"type":"function","name":"isPaused","inputs":[],"outputs":[{"name":"","type":"bool","internalType":"bool"}],"stateMutability":"view"},{"type":"function","name":"lastInterestAccrualTime","inputs":[],"outputs":[{"name":"","type":"uint256","internalType":"uint256"}],"stateMutability":"view"},{"type":"function","name":"lenderPositions","inputs":[{"name":"","type":"address","internalType":"address"},{"name":"","type":"uint256","internalType":"uint256"}],"outputs":[{"name":"","type":"uint256","internalType":"uint256"}],"stateMutability":"view"},{"type":"function","name":"liquidate","inputs":[],"outputs":[],"stateMutability":"nonpayable"},{"type":"function","name":"liquidationAuctionId","inputs":[],"outputs":[{"name":"","type":"uint256","internalType":"uint256"}],"stateMutability":"view"},{"type":"function","name":"liquidator","inputs":[],"outputs":[{"name":"","type":"address","internalType":"contract IRevvFiLiquidator"}],"stateMutability":"view"},{"type":"function","name":"offerBook","inputs":[],"outputs":[{"name":"","type":"address","internalType":"contract IRevvFiOfferBook"}],"stateMutability":"view"},{"type":"function","name":"pause","inputs":[],"outputs":[],"stateMutability":"nonpayable"},{"type":"function","name":"positionActive","inputs":[{"name":"","type":"uint256","internalType":"uint256"}],"outputs":[{"name":"","type":"bool","internalType":"bool"}],"stateMutability":"view"},{"type":"function","name":"positionApr","inputs":[{"name":"","type":"uint256","internalType":"uint256"}],"outputs":[{"name":"","type":"uint256","internalType":"uint256"}],"stateMutability":"view"},{"type":"function","name":"positionClaimableAmount","inputs":[{"name":"","type":"uint256","internalType":"uint256"}],"outputs":[{"name":"","type":"uint256","internalType":"uint256"}],"stateMutability":"view"},{"type":"function","name":"positionNFT","inputs":[],"outputs":[{"name":"","type":"address","internalType":"contract IRevvFiPositionNFT"}],"stateMutability":"view"},{"type":"function","name":"positionScaledPrincipal","inputs":[{"name":"","type":"uint256","internalType":"uint256"}],"outputs":[{"name":"","type":"uint256","internalType":"uint256"}],"stateMutability":"view"},{"type":"function","name":"positionSeniority","inputs":[{"name":"","type":"uint256","internalType":"uint256"}],"outputs":[{"name":"","type":"uint8","internalType":"uint8"}],"stateMutability":"view"},{"type":"function","name":"positionSettled","inputs":[{"name":"","type":"uint256","internalType":"uint256"}],"outputs":[{"name":"","type":"bool","internalType":"bool"}],"stateMutability":"view"},{"type":"function","name":"repay","inputs":[{"name":"amount","type":"uint256","internalType":"uint256"}],"outputs":[],"stateMutability":"nonpayable"},{"type":"function","name":"repayFull","inputs":[],"outputs":[],"stateMutability":"nonpayable"},{"type":"function","name":"reputationRegistry","inputs":[],"outputs":[{"name":"","type":"address","internalType":"contract IReputationRegistry"}],"stateMutability":"view"},{"type":"function","name":"setContracts","inputs":[{"name":"_collateralEscrow","type":"address","internalType":"address"},{"name":"_offerBook","type":"address","internalType":"address"},{"name":"_positionNFT","type":"address","internalType":"address"},{"name":"_liquidator","type":"address","internalType":"address"},{"name":"_reputationRegistry","type":"address","internalType":"address"}],"outputs":[],"stateMutability":"nonpayable"},{"type":"function","name":"setGuardian","inputs":[{"name":"newGuardian","type":"address","internalType":"address"}],"outputs":[],"stateMutability":"nonpayable"},{"type":"function","name":"settleLiquidation","inputs":[{"name":"debtRepaid","type":"uint256","internalType":"uint256"},{"name":"lossAmount","type":"uint256","internalType":"uint256"}],"outputs":[],"stateMutability":"nonpayable"},{"type":"function","name":"settledPositionOwner","inputs":[{"name":"","type":"uint256","internalType":"uint256"}],"outputs":[{"name":"","type":"address","internalType":"address"}],"stateMutability":"view"},{"type":"function","name":"startLiquidation","inputs":[],"outputs":[],"stateMutability":"nonpayable"},{"type":"function","name":"submitOffer","inputs":[{"name":"amount","type":"uint256","internalType":"uint256"},{"name":"apr","type":"uint256","internalType":"uint256"},{"name":"seniority","type":"uint8","internalType":"uint8"},{"name":"duration","type":"uint256","internalType":"uint256"}],"outputs":[],"stateMutability":"nonpayable"},{"type":"function","name":"totalAssets","inputs":[],"outputs":[{"name":"","type":"uint256","internalType":"uint256"}],"stateMutability":"view"},{"type":"function","name":"totalDebt","inputs":[],"outputs":[{"name":"","type":"uint256","internalType":"uint256"}],"stateMutability":"view"},{"type":"function","name":"totalRealizedLoss","inputs":[],"outputs":[{"name":"","type":"uint256","internalType":"uint256"}],"stateMutability":"view"},{"type":"function","name":"totalScaledPrincipal","inputs":[],"outputs":[{"name":"","type":"uint256","internalType":"uint256"}],"stateMutability":"view"},{"type":"function","name":"unpause","inputs":[],"outputs":[],"stateMutability":"nonpayable"},{"type":"function","name":"weightedAprNumeratorScaled","inputs":[],"outputs":[{"name":"","type":"uint256","internalType":"uint256"}],"stateMutability":"view"},{"type":"function","name":"weightedAverageAPR","inputs":[],"outputs":[{"name":"","type":"uint256","internalType":"uint256"}],"stateMutability":"view"},{"type":"function","name":"withdrawCollateral","inputs":[{"name":"amount","type":"uint256","internalType":"uint256"}],"outputs":[],"stateMutability":"nonpayable"},{"type":"event","name":"Borrow","inputs":[{"name":"borrower","type":"address","indexed":true,"internalType":"address"},{"name":"amount","type":"uint256","indexed":false,"internalType":"uint256"},{"name":"weightedApr","type":"uint256","indexed":false,"internalType":"uint256"}],"anonymous":false},{"type":"event","name":"ContractsSet","inputs":[],"anonymous":false},{"type":"event","name":"DrawdownExecuted","inputs":[{"name":"totalAmount","type":"uint256","indexed":false,"internalType":"uint256"},{"name":"weightedApr","type":"uint256","indexed":false,"internalType":"uint256"},{"name":"positionIds","type":"uint256[]","indexed":false,"internalType":"uint256[]"}],"anonymous":false},{"type":"event","name":"GuardianUpdated","inputs":[{"name":"oldGuardian","type":"address","indexed":true,"internalType":"address"},{"name":"newGuardian","type":"address","indexed":true,"internalType":"address"}],"anonymous":false},{"type":"event","name":"Initialized","inputs":[{"name":"version","type":"uint8","indexed":false,"internalType":"uint8"}],"anonymous":false},{"type":"event","name":"InterestAccrued","inputs":[{"name":"borrower","type":"address","indexed":true,"internalType":"address"},{"name":"interestAmount","type":"uint256","indexed":false,"internalType":"uint256"}],"anonymous":false},{"type":"event","name":"LiquidationEndedMarket","inputs":[{"name":"borrower","type":"address","indexed":true,"internalType":"address"}],"anonymous":false},{"type":"event","name":"LiquidationStartedMarket","inputs":[{"name":"borrower","type":"address","indexed":true,"internalType":"address"}],"anonymous":false},{"type":"event","name":"MarketClosedEvent","inputs":[{"name":"borrower","type":"address","indexed":true,"internalType":"address"},{"name":"timestamp","type":"uint256","indexed":false,"internalType":"uint256"}],"anonymous":false},{"type":"event","name":"PositionSettled","inputs":[{"name":"positionId","type":"uint256","indexed":true,"internalType":"uint256"},{"name":"principalAmount","type":"uint256","indexed":false,"internalType":"uint256"},{"name":"interestAmount","type":"uint256","indexed":false,"internalType":"uint256"}],"anonymous":false},{"type":"event","name":"Repay","inputs":[{"name":"borrower","type":"address","indexed":true,"internalType":"address"},{"name":"amount","type":"uint256","indexed":false,"internalType":"uint256"},{"name":"interestPortion","type":"uint256","indexed":false,"internalType":"uint256"},{"name":"principalPortion","type":"uint256","indexed":false,"internalType":"uint256"}],"anonymous":false},{"type":"error","name":"AlreadyLiquidating","inputs":[]},{"type":"error","name":"BorrowAmountTooHigh","inputs":[]},{"type":"error","name":"InsufficientCollateral","inputs":[]},{"type":"error","name":"InsufficientRepayment","inputs":[]},{"type":"error","name":"LiquidationInProgress","inputs":[]},{"type":"error","name":"MarketClosed","inputs":[]},{"type":"error","name":"MarketPaused","inputs":[]},{"type":"error","name":"MaxAprExceeded","inputs":[]},{"type":"error","name":"NoOffersAvailable","inputs":[]},{"type":"error","name":"NoPrincipalToClaim","inputs":[]},{"type":"error","name":"NotInitialized","inputs":[]},{"type":"error","name":"NotLiquidatingMarket","inputs":[]},{"type":"error","name":"ReentrancyGuardReentrantCall","inputs":[]},{"type":"error","name":"SafeERC20FailedOperation","inputs":[{"name":"token","type":"address","internalType":"address"}]},{"type":"error","name":"TooManyActivePositions","inputs":[]},{"type":"error","name":"UnauthorizedCaller","inputs":[]},{"type":"error","name":"ZeroAddress","inputs":[]},{"type":"error","name":"ZeroAmount","inputs":[]}],"bytecode":{"object":"0x6080806040523460df5760017f9b779b17422d0df92223018b32b4d1fa46e071723d6817e2486d003becc55f00555f549060ff8260081c16608d575060ff808216036054575b604051613bd990816100e48239f35b60ff90811916175f557f7f26b83ff96e1f2b6a682f133852f6798a09c465da95921460cefb3847402498602060405160ff8152a15f6045565b62461bcd60e51b815260206004820152602760248201527f496e697469616c697a61626c653a20636f6e747261637420697320696e697469604482015266616c697a696e6760c81b6064820152608490fd5b5f80fdfe6080806040526004361015610012575f80fd5b5f905f3560e01c90816301e1d11414612cf957508063062334d114612cdc5780630c0a390114612cbf578063138173e8146125c85780631459457a1461236f5780631727b331146121a057806317bc803a146121825780631b55e33814611f3f57806323228ecb14611f16578063253f7a3314611eec57806328a0702514611ead57806329d93d6714611ca35780632be6cc8b14610f1957806331c9504414611c85578063371fd8e614611abf578063392e53cd14611a995780633945c08014611a7c5780633aa0345114611a4d5780633f4ba83a146119fa5780634046ebae146119d157806341211618146119a7578063446456e51461197e578063452a93201461195157806347ad7788146119245780634e234fb71461190657806352f2d4e014611477578063546355701461144e578063578c65e4146114295780636040a98d1461140e5780636112fe2e1461133357806370f5230514611220578063728e9e12146112025780637df1f1b9146111d95780637e8ea3c9146111bd5780638456cb5914611167578063862235cb146111385780638a0dac4a146110955780638bb417081461106a57806395c8cbc91461033557806397f58e91146110445780639dba70f914610f43578063a7173f6814610f19578063a93d789f14610ec2578063aa5af0fd14610e25578063aabaecd614610e99578063ac591b8d14610e66578063b187bd2614610e43578063b48efcfe14610e25578063b49d05c914610dfc578063b86a0aaa14610dd5578063ba58817914610da2578063bad4a01f14610c3f578063bbbe386914610917578063bbcac557146108f9578063c1030f42146108cf578063c2b6b58c146108ac578063c45a015514610881578063c511ed5e146107af578063c5e6f13f14610791578063c86c69cc1461075d578063c8db44e314610734578063cd377c531461066e578063e1f1c4a714610651578063e40208041461056e578063e8e17bc814610545578063ef706adf14610496578063f63bf8bd1461033a578063fc7b9c18146103355763fec5e4c614610315575f80fd5b346103325780600319360112610332576020600b54604051908152f35b80fd5b612e27565b50346103325761034936612d5e565b855490949193919060101c6001600160a01b03163303610487576001600160a01b031680158015610476575b8015610465575b8015610454575b8015610443575b610434576001600160601b0360a01b600554161760055560018060a01b03166001600160601b0360a01b600654161760065560018060a01b03166001600160601b0360a01b600754161760075560018060a01b03166001600160601b0360a01b600854161760085560018060a01b03166001600160601b0360a01b60095416176009557feaedf84a54115aef3214ad296d4e9d465ef83830625852a51d892bb830100c408180a180f35b63d92e233d60e01b8652600486fd5b506001600160a01b0385161561038a565b506001600160a01b03841615610383565b506001600160a01b0383161561037c565b506001600160a01b03821615610375565b635c427cd960e01b8652600486fd5b5034610332576020366003190112610332576104b06131e9565b60ff60185460081c16156105365760065481906001600160a01b0316803b156105335781809160246040518094819363ef706adf60e01b835260043560048401525af1801561052857610513575b5060015f516020613b845f395f51905f525580f35b8161051d91612e80565b61033257805f6104fe565b6040513d84823e3d90fd5b50fd5b6321c4e35760e21b8152600490fd5b50346103325780600319360112610332576005546040516001600160a01b039091168152602090f35b50346103325780600319360112610332576005546002546105e992916020916001600160a01b039081169116670de0b6b3a76400006105b66105ae61362e565b600a54612f3d565b6040516353ebb89960e01b81526001600160a01b0390941660048501520460248301529093849190829081906044820190565b03915afa908115610645578091610608575b6020826040519015158152f35b90506020823d60201161063d575b8161062360209383612e80565b810103126103325750610637602091612edd565b5f6105fb565b3d9150610616565b604051903d90823e3d90fd5b503461033257806003193601126103325760206040516127108152f35b50346103325780600319360112610332576005546002546106e192916020916001600160a01b039081169116670de0b6b3a76400006106ae6105ae61362e565b6040516305861f3360e21b81526001600160a01b0390941660048501520460248301529093849190829081906044820190565b03915afa90811561064557906106fd575b602090604051908152f35b506020813d60201161072c575b8161071760209383612e80565b8101031261072857602090516106f2565b5f80fd5b3d915061070a565b50346103325780600319360112610332576009546040516001600160a01b039091168152602090f35b50346103325780600319360112610332576020670de0b6b3a7640000610788600a54600c5490612f3d565b04604051908152f35b50346103325780600319360112610332576020601654604051908152f35b50346103325780600319360112610332576002546001600160a01b03163303610872576107da6131e9565b60ff60185460081c1615610536576107f0613221565b600a546108635760165461085457600160ff19601854161760185560018060a01b03600254167f09a09c46728dfde8eed179c677c1238c3dde7f0d264ed782135a43b23222e2196020604051428152a260015f516020613b845f395f51905f525580f35b632b0e2f9160e21b8152600490fd5b630443f54160e21b8152600490fd5b635c427cd960e01b8152600490fd5b50346103325780600319360112610332575460405160109190911c6001600160a01b03168152602090f35b5034610332578060031936011261033257602060ff601854166040519015158152f35b50346103325760203660031901126103325760406020916004358152600f83522054604051908152f35b50346103325780600319360112610332576020601c54604051908152f35b503461033257806003193601126103325760ff60185460081c16156105365761093e613221565b60ff60185460101c16610c3057610953612fc5565b15610c215780670de0b6b3a764000061096d6105ae61362e565b600554600254604051632703ee8560e01b81526001600160a01b039182166004820152939092049116602083602481845afa928315610bc5578493610bea575b50803b15610be55783809160046040518094819363bbbe386960e01b83525af1908115610bc5578491610bd0575b50506018805462ff0000191662010000179055600454600854610a0c9184916001600160a01b0390811691166139fc565b6005546002546008546040805163a31e8cb560e01b81526001600160a01b0393841660048201526024810187905260448101869052918316606483015290929091839160849183918991165af18015610bc557610b9a575b5060085460025460035460048054604051630d7b2c8f60e11b815230928101929092526001600160a01b03938416602483015291831660448201529082166064820152608481019490945260a4840192909252602091839160c49183918791165af1908115610528578291610b65575b5060198190556008546001600160a01b031690813b15610b61578291602483926040519485938492632cd56ef360e21b845260048401525af1801561052857610b4c575b506002546001600160a01b03167f97ee3b9e4cd3242f1a9e7324336e978ed8d916c597cd0f6a3c8c5b65b93cad9b8280a280f35b81610b5691612e80565b61033257805f610b18565b5050fd5b9150506020813d602011610b92575b81610b8160209383612e80565b81010312610728578190515f610ad4565b3d9150610b74565b604090813d8311610bbe575b610bb08183612e80565b81010312610b61575f610a64565b503d610ba6565b6040513d86823e3d90fd5b81610bda91612e80565b610b6157825f6109db565b505050fd5b935091506020833d602011610c19575b81610c0760209383612e80565b8101031261072857839251915f6109ad565b3d9150610bfa565b633a23d82560e01b8152600490fd5b633c5235bd60e21b8152600490fd5b503461033257602036600319011261033257600254600435906001600160a01b03163303610d9357610c6f6131e9565b60185460ff8116610d855760ff8160101c16610d765760ff601a5416610d675760081c60ff1615610d5857610ca2613221565b8015610d4957600454829190610cdb9082906001600160a01b0316610cc9823033846135c5565b6005546001600160a01b0316906139fc565b6005546002546001600160a01b0391821692911690823b15610be55760405163297576c360e21b81526001600160a01b03909216600483015260248201529082908290818381604481015b03925af1801561052857610513575060015f516020613b845f395f51905f525580f35b631f2a200560e01b8252600482fd5b6321c4e35760e21b8252600482fd5b630a9105a360e31b8352600483fd5b631163355960e21b8352600483fd5b62b5f6bf60e41b8352600483fd5b635c427cd960e01b8252600482fd5b503461033257610dd1610dbd610db736612dd0565b90613154565b604051918291602083526020830190612e4d565b0390f35b5034610332576020366003190112610332576020610df4600435613110565b604051908152f35b50346103325780600319360112610332576006546040516001600160a01b039091168152602090f35b50346103325780600319360112610332576020600c54604051908152f35b5034610332578060031936011261033257602060ff601a54166040519015158152f35b503461033257602036600319011261033257602090600435815260158252604060018060a01b0391205416604051908152f35b50346103325780600319360112610332576004546040516001600160a01b039091168152602090f35b503461033257604036600319011261033257610edc612d48565b6001600160a01b03168152601b6020526040812080546024359290831015610332576020610f0a8484612e12565b90549060031b1c604051908152f35b50346103325760203660031901126103325760406020916004358152601483522054604051908152f35b5034610332578060031936011261033257805460101c6001600160a01b0316330361087257610f706131e9565b60185460ff8160101c161561103557610f87612fc5565b6110265762ff0000191660185560055481906001600160a01b0316803b1561053357818091600460405180948193639dba70f960e01b83525af1801561052857611011575b506002546001600160a01b03167f445e027cfd2db85d19806ef8d31d4bdf988e15bd98e40d254519916e9f3130798280a260015f516020613b845f395f51905f525580f35b8161101b91612e80565b61033257805f610fcc565b633a23d82560e01b8252600482fd5b63bc6fe51960e01b8252600482fd5b5034610332578060031936011261033257602060ff60185460101c166040519015158152f35b50346103325760203660031901126103325760043590601654821015610332576020610f0a83612de6565b5034610332576020366003190112610332576110af612d48565b815460101c6001600160a01b03163303610d93576001600160a01b03811690811561112957601a8054610100600160a81b03198116600893841b610100600160a81b031617909155901c6001600160a01b03167f064d28d3d3071c5cbc271a261c10c2f0f0d9e319390397101aa0eb23c6bad9098380a380f35b63d92e233d60e01b8352600483fd5b50346103325760203660031901126103325760ff60406020926004358152601384522054166040519015158152f35b5034610332578060031936011261033257601a5433600882901c6001600160a01b03161415806111a3575b610d935760ff1916600117601a5580f35b5081543360109190911c6001600160a01b03161415611192565b5034610332578060031936011261033257602060405160648152f35b50346103325780600319360112610332576002546040516001600160a01b039091168152602090f35b50346103325780600319360112610332576020600d54604051908152f35b50346103325760803660031901126103325760243560443560ff811680910361132f5761124b6131e9565b60185460ff8160081c16156113205760ff81166113125760101c60ff16610d7657611388821161130357602090608460018060a01b0360065416938560405195869485936370f5230560e01b855260043560048601526024850152604484015260643560648401525af18015610528576112d4575060015f516020613b845f395f51905f525580f35b6112f59060203d6020116112fc575b6112ed8183612e80565b810190612ea2565b505f6104fe565b503d6112e3565b630297c41560e01b8352600483fd5b62b5f6bf60e41b8452600484fd5b6321c4e35760e21b8452600484fd5b8280fd5b503461033257602036600319011261033257600254600435906001600160a01b03163303610d93576113636131e9565b60185460ff8116610d855760ff8160101c16610d765760ff601a5416610d675760081c60ff1615610d5857611396613221565b8015610d49576005546002548392916001600160a01b039182169116670de0b6b3a76400006113c66105ae61362e565b0490803b1561140a57604051633d3a066f60e01b81526001600160a01b03909316600484015260248301939093526044820152908290829081838160648101610d26565b8480fd5b50346103325780600319360112610332576020610df4613072565b50346103325780600319360112610332576020611444612fc5565b6040519015158152f35b50346103325780600319360112610332576001546040516001600160a01b039091168152602090f35b50346103325761148636612dd0565b506008546001600160a01b03163303610d935760ff60185460101c1615611035578190670de0b6b3a76400006114bd6105ae61362e565b0480821061160d575b50806115ff575b6009546001600160a01b031690811515806115f4575b611578575b50506018805462ff0000191690555060055481906001600160a01b0316803b1561053357818091600460405180948193639dba70f960e01b83525af1801561052857611563575b506002546001600160a01b03167f445e027cfd2db85d19806ef8d31d4bdf988e15bd98e40d254519916e9f3130798280a280f35b8161156d91612e80565b61033257805f61152f565b60018060a01b036002541690601e5492803b1561140a576040516360afb7eb60e11b81526001600160a01b03939093166004840152602483019390935260448201529082908290606490829084905af18015610528576115df575b50601e55805f806114e8565b816115e991612e80565b61033257805f6115d3565b50601e5415156114e3565b61160881613697565b6114cd565b8192509061161a91612fb8565b61162681601c54612eea565b601c5561163581601d54612eea565b601d556040516016548082528160208101601687526020872092875b8181106118ed57505061166692500382612e80565b61166e61362e565b9084925b81518410806118e4575b156117ce5761168b8483612f29565b51808752601260205260ff604088205416156117c3578087526011602052600160ff604089205416036117c357808752600f602052670de0b6b3a76400006116d78560408a2054612f3d565b0480156117b7578281106117905750808752600f602052604087205491670de0b6b3a7640000810290808204670de0b6b3a7640000149015171561177c57906117248561176c9493612f50565b61173081600a54612fb8565b600a55818952600f60205261174a60408a20918254612fb8565b9055808852600f60205260408820549088526010602052604088205491613af1565b6117768593613689565b92611672565b634e487b7160e01b88526011600452602488fd5b6117a36117b29161177694979397612fb8565b956117ad81613379565b61348a565b613689565b50509261177690613689565b509261177690613689565b8593505b8582518510806118db575b156118cf57506117ed8483612f29565b5180875260126020528660ff604082205416156118c35781905260116020528660ff6040822054166118c357819052600f60205286670de0b6b3a7640000611839866040842054612f3d565b0480156118b6578381106118995750819052600f602052604087205491670de0b6b3a7640000810290808204670de0b6b3a7640000149015171561177c5790611724856118869493612f50565b846118918194613689565b9390506117d2565b6118ac6117b29161189194989395612fb8565b966117ad81613379565b5091946118919150613689565b91946118919150613689565b9493505050505f6114c6565b508115156117dd565b5080151561167c565b8454835260019485019486945060209093019201611651565b50346103325780600319360112610332576020600a54604051908152f35b50346103325760203660031901126103325760ff6040602092600435815260118452205416604051908152f35b5034610332578060031936011261033257601a5460405160089190911c6001600160a01b03168152602090f35b50346103325780600319360112610332576003546040516001600160a01b039091168152602090f35b50346103325760203660031901126103325760406020916004358152601083522054604051908152f35b50346103325780600319360112610332576008546040516001600160a01b039091168152602090f35b5034610332578060031936011261033257601a5433600882901c6001600160a01b0316141580611a33575b610d935760ff1916601a5580f35b5081543360109190911c6001600160a01b03161415611a25565b50346103325760203660031901126103325760ff60406020926004358152601284522054166040519015158152f35b503461033257806003193601126103325760206040516113888152f35b5034610332578060031936011261033257602060ff60185460081c166040519015158152f35b503461033257602036600319011261033257600254600435906001600160a01b03163303610d9357611aef6131e9565b60ff60185460081c1615610d5857611b05613221565b808015611c7657670de0b6b3a7640000611b206105ae61362e565b04908115611c67578110611c5f575b50600354600254611b5091839130916001600160a01b0391821691166135c5565b611b5981613697565b600a5415611bb8575b7f2fe77b1c99aca6b022b8efc6e3e8dd1b48b30748709339b65c50ef3263443e09606060018060a01b036002541692604051908082528560208301526040820152a260015f516020613b845f395f51905f525580f35b60095482906001600160a01b031680151580611c54575b611bdb575b5050611b62565b60018060a01b0360025416601e54823b15611c50576040516310290c9160e31b81526001600160a01b0392909216600483015260248201529082908290604490829084905af1801561052857611c37575b50601e55815f611bd4565b81611c4191612e80565b611c4c57815f611c2c565b5080fd5b8380fd5b50601e541515611bcf565b90505f611b2f565b631f2a200560e01b8452600484fd5b631f2a200560e01b8352600483fd5b50346103325780600319360112610332576020601954604051908152f35b50346103325780600319360112610332576002546001600160a01b0316330361087257611cce6131e9565b60ff60185460081c161561053657611ce4613221565b670de0b6b3a7640000611cf86105ae61362e565b048015610d4957600354600254611d1f91839130916001600160a01b0391821691166135c5565b611d27612f6e565b611d2f61362e565b90835b8151811015611db05780611d4860019284612f29565b51808752601260205260ff60408820541615611daa5780611da4918852600f602052670de0b6b3a7640000611d818760408b2054612f3d565b048189526014602052611d9960408a20918254612eea565b90556117ad81613379565b01611d32565b50611da4565b50505081600a5581600d5581600e558160018060a01b036009541680151580611ea2575b611e31575b50507f2fe77b1c99aca6b022b8efc6e3e8dd1b48b30748709339b65c50ef3263443e09606060018060a01b036002541692604051908082528560208301526040820152a260015f516020613b845f395f51905f525580f35b60018060a01b0360025416601e54823b15611c50576040516310290c9160e31b81526001600160a01b0392909216600483015260248201529082908290604490829084905af1801561052857611e8d575b50601e55815f611dd9565b81611e9791612e80565b611c4c57815f611e82565b50601e541515611dd4565b503461033257806003193601126103325760185460ff8160081c1615610d5857611ed5612fc5565b156110265760101c60ff16610c305761093e613221565b50346103325760203660031901126103325760406020916004358152601783522054604051908152f35b50346103325780600319360112610332576007546040516001600160a01b039091168152602090f35b503461033257602036600319011261033257600435611f5c6131e9565b60ff60185460081c1615610d5857808252601460205260408220548015612173576003546040516370a0823160e01b815230600482015290602090829060249082906001600160a01b03165afa908115610bc5578491612141575b508111612132578183526013602052604083205460ff16156120f257818352601560205260408320546001600160a01b03168015612076575b336001600160a01b03909116036120675760407f78dd5e343bcb666bca386d600c40d1412bff3eb1772d8be0f416118a4cd5a9bd9183855260146020528482812055612047813360018060a01b03600354166132f8565b8151908152846020820152a260015f516020613b845f395f51905f525580f35b635c427cd960e01b8352600483fd5b506007546040516351c062ad60e11b81526004810184905290602090829060249082906001600160a01b03165afa908115610bc55784916120b8575b50611ff0565b90506020813d6020116120ea575b816120d360209383612e80565b81010312611c50576120e490612ec9565b5f6120b2565b3d91506120c6565b6007546040516331a9108f60e11b81526004810184905290602090829060249082906001600160a01b03165afa908115610bc55784916120b85750611ff0565b633a23d82560e01b8352600483fd5b90506020813d60201161216b575b8161215c60209383612e80565b8101031261072857515f611fb7565b3d915061214f565b63a12a456360e01b8352600483fd5b50346103325780600319360112610332576020601d54604051908152f35b50346103325780600319360112610332576002546001600160a01b03163303610872576121cb6131e9565b60ff60185460081c1615610536576121e1613221565b600a54801590811561234c575b5015612307576121fc612f6e565b815b81518110156122a2578061221460019284612f29565b51808552601260205260ff6040862054168061228d575b612237575b50016121fe565b808552600f602052670de0b6b3a76400006122596040872054600c5490612f3d565b04906103e8821061226b575b50612230565b612286918187526014602052611d9960408820918254612eea565b5f80612265565b50808552600f6020526040852054151561222b565b82600a546108635760165461085457600160ff19601854161760185560018060a01b03600254167f09a09c46728dfde8eed179c677c1238c3dde7f0d264ed782135a43b23222e2196020604051428152a260015f516020613b845f395f51905f525580f35b60405162461bcd60e51b815260206004820152601c60248201527f4465627420746f6f206869676820746f20666f72636520636c6f7365000000006044820152606490fd5b6103e89150612367670de0b6b3a764000091600c5490612f3d565b04105f6121ee565b50346103325761237e36612d5e565b859491929394549260ff8460081c1615938480956125bb575b80156125a4575b156125485760ff198116600117885584612537575b506001600160a01b038316158015612526575b8015612515575b8015612504575b80156124f3575b6124e457865462010000600160b01b03198116601085901b62010000600160b01b03169081178955600180546001600160a01b03199081166001600160a01b039a8b1617909155600280548216988a169890981790975560038054881693891693909317909255600480549096169290961691909117909355601a8054610100600160a81b03191660089290921b610100600160a81b031691909117905542600b55670de0b6b3a7640000600c556018805461ff0019166101001790559091906124a3578280f35b610100600160b01b031916178155604051600181527f7f26b83ff96e1f2b6a682f133852f6798a09c465da95921460cefb384740249890602090a15f808280f35b63d92e233d60e01b8752600487fd5b506001600160a01b038216156123db565b506001600160a01b038116156123d4565b506001600160a01b038516156123cd565b506001600160a01b038616156123c6565b61ffff19166101011787555f6123b3565b60405162461bcd60e51b815260206004820152602e60248201527f496e697469616c697a61626c653a20636f6e747261637420697320616c72656160448201526d191e481a5b9a5d1a585b1a5e995960921b6064820152608490fd5b50303b15801561239e5750600160ff82161461239e565b50600160ff821610612397565b503461072857606036600319011261072857600435602435801515809103610728576002546001600160a01b03163303612cb0576126046131e9565b60185460ff8116612ca25760ff8160101c16612c665760ff601a5416612c935760081c60ff1615612c8457612637613221565b8115612c755760ff60185460101c16612c6657612652613072565b8211612c575760065460405163c2e43f1d60e01b81526004810184905260248101929092525f908290604490829084906001600160a01b03165af192831561298b575f915f94612b1a575b506044358411612b0b576113888411612b0b57815115612afc5760646126c7601654845190612eea565b11612aed576126d883601e54612eea565b601e556126e58251612ef7565b935f5b835181101561299657839060208260a4815f60018060a01b036007541660ff60a061273f896080612736826060612736828f8d9061272c836001808e1b0393612f29565b510151169c612f29565b5101519b612f29565b510151166040519889968795636b991c2d60e01b875260048701523060248701526044860152606485015260848401525af191821561298b575f92612958575b508161278b8289612f29565b526001600160a01b0360206127a08388612f29565b510151165f52601b60205260405f208054600160401b811015612930576127d1816127e99360018794018155612e12565b90919082549060031b91821b915f19901b1916179055565b60606127f58287612f29565b510151670de0b6b3a7640000810290808204670de0b6b3a76400001490151715612944576128296128a591600c5490612f50565b835f52600f6020528060405f205560806128438489612f29565b510151845f52601060205260405f205560ff60a0612861858a612f29565b51015116845f52601160205260405f209060ff19825416179055835f52601360205260405f2060ff198154169055835f5260146020525f6040812055600a54612eea565b600a55601654825f52601760205260405f205560165491600160401b83101561293057612917816128e661291f936127d18760018099016016556016612e12565b5f908152601260209081526040808320805460ff191688179055600f82528083205460109092529091205490612f3d565b600d54612eea565b600d5561292a613b62565b016126e8565b634e487b7160e01b5f52604160045260245ffd5b634e487b7160e01b5f52601160045260245ffd5b9091506020813d8211612983575b8161297360209383612e80565b810103126107285751905f61277f565b3d9150612966565b6040513d5f823e3d90fd5b50600354600254929491935090916129bc9183916001600160a01b0390811691166132f8565b6009546001600160a01b031680612a64575b50612a4d7fd6183328d9c97aa1695793c0f5cdfd9117f27e0c9ac65205c4c0eb031cc47f3d939460018060a01b03600254167fe1979fe4c35e0cef342fef5668e2c8e7a7e9f5d5d1ca8fee0ac6c427fa4153af60408051868152876020820152a260405193849384526020840152606060408401526060830190612e4d565b0390a160015f516020613b845f395f51905f525580f35b6002546001600160a01b031690803b15610728576040516323d3b7e160e01b81526001600160a01b03929092166004830152602482018390525f908290604490829084905af1801561298b57156129ce577fd6183328d9c97aa1695793c0f5cdfd9117f27e0c9ac65205c4c0eb031cc47f3d93505f612ae291612e80565b612a4d5f93506129ce565b632b0e2f9160e21b5f5260045ffd5b63192bf2cb60e01b5f5260045ffd5b630297c41560e01b5f5260045ffd5b915092503d805f833e612b2d8183612e80565b81019060408183031261072857805167ffffffffffffffff811161072857810182601f8201121561072857805190612b6482612eb1565b93612b726040519586612e80565b828552602061012081870194028301019181831161072857602001925b828410612ba5575050505060200151925f61269d565b610120848303126107285760405190610120820182811067ffffffffffffffff8211176129305760405284518252612bdf60208601612ec9565b602083015260408501516040830152606085015160608301526080850151608083015260a08501519060ff82168203610728578260209260a061012095015260c087015160c0820152612c3460e08801612edd565b60e0820152612c466101008801612edd565b610100820152815201930192612b8f565b63119fe6e360e01b5f5260045ffd5b631163355960e21b5f5260045ffd5b631f2a200560e01b5f5260045ffd5b6321c4e35760e21b5f5260045ffd5b630a9105a360e31b5f5260045ffd5b62b5f6bf60e41b5f5260045ffd5b635c427cd960e01b5f5260045ffd5b34610728575f366003190112610728576020600e54604051908152f35b34610728575f366003190112610728576020601e54604051908152f35b34610728575f366003190112610728576003546370a0823160e01b8252306004830152602090829060249082906001600160a01b03165afa801561298b575f906106fd57602090604051908152f35b600435906001600160a01b038216820361072857565b60a0906003190112610728576004356001600160a01b038116810361072857906024356001600160a01b038116810361072857906044356001600160a01b038116810361072857906064356001600160a01b038116810361072857906084356001600160a01b03811681036107285790565b6040906003190112610728576004359060243590565b601654811015612dfe5760165f5260205f2001905f90565b634e487b7160e01b5f52603260045260245ffd5b8054821015612dfe575f5260205f2001905f90565b34610728575f366003190112610728576020670de0b6b3a76400006107886105ae61362e565b90602080835192838152019201905f5b818110612e6a5750505090565b8251845260209384019390920191600101612e5d565b90601f8019910116810190811067ffffffffffffffff82111761293057604052565b90816020910312610728575190565b67ffffffffffffffff81116129305760051b60200190565b51906001600160a01b038216820361072857565b5190811515820361072857565b9190820180921161294457565b90612f0182612eb1565b612f0e6040519182612e80565b8281528092612f1f601f1991612eb1565b0190602036910137565b8051821015612dfe5760209160051b010190565b8181029291811591840414171561294457565b8115612f5a570490565b634e487b7160e01b5f52601260045260245ffd5b60405190601654808352826020810160165f5260205f20925f5b818110612f9f575050612f9d92500383612e80565b565b8454835260019485019487945060209093019201612f88565b9190820391821161294457565b600554600254613026916020916001600160a01b039081169116670de0b6b3a7640000612ff36105ae61362e565b604051631fefd95560e11b81526001600160a01b0390941660048501520460248301529092839190829081906044820190565b03915afa90811561298b575f9161303b575090565b90506020813d60201161306a575b8161305660209383612e80565b810103126107285761306790612edd565b90565b3d9150613049565b600554600254604051634af6164560e11b81526001600160a01b0391821660048201529160209183916024918391165afa90811561298b575f916130de575b50670de0b6b3a76400006130c66105ae61362e565b04808211156130d85761306791612fb8565b50505f90565b90506020813d602011613108575b816130f960209383612e80565b8101031261072857515f6130b1565b3d91506130ec565b805f52601260205260ff60405f2054161561314f575f52600f602052670de0b6b3a764000061314b60405f205461314561362e565b90612f3d565b0490565b505f90565b919060165490818410156131cd5783613188926131746131839383612eea565b908082116131c5575b50612fb8565b612ef7565b915f5b83518110156131c157806131a96131a460019385612eea565b612de6565b90549060031b1c6131ba8287612f29565b520161318b565b5050565b90505f61317d565b505090506040516131df602082612e80565b5f81525f36813790565b60025f516020613b845f395f51905f5254146132125760025f516020613b845f395f51905f5255565b633ee5aeb560e01b5f5260045ffd5b600a5480156132f157613236600b5442612fb8565b80156131c157600c5464496cebb80061326e670de0b6b3a764000061325b8487612f3d565b0493613269600e5486612f3d565b612f3d565b04806132ca575b50505042600b557f5e804d42ae3b860f881d11cb44a4bb1f2f0d5b3d081f5539a32d6f97b629d9786020670de0b6b3a76400006132c060018060a01b036002541694600c5490612f3d565b04604051908152a2565b6132e6926132db6132e09284612f3d565b612f50565b90612eea565b600c555f8080613275565b5042600b55565b916040519163a9059cbb60e01b5f5260018060a01b031660045260245260205f60448180865af19060015f5114821615613358575b604052156133385750565b635274afe760e01b5f9081526001600160a01b0391909116600452602490fd5b90600181151661337057823b15153d1516169061332d565b503d5f823e3d90fd5b5f818152600f60205260408120805491905580613433575b50805f52601760205260405f20546016545f198101908111612944576133b690612de6565b90549060031b1c6133ca816127d184612de6565b5f52601760205260405f2055601654801561341f575f19016133eb81612de6565b8154905f199060031b1b19169055601655805f5260176020525f60408120555f52601260205260405f2060ff198154169055565b634e487b7160e01b5f52603160045260245ffd5b8061344361345992600a54612fb8565b600a55825f52601060205260405f205490612f3d565b600d5481116134805761346e90600d54612fb8565b600d555b61347a613b62565b5f613391565b505f600d55613472565b805f52601360205260ff60405f2054166135c2575f818152601560205260409020546001600160a01b03161561351d575b5f818152601360205260409020805460ff191660011790556007546001600160a01b031690813b15610728575f91602483926040519485938492632fefd77f60e01b845260048401525af1801561298b576135135750565b5f612f9d91612e80565b6007546040516331a9108f60e11b81526004810183905290602090829060249082906001600160a01b03165afa90811561298b575f91613588575b505f82815260156020526040902080546001600160a01b0319166001600160a01b039092169190911790556134bb565b90506020813d6020116135ba575b816135a360209383612e80565b81010312610728576135b490612ec9565b5f613558565b3d9150613596565b50565b6040516323b872dd60e01b5f9081526001600160a01b039384166004529290931660245260449390935260209060648180865af19060015f5114821615613616575b6040525f606052156133385750565b90600181151661337057823b15153d15161690613607565b600a54801561368257613643600b5442612fb8565b90811561367a576132e0613067926132db64496cebb800613673670de0b6b3a764000061325b600c548098612f3d565b0484612f3d565b5050600c5490565b50600c5490565b5f1981146129445760010190565b90600a54156139f85781670de0b6b3a76400006136b56105ae61362e565b049060405191601654808452836020810160165f5260205f20925f5b8181106139df5750506136e692500384612e80565b6136ee61362e565b925f925b81518410806139d6575b1561384d5761370b8483612f29565b51805f52601260205260ff60405f205416158015613839575b61382e57805f52600f602052670de0b6b3a76400006137478760405f2054612f3d565b04801561381b57846132db61375c928b612f3d565b828111613827575b801561381b57815f52601460205260405f20613781828254612eea565b9055815f52600f60205260405f205492670de0b6b3a76400008202828104670de0b6b3a764000003612944576138159461380f946137c28b61380a94612f50565b6137ce81600a54612fb8565b600a55815f52600f6020526137e860405f20918254612fb8565b9055805f52600f60205260405f2054905f52601060205260405f205491613af1565b612fb8565b93613689565b926136f2565b50509261381590613689565b5081613764565b509261381590613689565b50805f52600f60205260405f205415613724565b5092945050505f5b81518110156139d0576138688183612f29565b5190815f52600f602052670de0b6b3a76400006138898660405f2054612f3d565b0491805f52600f60205260405f20541515806139c4575b15613994575f818152601560205260409020546001600160a01b0316156138e6575b806001936138e0925f526014602052611d9960405f20918254612eea565b01613855565b6007546040516331a9108f60e11b81526004810183905290602090829060249082906001600160a01b03165afa90811561298b575f91613951575b505f82815260156020526040902080546001600160a01b0319166001600160a01b039092169190911790556138c2565b9190506020823d821161398c575b8161396c60209383612e80565b81010312610728576001936139836138e093612ec9565b91925093613921565b3d915061395f565b60019250805f52600f60205260405f2054156139b1575b506138e0565b806117ad6139be92613379565b5f6139ab565b50620f424083106138a0565b50509050565b508015156136fc565b84548352600194850194889450602090930192016136d1565b9050565b916040519163095ea7b360e01b5f5260018060a01b031691826004528160245260205f60448180885af19060015f5114821615613ae2575b60405215613a4157505050565b60405163095ea7b360e01b5f52826004525f60245260205f60448180885af19060015f5114821615613aca575b60405215613aac576040519163095ea7b360e01b5f5260045260245260205f60448180865af19060015f511482161561335857604052156133385750565b635274afe760e01b5f9081526001600160a01b038416600452602490fd5b90600181151661337057843b15153d15161690613a6e565b90843b15153d15161690613a34565b9091828214613b5d57613b0781613b0d93612f3d565b92612f3d565b818110613b2d57613b219161291791612fb8565b600d555b612f9d613b62565b613b3691612fb8565b600d548111613b5357613b4b90600d54612fb8565b600d55613b25565b505f600d55613b25565b505050565b600a548015613b7c57613b7790600d54612f50565b600e55565b505f600e5556fe9b779b17422d0df92223018b32b4d1fa46e071723d6817e2486d003becc55f00a26469706673582212201b8086fedbd999e2208759e86f2ae62e7f4d22c71d4a75317594b957fbe410cd64736f6c63430008210033","linkReferences":{}},"methodIdentifiers":{"BASIS_POINTS()":"e1f1c4a7","MAX_ACTIVE_POSITIONS()":"7e8ea3c9","MAX_APR_BPS()":"3945c080","activePositionIds(uint256)":"8bb41708","activePositionIndex(uint256)":"253f7a33","archController()":"54635570","badDebt()":"bbcac557","borrow(uint256,bool,uint256)":"138173e8","borrowAsset()":"446456e5","borrowIndex()":"aa5af0fd","borrower()":"7df1f1b9","cancelOffer(uint256)":"ef706adf","claimFunds(uint256)":"1b55e338","closeMarket()":"c511ed5e","collateralAsset()":"aabaecd6","collateralEscrow()":"e8e17bc8","currentCycleBorrowedAmount()":"062334d1","depositCollateral(uint256)":"bad4a01f","endLiquidation()":"9dba70f9","factory()":"c45a0155","forceCloseMarket()":"1727b331","getActivePositionsCount()":"c5e6f13f","getActivePositionsPaginated(uint256,uint256)":"ba588179","getCollateralRatio()":"cd377c53","getCurrentDebtIndex()":"b48efcfe","getCurrentPrincipal()":"c86c69cc","getMaxBorrowable()":"6040a98d","getPositionClaimable(uint256)":"a7173f68","getPositionValue(uint256)":"b86a0aaa","getTotalOwed()":"95c8cbc9","guardian()":"452a9320","initialize(address,address,address,address,address)":"1459457a","isClosed()":"c2b6b58c","isHealthy()":"e4020804","isInitialized()":"392e53cd","isLiquidatable()":"578c65e4","isLiquidating()":"97f58e91","isPaused()":"b187bd26","lastInterestAccrualTime()":"fec5e4c6","lenderPositions(address,uint256)":"a93d789f","liquidate()":"28a07025","liquidationAuctionId()":"31c95044","liquidator()":"4046ebae","offerBook()":"b49d05c9","pause()":"8456cb59","positionActive(uint256)":"3aa03451","positionApr(uint256)":"41211618","positionClaimableAmount(uint256)":"2be6cc8b","positionNFT()":"23228ecb","positionScaledPrincipal(uint256)":"c1030f42","positionSeniority(uint256)":"47ad7788","positionSettled(uint256)":"862235cb","repay(uint256)":"371fd8e6","repayFull()":"29d93d67","reputationRegistry()":"c8db44e3","setContracts(address,address,address,address,address)":"f63bf8bd","setGuardian(address)":"8a0dac4a","settleLiquidation(uint256,uint256)":"52f2d4e0","settledPositionOwner(uint256)":"ac591b8d","startLiquidation()":"bbbe3869","submitOffer(uint256,uint256,uint8,uint256)":"70f52305","totalAssets()":"01e1d114","totalDebt()":"fc7b9c18","totalRealizedLoss()":"17bc803a","totalScaledPrincipal()":"4e234fb7","unpause()":"3f4ba83a","weightedAprNumeratorScaled()":"728e9e12","weightedAverageAPR()":"0c0a3901","withdrawCollateral(uint256)":"6112fe2e"},"id":60}