{"abi":[{"type":"constructor","inputs":[],"stateMutability":"nonpayable"},{"type":"function","name":"EPOCH_DURATION","inputs":[],"outputs":[{"name":"","type":"uint256","internalType":"uint256"}],"stateMutability":"view"},{"type":"function","name":"MAX_REQUESTS_PER_EPOCH","inputs":[],"outputs":[{"name":"","type":"uint256","internalType":"uint256"}],"stateMutability":"view"},{"type":"function","name":"cancelWithdrawal","inputs":[{"name":"requestId","type":"uint256","internalType":"uint256"}],"outputs":[],"stateMutability":"nonpayable"},{"type":"function","name":"claimWithdrawal","inputs":[{"name":"requestId","type":"uint256","internalType":"uint256"},{"name":"amount","type":"uint256","internalType":"uint256"}],"outputs":[],"stateMutability":"nonpayable"},{"type":"function","name":"currentEpoch","inputs":[],"outputs":[{"name":"","type":"uint256","internalType":"uint256"}],"stateMutability":"view"},{"type":"function","name":"epochStartTime","inputs":[],"outputs":[{"name":"","type":"uint256","internalType":"uint256"}],"stateMutability":"view"},{"type":"function","name":"epochs","inputs":[{"name":"","type":"uint256","internalType":"uint256"}],"outputs":[{"name":"epochNumber","type":"uint256","internalType":"uint256"},{"name":"startTime","type":"uint256","internalType":"uint256"},{"name":"endTime","type":"uint256","internalType":"uint256"},{"name":"totalRequested","type":"uint256","internalType":"uint256"},{"name":"totalAvailable","type":"uint256","internalType":"uint256"},{"name":"processed","type":"bool","internalType":"bool"}],"stateMutability":"view"},{"type":"function","name":"factory","inputs":[],"outputs":[{"name":"","type":"address","internalType":"address"}],"stateMutability":"view"},{"type":"function","name":"getCurrentEpoch","inputs":[],"outputs":[{"name":"","type":"uint256","internalType":"uint256"}],"stateMutability":"view"},{"type":"function","name":"getEpoch","inputs":[{"name":"epochNumber","type":"uint256","internalType":"uint256"}],"outputs":[{"name":"","type":"tuple","internalType":"struct RevvFiLiquidityQueue.Epoch","components":[{"name":"epochNumber","type":"uint256","internalType":"uint256"},{"name":"startTime","type":"uint256","internalType":"uint256"},{"name":"endTime","type":"uint256","internalType":"uint256"},{"name":"totalRequested","type":"uint256","internalType":"uint256"},{"name":"totalAvailable","type":"uint256","internalType":"uint256"},{"name":"processed","type":"bool","internalType":"bool"},{"name":"requestIds","type":"uint256[]","internalType":"uint256[]"}]}],"stateMutability":"view"},{"type":"function","name":"getEpochRequests","inputs":[{"name":"epochNumber","type":"uint256","internalType":"uint256"}],"outputs":[{"name":"","type":"uint256[]","internalType":"uint256[]"}],"stateMutability":"view"},{"type":"function","name":"getLenderRequests","inputs":[{"name":"lender","type":"address","internalType":"address"}],"outputs":[{"name":"","type":"uint256[]","internalType":"uint256[]"}],"stateMutability":"view"},{"type":"function","name":"getWithdrawalRequest","inputs":[{"name":"requestId","type":"uint256","internalType":"uint256"}],"outputs":[{"name":"","type":"tuple","internalType":"struct RevvFiLiquidityQueue.WithdrawalRequest","components":[{"name":"requestId","type":"uint256","internalType":"uint256"},{"name":"lender","type":"address","internalType":"address"},{"name":"positionId","type":"uint256","internalType":"uint256"},{"name":"requestedAmount","type":"uint256","internalType":"uint256"},{"name":"fulfilledAmount","type":"uint256","internalType":"uint256"},{"name":"remainingAmount","type":"uint256","internalType":"uint256"},{"name":"requestedEpoch","type":"uint256","internalType":"uint256"},{"name":"processed","type":"bool","internalType":"bool"},{"name":"claimed","type":"bool","internalType":"bool"},{"name":"positionLocked","type":"bool","internalType":"bool"}]}],"stateMutability":"view"},{"type":"function","name":"initialize","inputs":[{"name":"_factory","type":"address","internalType":"address"},{"name":"_market","type":"address","internalType":"address"},{"name":"_positionNFT","type":"address","internalType":"address"}],"outputs":[],"stateMutability":"nonpayable"},{"type":"function","name":"isWithdrawalReady","inputs":[{"name":"requestId","type":"uint256","internalType":"uint256"}],"outputs":[{"name":"","type":"bool","internalType":"bool"}],"stateMutability":"view"},{"type":"function","name":"lenderRequests","inputs":[{"name":"","type":"address","internalType":"address"},{"name":"","type":"uint256","internalType":"uint256"}],"outputs":[{"name":"","type":"uint256","internalType":"uint256"}],"stateMutability":"view"},{"type":"function","name":"market","inputs":[],"outputs":[{"name":"","type":"address","internalType":"address"}],"stateMutability":"view"},{"type":"function","name":"nextRequestId","inputs":[],"outputs":[{"name":"","type":"uint256","internalType":"uint256"}],"stateMutability":"view"},{"type":"function","name":"positionNFT","inputs":[],"outputs":[{"name":"","type":"address","internalType":"contract IRevvFiPositionNFT"}],"stateMutability":"view"},{"type":"function","name":"positionWithdrawalLocked","inputs":[{"name":"","type":"uint256","internalType":"uint256"}],"outputs":[{"name":"","type":"bool","internalType":"bool"}],"stateMutability":"view"},{"type":"function","name":"processEpoch","inputs":[{"name":"epochNumber","type":"uint256","internalType":"uint256"},{"name":"availableLiquidity","type":"uint256","internalType":"uint256"}],"outputs":[],"stateMutability":"nonpayable"},{"type":"function","name":"requestWithdrawal","inputs":[{"name":"lender","type":"address","internalType":"address"},{"name":"positionId","type":"uint256","internalType":"uint256"},{"name":"amount","type":"uint256","internalType":"uint256"}],"outputs":[{"name":"requestId","type":"uint256","internalType":"uint256"}],"stateMutability":"nonpayable"},{"type":"function","name":"timeUntilEpochEnd","inputs":[],"outputs":[{"name":"","type":"uint256","internalType":"uint256"}],"stateMutability":"view"},{"type":"function","name":"withdrawalRequests","inputs":[{"name":"","type":"uint256","internalType":"uint256"}],"outputs":[{"name":"requestId","type":"uint256","internalType":"uint256"},{"name":"lender","type":"address","internalType":"address"},{"name":"positionId","type":"uint256","internalType":"uint256"},{"name":"requestedAmount","type":"uint256","internalType":"uint256"},{"name":"fulfilledAmount","type":"uint256","internalType":"uint256"},{"name":"remainingAmount","type":"uint256","internalType":"uint256"},{"name":"requestedEpoch","type":"uint256","internalType":"uint256"},{"name":"processed","type":"bool","internalType":"bool"},{"name":"claimed","type":"bool","internalType":"bool"},{"name":"positionLocked","type":"bool","internalType":"bool"}],"stateMutability":"view"},{"type":"event","name":"EpochProcessed","inputs":[{"name":"epochNumber","type":"uint256","indexed":true,"internalType":"uint256"},{"name":"totalRequested","type":"uint256","indexed":false,"internalType":"uint256"},{"name":"totalProcessed","type":"uint256","indexed":false,"internalType":"uint256"}],"anonymous":false},{"type":"event","name":"Initialized","inputs":[{"name":"version","type":"uint8","indexed":false,"internalType":"uint8"}],"anonymous":false},{"type":"event","name":"PositionUnlocked","inputs":[{"name":"positionId","type":"uint256","indexed":true,"internalType":"uint256"}],"anonymous":false},{"type":"event","name":"WithdrawalCancelled","inputs":[{"name":"requestId","type":"uint256","indexed":true,"internalType":"uint256"},{"name":"lender","type":"address","indexed":true,"internalType":"address"},{"name":"amount","type":"uint256","indexed":false,"internalType":"uint256"}],"anonymous":false},{"type":"event","name":"WithdrawalClaimed","inputs":[{"name":"requestId","type":"uint256","indexed":true,"internalType":"uint256"},{"name":"lender","type":"address","indexed":true,"internalType":"address"},{"name":"amount","type":"uint256","indexed":false,"internalType":"uint256"}],"anonymous":false},{"type":"event","name":"WithdrawalRequested","inputs":[{"name":"requestId","type":"uint256","indexed":true,"internalType":"uint256"},{"name":"lender","type":"address","indexed":true,"internalType":"address"},{"name":"positionId","type":"uint256","indexed":false,"internalType":"uint256"},{"name":"amount","type":"uint256","indexed":false,"internalType":"uint256"},{"name":"epoch","type":"uint256","indexed":false,"internalType":"uint256"}],"anonymous":false},{"type":"error","name":"EpochNotComplete","inputs":[]},{"type":"error","name":"MaxOffersExceeded","inputs":[]},{"type":"error","name":"PositionAlreadyRedeemed","inputs":[]},{"type":"error","name":"ReentrancyGuardReentrantCall","inputs":[]},{"type":"error","name":"UnauthorizedCaller","inputs":[]},{"type":"error","name":"WithdrawalTooEarly","inputs":[]},{"type":"error","name":"ZeroAddress","inputs":[]},{"type":"error","name":"ZeroAmount","inputs":[]}],"bytecode":{"object":"0x6080806040523460df5760017f9b779b17422d0df92223018b32b4d1fa46e071723d6817e2486d003becc55f00555f549060ff8260081c16608d575060ff808216036054575b60405161148090816100e48239f35b60ff90811916175f557f7f26b83ff96e1f2b6a682f133852f6798a09c465da95921460cefb3847402498602060405160ff8152a15f6045565b62461bcd60e51b815260206004820152602760248201527f496e697469616c697a61626c653a20636f6e747261637420697320696e697469604482015266616c697a696e6760c81b6064820152608490fd5b5f80fdfe60806040526004361015610011575f80fd5b5f3560e01c80630d1eab5d146111b2578063115b512f14610e5b57806323228ecb14610e335780633efcfda414610d1757806341e6434e14610b345780636a84a98514610b175780637667180814610afa57806380f5560514610acf578063937b258114610a2f57806394404b27146109e75780639ad4dad3146109cd578063a70b9f0c146109b0578063ac952d0114610981578063ae48565114610833578063b5b1fb5414610817578063b97dd9e2146107f5578063bc0bc6ba146106c6578063c0c53b8b146103a5578063c45a01551461037d578063c6b61e4c14610317578063f21340e4146101c2578063f60ca641146101a5578063f8033d311461014d5763fe0a643614610121575f80fd5b3461014957602036600319011261014957602061013f6004356113b9565b6040519015158152f35b5f80fd5b3461014957604036600319011261014957610166611218565b6001600160a01b03165f908152600560205260409020805460243591908210156101495760209161019691611244565b90549060031b1c604051908152f35b34610149575f366003190112610149576020600954604051908152f35b34610149576101d03661122e565b505f5460101c6001600160a01b03163303610308576101ed6113f2565b805f52600360205260405f20903360018060a01b0360018401541603610308576007820180549260ff8416156102f95760ff8460081c166102ea5760048101549384156102db5761ff0019166101001780835560101c60ff1661028c575b50506040519182527f8adb7a84b2998a8d11cd9284395f95d5a99f160be785ae79998c654979bd3d9a60203393a360015f51602061142b5f395f51905f5255005b6002019081545f52600660205260405f2060ff19815416905562ff0000198154169055547fced6ce5feb1d3d9527ea3888f0f3e1bdb365c4c248eb5762fc68659b3be0f4405f80a2828061024b565b631f2a200560e01b5f5260045ffd5b638322842960e01b5f5260045ffd5b63ec01c41160e01b5f5260045ffd5b635c427cd960e01b5f5260045ffd5b34610149576020366003190112610149576004355f52600460205260c060405f20805490600181015490600281015460038201549060ff6005600485015494015416936040519586526020860152604085015260608401526080830152151560a0820152f35b34610149575f366003190112610149576001546040516001600160a01b039091168152602090f35b34610149576060366003190112610149576103be611218565b6024356001600160a01b03811690818103610149576044356001600160a01b0381169290839003610149575f549360ff8560081c1615948580966106b9575b80156106a2575b156106465760ff1981166001175f5585610635575b506001600160a01b031690811590811561062c575b508015610624575b610615576001600160601b0360a01b60015416176001555f549062010000600160b01b039060101b169062010000600160b01b031916175f556001600160601b0360a01b6002541617600255600160075560016008554260095562093a80420190814211610601576020916006604051916104b185846112a6565b5f83525f368137604051906104c58261128a565b600182528582019042825260408301908152606083015f815260808401915f835260a08501935f855260c0860197885260015f5260048a5260405f2095518655516001860155516002850155516003840155516004830155600582019051151560ff801983541691161790550190519081519167ffffffffffffffff83116105ed57600160401b83116105ed57849082548484558085106105c1575b5001905f52835f205f5b8381106105af57858561057a57005b7f7f26b83ff96e1f2b6a682f133852f6798a09c465da95921460cefb38474024989061ff00195f54165f5560405160018152a1005b8251828201559185019160010161056b565b835f528480845f20019103905f5b8281106105dd575050610561565b5f818301558894506001016105cf565b634e487b7160e01b5f52604160045260245ffd5b634e487b7160e01b5f52601160045260245ffd5b63d92e233d60e01b5f5260045ffd5b508215610436565b9050158561042e565b61ffff1916610101175f5585610419565b60405162461bcd60e51b815260206004820152602e60248201527f496e697469616c697a61626c653a20636f6e747261637420697320616c72656160448201526d191e481a5b9a5d1a585b1a5e995960921b6064820152608490fd5b50303b1580156104045750600160ff821614610404565b50600160ff8216106103fd565b3461014957602036600319011261014957606060c06040516106e78161128a565b5f81525f60208201525f60408201525f838201525f60808201525f60a082015201526004355f52600460205260405f206040516107238161128a565b81548152600182015490602081019182526002830154926040820193845260038101549060608301918252600481015460808401908152610777600660ff6005850154169360a087019415158552016112c8565b9260c08501938452604051968796602088526101008801965160208901525160408801525160608701525160808601525160a085015251151560c0840152519060e0808401528151809152602061012084019201905f5b8181106107dc575050500390f35b82518452859450602093840193909201916001016107ce565b34610149575f36600319011261014957602061080f61138e565b604051908152f35b34610149575f3660031901126101495760206040516101f48152f35b34610149576020366003190112610149575f6101206040516108548161126d565b8281528260208201528260408201528260608201528260808201528260a08201528260c08201528260e08201528261010082015201526004355f52600360205261014060405f20604051906108a88261126d565b80549182815260018060a01b03600183015416602082019081526002830154926040830193845260038101546060840190815260048201546080850190815260058301549160a08601928352600760068501549460c0880195865201549660e087019560ff89161515875260ff6101206101008a0199828c60081c1615158b52019960101c1615158952604051998a5260018060a01b0390511660208a01525160408901525160608801525160808701525160a08601525160c085015251151560e0840152511515610100830152511515610120820152f35b34610149576020366003190112610149576004355f526006602052602060ff60405f2054166040519015158152f35b34610149575f36600319011261014957602060405162093a808152f35b34610149575f36600319011261014957602061080f611361565b34610149576020366003190112610149576001600160a01b03610a08611218565b165f526005602052610a2b610a1f60405f206112c8565b604051918291826111df565b0390f35b34610149576020366003190112610149576004355f52600360205261014060405f2060ff81549160018060a01b0360018201541690600281015460038201546004830154906005840154926007600686015495015495604051988952602089015260408801526060870152608086015260a085015260c0840152818116151560e0840152818160081c16151561010084015260101c161515610120820152f35b34610149575f366003190112610149575f5460405160109190911c6001600160a01b03168152602090f35b34610149575f366003190112610149576020600854604051908152f35b34610149575f366003190112610149576020600754604051908152f35b3461014957610b423661122e565b6001546001600160a01b0316330361030857610b5c6113f2565b815f52600460205260405f2090600582019182549260ff84166102f95760028201544210610d08576001600483019484865560ff191617905560038101918254908115801580610cfb575b610bf3575b867ff0032d32026594ba6068f408da4fdfd559fb2ec3eccef8e9c3487bc477ca44266040888854905482519182526020820152a260015f51602061142b5f395f51905f5255005b94959294828210610cb857505050670de0b6b3a7640000939291925b60065f9301925b8354811015610c8757610c298185611244565b90549060031b1c5f52600360205260405f209060038201548781029281840489148215171561060157610c71600792670de0b6b3a76400006001960490816004850155611354565b600582015501805460ff19168317905501610c16565b509093509190508160407ff0032d32026594ba6068f408da4fdfd559fb2ec3eccef8e9c3487bc477ca442686610bac565b670de0b6b3a7640000820291808304670de0b6b3a7640000149015171561060157610ce7570493929192610c0f565b634e487b7160e01b5f52601260045260245ffd5b5060068401541515610ba7565b633d19c58560e21b5f5260045ffd5b3461014957602036600319011261014957600435610d336113f2565b5f81815260036020526040902060018101549091906001600160a01b03163303610308576007820160ff815416610d08576005830192835480156102db5760068201545f526004602052610d8f600360405f2001918254611354565b905560ff825460101c16610de4575b50505f825492556040519182527f1827a0ec328915df70a21d3ac58a86f06973898dbc2eaee0aa91be7563f136eb60203393a360015f51602061142b5f395f51905f5255005b6002019081545f52600660205260405f2060ff19815416905562ff0000198154169055547fced6ce5feb1d3d9527ea3888f0f3e1bdb365c4c248eb5762fc68659b3be0f4405f80a28280610d9e565b34610149575f366003190112610149576002546040516001600160a01b039091168152602090f35b3461014957606036600319011261014957610e74611218565b5f54604435916024359160101c6001600160a01b0316330361030857610e986113f2565b6001600160a01b031680156106155782156102db57815f52600660205260ff60405f2054166102ea576002546040516331a9108f60e11b81526004810184905290602090829060249082906001600160a01b03165afa80156111a75782915f91611162575b506001600160a01b031603610308576008545f526004602052600260405f205b0154421061103357610f30600854611312565b80600855805f52600460205260405f20906001820190815415610f66575b5050506008545f526004602052600260405f20610f1d565b825542905562093a8042018042116106015760028201555f60038201555f60048201556005810160ff198154169055602090600660405191610fa884846112a6565b5f83525f3681370181519167ffffffffffffffff83116105ed57600160401b83116105ed5783908254848455808510611007575b5001905f52825f20925f5b838110610ff5575050610f4e565b82518582015591810191600101610fe7565b835f528480845f20019103905f5b828110611023575050610fdc565b5f81830155879450600101611015565b6008545f52600460205260405f2091600683016101f4815410156111535760036007549461106086611312565b600755855f5281602052600760405f2087815560018101876001600160601b0360a01b82541617905585600282015588848201555f60048201558860058201556008546006820155016201000062ffffff19825416179055835f52600660205260405f20600160ff198254161790550190815492868401809411610601576020966111128760609481977f8774dcd6f347788be32bacb440fd662ba943bc006ab5f33a8c8517241e477ec59755611320565b855f52600588526111268560405f20611320565b60085490604051928352888301526040820152a360015f51602061142b5f395f51905f5255604051908152f35b637c2b823960e11b5f5260045ffd5b9150506020813d60201161119f575b8161117e602093836112a6565b8101031261014957516001600160a01b038116810361014957819085610efd565b3d9150611171565b6040513d5f823e3d90fd5b34610149576020366003190112610149576004355f526004602052610a2b610a1f600660405f20016112c8565b60206040818301928281528451809452019201905f5b8181106112025750505090565b82518452602093840193909201916001016111f5565b600435906001600160a01b038216820361014957565b6040906003190112610149576004359060243590565b8054821015611259575f5260205f2001905f90565b634e487b7160e01b5f52603260045260245ffd5b610140810190811067ffffffffffffffff8211176105ed57604052565b60e0810190811067ffffffffffffffff8211176105ed57604052565b90601f8019910116810190811067ffffffffffffffff8211176105ed57604052565b90604051918281549182825260208201905f5260205f20925f5b8181106112f95750506112f7925003836112a6565b565b84548352600194850194879450602090930192016112e2565b5f1981146106015760010190565b8054600160401b8110156105ed5761133d91600182018155611244565b819291549060031b91821b915f19901b1916179055565b9190820391821161060157565b6008545f526004602052600260405f2001548042101561138957611386904290611354565b90565b505f90565b600854805f526004602052600260405f2001544210156113ab5790565b600181018091116106015790565b5f52600360205260405f20600781015460ff8116159081156113e4575b506113895760040154151590565b60ff915060081c165f6113d6565b60025f51602061142b5f395f51905f52541461141b5760025f51602061142b5f395f51905f5255565b633ee5aeb560e01b5f5260045ffdfe9b779b17422d0df92223018b32b4d1fa46e071723d6817e2486d003becc55f00a26469706673582212201349b6b2a554a6968367e05a3f1b905f58b1f8d23bbe9e321ec04ce7accb6b3064736f6c63430008210033","linkReferences":{}},"methodIdentifiers":{"EPOCH_DURATION()":"a70b9f0c","MAX_REQUESTS_PER_EPOCH()":"b5b1fb54","cancelWithdrawal(uint256)":"3efcfda4","claimWithdrawal(uint256,uint256)":"f21340e4","currentEpoch()":"76671808","epochStartTime()":"f60ca641","epochs(uint256)":"c6b61e4c","factory()":"c45a0155","getCurrentEpoch()":"b97dd9e2","getEpoch(uint256)":"bc0bc6ba","getEpochRequests(uint256)":"0d1eab5d","getLenderRequests(address)":"94404b27","getWithdrawalRequest(uint256)":"ae485651","initialize(address,address,address)":"c0c53b8b","isWithdrawalReady(uint256)":"fe0a6436","lenderRequests(address,uint256)":"f8033d31","market()":"80f55605","nextRequestId()":"6a84a985","positionNFT()":"23228ecb","positionWithdrawalLocked(uint256)":"ac952d01","processEpoch(uint256,uint256)":"41e6434e","requestWithdrawal(address,uint256,uint256)":"115b512f","timeUntilEpochEnd()":"9ad4dad3","withdrawalRequests(uint256)":"937b2581"},"id":59}