{"abi":[{"type":"constructor","inputs":[{"name":"_feeRecipient","type":"address","internalType":"address"},{"name":"_deploymentFee","type":"uint256","internalType":"uint256"},{"name":"_marketImpl","type":"address","internalType":"address"},{"name":"_escrowImpl","type":"address","internalType":"address"},{"name":"_offerBookImpl","type":"address","internalType":"address"},{"name":"_liquidityQueueImpl","type":"address","internalType":"address"}],"stateMutability":"nonpayable"},{"type":"function","name":"archController","inputs":[],"outputs":[{"name":"","type":"address","internalType":"contract IRevvFiArchController"}],"stateMutability":"view"},{"type":"function","name":"archControllerUpdateTimelock","inputs":[],"outputs":[{"name":"","type":"uint256","internalType":"uint256"}],"stateMutability":"view"},{"type":"function","name":"cancelArchControllerUpdate","inputs":[],"outputs":[],"stateMutability":"nonpayable"},{"type":"function","name":"coreContractsSet","inputs":[],"outputs":[{"name":"","type":"bool","internalType":"bool"}],"stateMutability":"view"},{"type":"function","name":"deployMarket","inputs":[{"name":"borrower","type":"address","internalType":"address"},{"name":"borrowAsset","type":"address","internalType":"address"},{"name":"collateralAsset","type":"address","internalType":"address"},{"name":"collateralOracle","type":"address","internalType":"address"},{"name":"collateralDecimals","type":"uint8","internalType":"uint8"},{"name":"borrowDecimals","type":"uint8","internalType":"uint8"},{"name":"minCollateralRatio","type":"uint256","internalType":"uint256"},{"name":"liquidationThreshold","type":"uint256","internalType":"uint256"}],"outputs":[{"name":"marketAddress","type":"address","internalType":"address"}],"stateMutability":"payable"},{"type":"function","name":"deploymentFee","inputs":[],"outputs":[{"name":"","type":"uint256","internalType":"uint256"}],"stateMutability":"view"},{"type":"function","name":"escrowImpl","inputs":[],"outputs":[{"name":"","type":"address","internalType":"address"}],"stateMutability":"view"},{"type":"function","name":"executeArchControllerUpdate","inputs":[],"outputs":[],"stateMutability":"nonpayable"},{"type":"function","name":"feeRecipient","inputs":[],"outputs":[{"name":"","type":"address","internalType":"address"}],"stateMutability":"view"},{"type":"function","name":"liquidator","inputs":[],"outputs":[{"name":"","type":"address","internalType":"contract IRevvFiLiquidator"}],"stateMutability":"view"},{"type":"function","name":"liquidityQueueImpl","inputs":[],"outputs":[{"name":"","type":"address","internalType":"address"}],"stateMutability":"view"},{"type":"function","name":"marketImpl","inputs":[],"outputs":[{"name":"","type":"address","internalType":"address"}],"stateMutability":"view"},{"type":"function","name":"offerBookImpl","inputs":[],"outputs":[{"name":"","type":"address","internalType":"address"}],"stateMutability":"view"},{"type":"function","name":"owner","inputs":[],"outputs":[{"name":"","type":"address","internalType":"address"}],"stateMutability":"view"},{"type":"function","name":"pendingArchController","inputs":[],"outputs":[{"name":"","type":"address","internalType":"address"}],"stateMutability":"view"},{"type":"function","name":"positionNFT","inputs":[],"outputs":[{"name":"","type":"address","internalType":"contract IRevvFiPositionNFT"}],"stateMutability":"view"},{"type":"function","name":"registerWithArchController","inputs":[],"outputs":[],"stateMutability":"nonpayable"},{"type":"function","name":"renounceOwnership","inputs":[],"outputs":[],"stateMutability":"nonpayable"},{"type":"function","name":"reputationRegistry","inputs":[],"outputs":[{"name":"","type":"address","internalType":"contract IReputationRegistry"}],"stateMutability":"view"},{"type":"function","name":"requestArchControllerUpdate","inputs":[{"name":"newArchController","type":"address","internalType":"address"}],"outputs":[],"stateMutability":"nonpayable"},{"type":"function","name":"setCoreContracts","inputs":[{"name":"_archController","type":"address","internalType":"address"},{"name":"_positionNFT","type":"address","internalType":"address"},{"name":"_liquidator","type":"address","internalType":"address"},{"name":"_reputationRegistry","type":"address","internalType":"address"}],"outputs":[],"stateMutability":"nonpayable"},{"type":"function","name":"setDeploymentFee","inputs":[{"name":"newFee","type":"uint256","internalType":"uint256"}],"outputs":[],"stateMutability":"nonpayable"},{"type":"function","name":"setFeeRecipient","inputs":[{"name":"newRecipient","type":"address","internalType":"address"}],"outputs":[],"stateMutability":"nonpayable"},{"type":"function","name":"transferOwnership","inputs":[{"name":"newOwner","type":"address","internalType":"address"}],"outputs":[],"stateMutability":"nonpayable"},{"type":"event","name":"ArchControllerUpdateRequested","inputs":[{"name":"newArchController","type":"address","indexed":true,"internalType":"address"}],"anonymous":false},{"type":"event","name":"ArchControllerUpdated","inputs":[{"name":"oldArchController","type":"address","indexed":true,"internalType":"address"},{"name":"newArchController","type":"address","indexed":true,"internalType":"address"}],"anonymous":false},{"type":"event","name":"CoreContractsSet","inputs":[{"name":"archController","type":"address","indexed":false,"internalType":"address"},{"name":"positionNFT","type":"address","indexed":false,"internalType":"address"},{"name":"liquidator","type":"address","indexed":false,"internalType":"address"},{"name":"reputationRegistry","type":"address","indexed":false,"internalType":"address"}],"anonymous":false},{"type":"event","name":"FeeUpdated","inputs":[{"name":"oldFee","type":"uint256","indexed":false,"internalType":"uint256"},{"name":"newFee","type":"uint256","indexed":false,"internalType":"uint256"}],"anonymous":false},{"type":"event","name":"ImplementationsSet","inputs":[{"name":"market","type":"address","indexed":false,"internalType":"address"},{"name":"escrow","type":"address","indexed":false,"internalType":"address"},{"name":"offerBook","type":"address","indexed":false,"internalType":"address"},{"name":"liquidityQueue","type":"address","indexed":false,"internalType":"address"}],"anonymous":false},{"type":"event","name":"MarketDeployed","inputs":[{"name":"market","type":"address","indexed":true,"internalType":"address"},{"name":"borrower","type":"address","indexed":true,"internalType":"address"},{"name":"borrowAsset","type":"address","indexed":false,"internalType":"address"},{"name":"collateralAsset","type":"address","indexed":false,"internalType":"address"},{"name":"collateralOracle","type":"address","indexed":false,"internalType":"address"},{"name":"timestamp","type":"uint256","indexed":false,"internalType":"uint256"}],"anonymous":false},{"type":"event","name":"OwnershipTransferred","inputs":[{"name":"previousOwner","type":"address","indexed":true,"internalType":"address"},{"name":"newOwner","type":"address","indexed":true,"internalType":"address"}],"anonymous":false},{"type":"error","name":"AlreadyInitialized","inputs":[]},{"type":"error","name":"AssetBlacklisted","inputs":[]},{"type":"error","name":"BorrowerNotRegistered","inputs":[]},{"type":"error","name":"CollateralAboveMaximum","inputs":[]},{"type":"error","name":"CollateralBelowMinimum","inputs":[]},{"type":"error","name":"FailedDeployment","inputs":[]},{"type":"error","name":"FeeTransferFailed","inputs":[]},{"type":"error","name":"InsufficientBalance","inputs":[{"name":"balance","type":"uint256","internalType":"uint256"},{"name":"needed","type":"uint256","internalType":"uint256"}]},{"type":"error","name":"InsufficientFee","inputs":[]},{"type":"error","name":"InvalidLiquidationThreshold","inputs":[]},{"type":"error","name":"LiquidationThresholdTooHigh","inputs":[]},{"type":"error","name":"OwnableInvalidOwner","inputs":[{"name":"owner","type":"address","internalType":"address"}]},{"type":"error","name":"OwnableUnauthorizedAccount","inputs":[{"name":"account","type":"address","internalType":"address"}]},{"type":"error","name":"PendingArchControllerNotSet","inputs":[]},{"type":"error","name":"ReentrancyGuardReentrantCall","inputs":[]},{"type":"error","name":"SameAssetNotAllowed","inputs":[]},{"type":"error","name":"UnauthorizedCaller","inputs":[]},{"type":"error","name":"ZeroAddress","inputs":[]}],"bytecode":{"object":"0x6101003461024b57601f61175c38819003918201601f19168301916001600160401b0383118484101761024f5780849260c09460405283398101031261024b5761004881610263565b9060208101519161005b60408301610263565b9161006860608201610263565b9061008160a061007a60808401610263565b9201610263565b913315610238575f8054336001600160a01b0319821681178355604051969290916001600160a01b0316907f8be0079c531659141344cd1fd0a4f28419497f9722a3daafe3b4186f6b6457e09080a360017f9b779b17422d0df92223018b32b4d1fa46e071723d6817e2486d003becc55f00556001600160a01b03169485158015610227575b8015610216575b8015610205575b80156101f4575b6101e557600680546001600160a01b031916909617909555600595909555608084815260a086905260c082905260e08390526001600160a01b03948516845294841660208401528316604083015290911660608201527f3e3aac68f5d3430f5b97b6a6959dd13910b31907891cc9f6cd886dc0f92fcad19190a16040516114e490816102788239608051818181610884015261122d015260a05181818161013b01526108ae015260c0518181816102fb01526108d8015260e05181818161090201526113360152f35b63d92e233d60e01b5f5260045ffd5b506001600160a01b0384161561011c565b506001600160a01b03831615610115565b506001600160a01b0382161561010e565b506001600160a01b03811615610107565b631e4fbdf760e01b5f525f60045260245ffd5b5f80fd5b634e487b7160e01b5f52604160045260245ffd5b51906001600160a01b038216820361024b5756fe6080806040526004361015610012575f80fd5b5f905f3560e01c9081630619fd80146113655750806306a0809e1461132157806323228ecb146112f95780632c4f10a81461125c57806334eaeeb9146112185780634046ebae146111f057806341f259b81461110757806346904840146110de5780634ceb32121461065257806353cd2e4e1461062c578063546355701461060357806355692a9b146105d15780636bcb182314610477578063715018a61461041d5780637a87ba2a146103f45780637c42e9e7146103515780638da5cb5b1461032a578063b63d7114146102e5578063c8db44e3146102bc578063d002462b14610267578063e74b981b14610211578063f2cff57f146101f3578063f2fde38b1461016d5763fda25df414610126575f80fd5b3461016a578060031936011261016a576040517f00000000000000000000000000000000000000000000000000000000000000006001600160a01b03168152602090f35b80fd5b503461016a57602036600319011261016a5761018761137f565b61018f611425565b6001600160a01b031680156101df5781546001600160a01b03198116821783556001600160a01b03167f8be0079c531659141344cd1fd0a4f28419497f9722a3daafe3b4186f6b6457e08380a380f35b631e4fbdf760e01b82526004829052602482fd5b503461016a578060031936011261016a576020600554604051908152f35b503461016a57602036600319011261016a5761022b61137f565b610233611425565b6001600160a01b03168015610258576001600160601b0360a01b600654161760065580f35b63d92e233d60e01b8252600482fd5b503461016a57602036600319011261016a57600435610284611425565b7f528d9479e9f9889a87a3c30c7f7ba537e5e59c4c85a37733b16e57c62df6130260406005548151908152836020820152a160055580f35b503461016a578060031936011261016a576004546040516001600160a01b039091168152602090f35b503461016a578060031936011261016a576040517f00000000000000000000000000000000000000000000000000000000000000006001600160a01b03168152602090f35b503461016a578060031936011261016a57546040516001600160a01b039091168152602090f35b503461016a578060031936011261016a5761036a611425565b6007546001600160a01b0381169081156103e55760085442106103d657600180546001600160a01b03198082168517909255911660075560088390556001600160a01b03167f8ac25e96c75d72359112618e4d4afac224614406fb6752e217621405b65466218380a380f35b635c427cd960e01b8352600483fd5b633df73d2b60e01b8352600483fd5b503461016a578060031936011261016a576007546040516001600160a01b039091168152602090f35b503461016a578060031936011261016a57610436611425565b80546001600160a01b03198116825581906001600160a01b03167f8be0079c531659141344cd1fd0a4f28419497f9722a3daafe3b4186f6b6457e08280a380f35b503461016a57608036600319011261016a5761049161137f565b610499611395565b906104a26113ab565b6104aa6113c1565b906104b3611425565b6004549260ff8460a01c166105c3576001600160a01b031693841580156105b2575b80156105a1575b8015610590575b61058157600180546001600160a01b031990811687179091556002805482166001600160a01b03938416908117909155600380549092169383169384179091556001600160a81b03199094169216918217600160a01b176004556040805194855260208501939093529183019190915260608201527f99eef4ac36b4c1c37950298c3ce923328cd1265d785b522c2f562fd0db235d9a90608090a180f35b63d92e233d60e01b8652600486fd5b506001600160a01b038316156104e3565b506001600160a01b038216156104dc565b506001600160a01b038116156104d5565b62dc149f60e41b8652600486fd5b503461016a578060031936011261016a576105ea611425565b6001600160601b0360a01b600754166007558060085580f35b503461016a578060031936011261016a576001546040516001600160a01b039091168152602090f35b503461016a578060031936011261016a57602060ff60045460a01c166040519015158152f35b5061010036600319011261016a5761066861137f565b610670611395565b6106786113ab565b916106816113c1565b926084359060ff82168203610d9b5760a4359460ff86168603610ea75760027f9b779b17422d0df92223018b32b4d1fa46e071723d6817e2486d003becc55f0054146110cf5760027f9b779b17422d0df92223018b32b4d1fa46e071723d6817e2486d003becc55f005560ff60045460a01c16156110c057600554948534036110b2576001546040516303c3e0ff60e11b81526001600160a01b03878116600483015290911696906020816024818b5afa908115610fe2578a91611093575b5015611084576001600160a01b03828116979085168814611075576040516305800c6360e51b81526004810189905290602082602481845afa918215611049578b92611054575b508115610fed575b8115610f74575b50610f6557612af860c43510610f565761c35060c43511610f475760c4356101f3198101908111610f335760e4351015610f2457606460e435108015610f16575b610f085760065489918291829182916001600160a01b03165af13d15610f03573d67ffffffffffffffff8111610eef576040519061081f601f8201601f1916602001836113d7565b81528960203d92013e5b15610ee057600454889291906001600160a01b0316803b15610e35576040516355d6ba1360e11b81526001600160a01b03881660048201529084908290602490829084905af1908115610e11578491610ecb575b50506108a87f000000000000000000000000000000000000000000000000000000000000000061144b565b976108d27f000000000000000000000000000000000000000000000000000000000000000061144b565b916108fc7f000000000000000000000000000000000000000000000000000000000000000061144b565b936109267f000000000000000000000000000000000000000000000000000000000000000061144b565b6002549093906001600160a01b0316803b15610e8e5760405163a79b9ec960e01b81526001600160a01b038e1660048201529088908290602490829084905af1908115610eab578891610eb6575b50506001546001600160a01b03908116908d163b15610e8e57604051630a2ca2bd60e11b81523060048201526001600160a01b039182166024820152818c1660448201528185166064820152908916608482015287818e81838160a4810103926001600160a01b03165af1908115610eab578891610e92575b50506001600160a01b03851691823b15610e8e576040516355d511ff60e01b81523060048201526001600160a01b03808f166024830152808d166044830152606482018e90528a8116608483015290911660a4820181905260ff9a8b1660c48301529990911660e482015286816101048183865af1908115610d9f578791610e79575b5050803b15610d9b57604051633853627560e01b815260c4356004820152868160248183865af1908115610d9f578791610e64575b5050803b15610d9b57858091602460405180948193636858640b60e11b835260e43560048401525af1908115610e59578691610e44575b50506001600160a01b038416803b15610d9b5760405163c0c53b8b60e01b81523060048201526001600160a01b038c8116602483015292909216604483015285908290606490829084905af1908115610e39578591610e20575b50506002546001600160a01b039081169116803b15610e1c5760405163c0c53b8b60e01b81523060048201526001600160a01b038b8116602483015292909216604483015284908290606490829084905af1908115610e11578491610df8575b50506002546003546004546001600160a01b039283169490831693909290918116908b163b15610d9b5760405163f63bf8bd60e01b81526001600160a01b0392831660048201529282166024840152938116604483015292831660648201529116608482015281818060a481010381836001600160a01b038c165af18015610dc357610de3575b506004546001600160a01b0316803b15610daa5760405163a79b9ec960e01b81526001600160a01b03881660048201529082908290602490829084905af18015610dc357610dce575b506003546001600160a01b0316803b15610daa5760405163a79b9ec960e01b81526001600160a01b03881660048201529082908290602490829084905af18015610dc357610dae575b506001546001600160a01b0316803b15610daa5760405163a79b9ec960e01b81526001600160a01b038816600482015291908290602490829084905af18015610d9f57610d86575b506020955060405193845260018060a01b031685840152604083015242606083015260018060a01b0316907f2a0868e27f2ca98edb604e5b84448b5e960e6eb8da3a6fb2dd4692f980549c1d608060018060a01b03851692a360017f9b779b17422d0df92223018b32b4d1fa46e071723d6817e2486d003becc55f00556040516001600160a01b039091168152f35b610d918780926113d7565b610d9b5785610cf7565b8580fd5b6040513d89823e3d90fd5b5080fd5b81610db8916113d7565b610d9b57855f610caf565b6040513d84823e3d90fd5b81610dd8916113d7565b610d9b57855f610c66565b81610ded916113d7565b610d9b57855f610c1d565b81610e02916113d7565b610e0d57825f610b96565b8280fd5b6040513d86823e3d90fd5b8480fd5b81610e2a916113d7565b610e3557835f610b36565b8380fd5b6040513d87823e3d90fd5b81610e4e916113d7565b610e1c57845f610adc565b6040513d88823e3d90fd5b81610e6e916113d7565b610d9b57855f610aa5565b81610e83916113d7565b610d9b57855f610a70565b8780fd5b81610e9c916113d7565b610ea757865f6109ed565b8680fd5b6040513d8a823e3d90fd5b81610ec0916113d7565b610ea757865f610974565b81610ed5916113d7565b610e0d57825f61087d565b634033e4e360e01b8852600488fd5b634e487b7160e01b8a52604160045260248afd5b610829565b62f9474b60e61b8952600489fd5b5061271060e43510156107d7565b6315f85eb560e01b8952600489fd5b634e487b7160e01b8a52601160045260248afd5b632fd4f2e360e21b8952600489fd5b6339ab046560e11b8952600489fd5b634742664560e01b8952600489fd5b6040516305800c6360e51b81526001600160a01b03861660048201529150602090829060249082905afa908115610fe2578a91610fb3575b505f610796565b610fd5915060203d602011610fdb575b610fcd81836113d7565b81019061140d565b5f610fac565b503d610fc3565b6040513d8c823e3d90fd5b6040516305800c6360e51b81526001600160a01b0387166004820152909150602081602481855afa908115611049578b9161102a575b509061078f565b611043915060203d602011610fdb57610fcd81836113d7565b5f611023565b6040513d8d823e3d90fd5b61106e91925060203d602011610fdb57610fcd81836113d7565b905f610787565b63310748a160e21b8a5260048afd5b63936ea59360e01b8952600489fd5b6110ac915060203d602011610fdb57610fcd81836113d7565b5f610740565b62976f7560e21b8852600488fd5b635c427cd960e01b8752600487fd5b633ee5aeb560e01b8752600487fd5b503461016a578060031936011261016a576006546040516001600160a01b039091168152602090f35b50346111dd575f3660031901126111dd57611120611425565b60ff60045460a01c16156111e1576001546001600160a01b0316803b156111dd575f80916024604051809481936306d3d44b60e21b83523060048401525af180156111d2576111bf575b5060015481906001600160a01b0316803b156111bc57818091602460405180948193636c8d746160e11b83523060048401525af18015610dc3576111ab5750f35b816111b5916113d7565b61016a5780f35b50fd5b6111cb91505f906113d7565b5f5f61116a565b6040513d5f823e3d90fd5b5f80fd5b635c427cd960e01b5f5260045ffd5b346111dd575f3660031901126111dd576003546040516001600160a01b039091168152602090f35b346111dd575f3660031901126111dd576040517f00000000000000000000000000000000000000000000000000000000000000006001600160a01b03168152602090f35b346111dd5760203660031901126111dd5761127561137f565b61127d611425565b6001600160a01b031680156112ea57806001600160601b0360a01b60075416176007556202a30042018042116112d6576008557f17df3b3106fc9beeb88a854ef5935fbb1ae165cbb2169be6a83702c85a38144e5f80a2005b634e487b7160e01b5f52601160045260245ffd5b63d92e233d60e01b5f5260045ffd5b346111dd575f3660031901126111dd576002546040516001600160a01b039091168152602090f35b346111dd575f3660031901126111dd576040517f00000000000000000000000000000000000000000000000000000000000000006001600160a01b03168152602090f35b346111dd575f3660031901126111dd576020906008548152f35b600435906001600160a01b03821682036111dd57565b602435906001600160a01b03821682036111dd57565b604435906001600160a01b03821682036111dd57565b606435906001600160a01b03821682036111dd57565b90601f8019910116810190811067ffffffffffffffff8211176113f957604052565b634e487b7160e01b5f52604160045260245ffd5b908160209103126111dd575180151581036111dd5790565b5f546001600160a01b0316330361143857565b63118cdaa760e01b5f523360045260245ffd5b6e5af43d82803e903d91602b57fd5bf390763d602d80600a3d3981f3363d3d373d3d3d363d7300000062ffffff8260881c16175f5260781b17602052603760095ff0906001600160a01b0382161561149f57565b63b06ebf3d60e01b5f5260045ffdfea264697066735822122042fe2d9493ba584654205d245ee39a58b9a66741fa8ed09647040e39c7accdba64736f6c63430008210033","linkReferences":{}},"methodIdentifiers":{"archController()":"54635570","archControllerUpdateTimelock()":"0619fd80","cancelArchControllerUpdate()":"55692a9b","coreContractsSet()":"53cd2e4e","deployMarket(address,address,address,address,uint8,uint8,uint256,uint256)":"4ceb3212","deploymentFee()":"f2cff57f","escrowImpl()":"fda25df4","executeArchControllerUpdate()":"7c42e9e7","feeRecipient()":"46904840","liquidator()":"4046ebae","liquidityQueueImpl()":"06a0809e","marketImpl()":"34eaeeb9","offerBookImpl()":"b63d7114","owner()":"8da5cb5b","pendingArchController()":"7a87ba2a","positionNFT()":"23228ecb","registerWithArchController()":"41f259b8","renounceOwnership()":"715018a6","reputationRegistry()":"c8db44e3","requestArchControllerUpdate(address)":"2c4f10a8","setCoreContracts(address,address,address,address)":"6bcb1823","setDeploymentFee(uint256)":"d002462b","setFeeRecipient(address)":"e74b981b","transferOwnership(address)":"f2fde38b"},"id":57}