{"abi":[{"type":"constructor","inputs":[{"name":"_factory","type":"address","internalType":"address"}],"stateMutability":"nonpayable"},{"type":"function","name":"approvedMarkets","inputs":[{"name":"","type":"address","internalType":"address"}],"outputs":[{"name":"","type":"bool","internalType":"bool"}],"stateMutability":"view"},{"type":"function","name":"borrowerProfiles","inputs":[{"name":"","type":"address","internalType":"address"}],"outputs":[{"name":"borrower","type":"address","internalType":"address"},{"name":"totalBorrowed","type":"uint256","internalType":"uint256"},{"name":"totalRepaid","type":"uint256","internalType":"uint256"},{"name":"successfulLoans","type":"uint256","internalType":"uint256"},{"name":"defaultedLoans","type":"uint256","internalType":"uint256"},{"name":"reputationScore","type":"uint256","internalType":"uint256"},{"name":"lastUpdateTime","type":"uint256","internalType":"uint256"}],"stateMutability":"view"},{"type":"function","name":"factory","inputs":[],"outputs":[{"name":"","type":"address","internalType":"address"}],"stateMutability":"view"},{"type":"function","name":"getBorrowerProfile","inputs":[{"name":"borrower","type":"address","internalType":"address"}],"outputs":[{"name":"","type":"tuple","internalType":"struct IReputationRegistry.BorrowerProfile","components":[{"name":"borrower","type":"address","internalType":"address"},{"name":"totalBorrowed","type":"uint256","internalType":"uint256"},{"name":"totalRepaid","type":"uint256","internalType":"uint256"},{"name":"successfulLoans","type":"uint256","internalType":"uint256"},{"name":"defaultedLoans","type":"uint256","internalType":"uint256"},{"name":"reputationScore","type":"uint256","internalType":"uint256"},{"name":"lastUpdateTime","type":"uint256","internalType":"uint256"}]}],"stateMutability":"view"},{"type":"function","name":"getReputationScore","inputs":[{"name":"borrower","type":"address","internalType":"address"}],"outputs":[{"name":"","type":"uint256","internalType":"uint256"}],"stateMutability":"view"},{"type":"function","name":"getRiskLabel","inputs":[{"name":"borrower","type":"address","internalType":"address"}],"outputs":[{"name":"","type":"uint8","internalType":"enum IReputationRegistry.RiskLabel"}],"stateMutability":"view"},{"type":"function","name":"isBorrowerRegistered","inputs":[{"name":"borrower","type":"address","internalType":"address"}],"outputs":[{"name":"","type":"bool","internalType":"bool"}],"stateMutability":"view"},{"type":"function","name":"owner","inputs":[],"outputs":[{"name":"","type":"address","internalType":"address"}],"stateMutability":"view"},{"type":"function","name":"recordBorrowActivity","inputs":[{"name":"borrower","type":"address","internalType":"address"},{"name":"borrowAmount","type":"uint256","internalType":"uint256"}],"outputs":[],"stateMutability":"nonpayable"},{"type":"function","name":"recordDefault","inputs":[{"name":"borrower","type":"address","internalType":"address"},{"name":"originalDebt","type":"uint256","internalType":"uint256"},{"name":"recoveredAmount","type":"uint256","internalType":"uint256"}],"outputs":[],"stateMutability":"nonpayable"},{"type":"function","name":"recordSuccessfulRepayment","inputs":[{"name":"borrower","type":"address","internalType":"address"},{"name":"repaidAmount","type":"uint256","internalType":"uint256"}],"outputs":[],"stateMutability":"nonpayable"},{"type":"function","name":"registerBorrower","inputs":[{"name":"borrower","type":"address","internalType":"address"}],"outputs":[],"stateMutability":"nonpayable"},{"type":"function","name":"registerMarket","inputs":[{"name":"market","type":"address","internalType":"address"}],"outputs":[],"stateMutability":"nonpayable"},{"type":"function","name":"registeredBorrowers","inputs":[{"name":"","type":"address","internalType":"address"}],"outputs":[{"name":"","type":"bool","internalType":"bool"}],"stateMutability":"view"},{"type":"function","name":"renounceOwnership","inputs":[],"outputs":[],"stateMutability":"nonpayable"},{"type":"function","name":"transferOwnership","inputs":[{"name":"newOwner","type":"address","internalType":"address"}],"outputs":[],"stateMutability":"nonpayable"},{"type":"event","name":"BorrowActivityRecorded","inputs":[{"name":"borrower","type":"address","indexed":true,"internalType":"address"},{"name":"amount","type":"uint256","indexed":false,"internalType":"uint256"}],"anonymous":false},{"type":"event","name":"BorrowerRegistered","inputs":[{"name":"borrower","type":"address","indexed":true,"internalType":"address"}],"anonymous":false},{"type":"event","name":"DefaultRecorded","inputs":[{"name":"borrower","type":"address","indexed":true,"internalType":"address"},{"name":"originalDebt","type":"uint256","indexed":false,"internalType":"uint256"},{"name":"recoveredAmount","type":"uint256","indexed":false,"internalType":"uint256"}],"anonymous":false},{"type":"event","name":"OwnershipTransferred","inputs":[{"name":"previousOwner","type":"address","indexed":true,"internalType":"address"},{"name":"newOwner","type":"address","indexed":true,"internalType":"address"}],"anonymous":false},{"type":"event","name":"ReputationScoreUpdated","inputs":[{"name":"borrower","type":"address","indexed":true,"internalType":"address"},{"name":"oldScore","type":"uint256","indexed":false,"internalType":"uint256"},{"name":"newScore","type":"uint256","indexed":false,"internalType":"uint256"}],"anonymous":false},{"type":"event","name":"SuccessfulRepaymentRecorded","inputs":[{"name":"borrower","type":"address","indexed":true,"internalType":"address"},{"name":"amount","type":"uint256","indexed":false,"internalType":"uint256"}],"anonymous":false},{"type":"error","name":"BorrowerAlreadyExists","inputs":[]},{"type":"error","name":"BorrowerNotRegistered","inputs":[]},{"type":"error","name":"OwnableInvalidOwner","inputs":[{"name":"owner","type":"address","internalType":"address"}]},{"type":"error","name":"OwnableUnauthorizedAccount","inputs":[{"name":"account","type":"address","internalType":"address"}]},{"type":"error","name":"ReentrancyGuardReentrantCall","inputs":[]},{"type":"error","name":"UnauthorizedCaller","inputs":[]},{"type":"error","name":"ZeroAddress","inputs":[]}],"bytecode":{"object":"0x60a03461012557601f610ce838819003918201601f19168301916001600160401b038311848410176101295780849260209460405283398101031261012557516001600160a01b03811690818103610125573315610112575f8054336001600160a01b0319821681178355604051949290916001600160a01b0316907f8be0079c531659141344cd1fd0a4f28419497f9722a3daafe3b4186f6b6457e09080a360017f9b779b17422d0df92223018b32b4d1fa46e071723d6817e2486d003becc55f00551561010357608052610baa908161013e82396080518181816101af0152818161031c01528181610366015281816104b80152818161073801526109910152f35b63d92e233d60e01b5f5260045ffd5b631e4fbdf760e01b5f525f60045260245ffd5b5f80fd5b634e487b7160e01b5f52604160045260245ffdfe60806040526004361015610011575f80fd5b5f3560e01c806323d3b7e1146108e457806335f48ce0146107675780636513b436146108a75780636949000c14610826578063715018a6146107cf57806375a67d5c146107a457806379d335b414610767578063814864881461063357806387333404146105365780638da5cb5b1461050f578063a79b9ec91461049d578063abad74261461034b578063c15f6fd6146101de578063c45a01551461019a578063e752939a146101525763f2fde38b146100c9575f80fd5b3461014e57602036600319011261014e576100e26109c0565b6100ea610ace565b6001600160a01b0316801561013b575f80546001600160a01b03198116831782556001600160a01b0316907f8be0079c531659141344cd1fd0a4f28419497f9722a3daafe3b4186f6b6457e09080a3005b631e4fbdf760e01b5f525f60045260245ffd5b5f80fd5b3461014e57602036600319011261014e5761017361016e6109c0565b610a4d565b6040516007821015610186576020918152f35b634e487b7160e01b5f52602160045260245ffd5b3461014e575f36600319011261014e576040517f00000000000000000000000000000000000000000000000000000000000000006001600160a01b03168152602090f35b3461014e57606036600319011261014e576101f76109c0565b60443590335f52600160205260ff60405f2054161580610318575b610309576001600160a01b03165f8181526003602052604090205490919060ff16156102fa57815f52600260205260405f206004810190815492600184018094116102e6577ffef3709455ce9b0555e39289c78f517f754919ba4d6a105faa00ccb4417e418993604093556002820161028c8282546109d6565b9055847f9989a0beb5437893570946e32441aff01c275c6572ad5981654c6a0b79e238488460058501938454956102c281610af4565b80965560064291015581519060243582526020820152a282519182526020820152a2005b634e487b7160e01b5f52601160045260245ffd5b63936ea59360e01b5f5260045ffd5b635c427cd960e01b5f5260045ffd5b50337f00000000000000000000000000000000000000000000000000000000000000006001600160a01b03161415610212565b3461014e57602036600319011261014e576103646109c0565b7f00000000000000000000000000000000000000000000000000000000000000006001600160a01b03163303610309576001600160a01b0316801561048e57805f52600360205260ff60405f20541661047f576103bf610a19565b8181526006602082015f8152604083015f8152606084015f815260808501905f825260a08601926101f4845260c0870194428652885f52600260205260405f209760018060a01b039051166bffffffffffffffffffffffff60a01b89541617885551600188015551600287015551600386015551600485015551600584015551910155805f52600360205260405f20600160ff198254161790557f57c3b463895a0da2fe39978165ab8b71864d9225a91dd3bda7184006e52cdd0c5f80a2005b6312635b0b60e21b5f5260045ffd5b63d92e233d60e01b5f5260045ffd5b3461014e57602036600319011261014e576104b66109c0565b7f00000000000000000000000000000000000000000000000000000000000000006001600160a01b03163303610309576001600160a01b0316801561048e575f52600160205260405f20600160ff198254161790555f80f35b3461014e575f36600319011261014e575f546040516001600160a01b039091168152602090f35b3461014e57602036600319011261014e5761054f6109c0565b5f60c061055a610a19565b8281528260208201528260408201528260608201528260808201528260a0820152015260018060a01b0316805f52600360205260ff60405f205416156102fa575f52600260205260e060405f206105af610a19565b60018060a01b0382541691828252600181015460208301908152600282015460408401908152600383015490606085019182526004840154926080860193845260c0600660058701549660a08901978852015496019586526040519687525160208701525160408601525160608501525160808401525160a08301525160c0820152f35b3461014e57604036600319011261014e5761064c6109c0565b60243590335f52600160205260ff60405f2054161580610734575b610309576001600160a01b03165f8181526003602052604090205490919060ff16156102fa57815f52600260205260405f20600281016106a88382546109d6565b90556003810190815492600184018094116102e6577ffef3709455ce9b0555e39289c78f517f754919ba4d6a105faa00ccb4417e41899360409355847f5fa8b5b1d0e8a192bd39abc8b925749c1715d8b23930736831a92ba18e840fa86020600585019384549561071881610af4565b8096556006429101558651908152a282519182526020820152a2005b50337f00000000000000000000000000000000000000000000000000000000000000006001600160a01b03161415610667565b3461014e57602036600319011261014e576001600160a01b036107886109c0565b165f526003602052602060ff60405f2054166040519015158152f35b3461014e57602036600319011261014e5760206107c76107c26109c0565b6109e3565b604051908152f35b3461014e575f36600319011261014e576107e7610ace565b5f80546001600160a01b0319811682556001600160a01b03167f8be0079c531659141344cd1fd0a4f28419497f9722a3daafe3b4186f6b6457e08280a3005b3461014e57602036600319011261014e576001600160a01b036108476109c0565b165f52600260205260e060405f2060018060a01b0381541690600181015490600281015460038201546004830154916006600585015494015494604051968752602087015260408601526060850152608084015260a083015260c0820152f35b3461014e57602036600319011261014e576001600160a01b036108c86109c0565b165f526001602052602060ff60405f2054166040519015158152f35b3461014e57604036600319011261014e576108fd6109c0565b60243590335f52600160205260ff60405f205416158061098d575b610309576001600160a01b03165f8181526003602052604090205490919060ff16156102fa5760207feaecf6e2c9e155bc699c347a9cc32dc7f1a32b9dc13be3e631dc48ab78521c6a91835f526002825260405f206001810161097c8382546109d6565b9055600642910155604051908152a2005b50337f00000000000000000000000000000000000000000000000000000000000000006001600160a01b03161415610918565b600435906001600160a01b038216820361014e57565b919082018092116102e657565b6001600160a01b03165f8181526003602052604090205460ff1615610a14575f526002602052600560405f20015490565b505f90565b6040519060e0820182811067ffffffffffffffff821117610a3957604052565b634e487b7160e01b5f52604160045260245ffd5b6001600160a01b03165f8181526003602052604090205460ff1615610ac8575f526002602052600560405f200154610384811015610a1457610320811015610ac2576102bc811015610abc576101f4811015610ab65761012c1115610ab157600590565b600490565b50600390565b50600290565b50600190565b50600690565b5f546001600160a01b03163303610ae157565b63118cdaa760e01b5f523360045260245ffd5b6004600382015491015490610b0982826109d6565b908115610b6b576103e88102908082046103e814901517156102e657046032820291808304603214901517156102e6575f82820392128183128116918313901516176102e6575f811315610a14576103e8811215610b645790565b506103e890565b5050506101f49056fea2646970667358221220504792df5071aa7c1f6265cca84d41ca2df2018de433b50d4b23b4dfb2b08f0764736f6c63430008210033","linkReferences":{}},"methodIdentifiers":{"approvedMarkets(address)":"6513b436","borrowerProfiles(address)":"6949000c","factory()":"c45a0155","getBorrowerProfile(address)":"87333404","getReputationScore(address)":"75a67d5c","getRiskLabel(address)":"e752939a","isBorrowerRegistered(address)":"79d335b4","owner()":"8da5cb5b","recordBorrowActivity(address,uint256)":"23d3b7e1","recordDefault(address,uint256,uint256)":"c15f6fd6","recordSuccessfulRepayment(address,uint256)":"81486488","registerBorrower(address)":"abad7426","registerMarket(address)":"a79b9ec9","registeredBorrowers(address)":"35f48ce0","renounceOwnership()":"715018a6","transferOwnership(address)":"f2fde38b"},"id":54}