{"abi":[{"type":"constructor","inputs":[{"name":"_factory","type":"address","internalType":"address"}],"stateMutability":"nonpayable"},{"type":"function","name":"TOKEN_NAME","inputs":[],"outputs":[{"name":"","type":"string","internalType":"string"}],"stateMutability":"view"},{"type":"function","name":"TOKEN_SYMBOL","inputs":[],"outputs":[{"name":"","type":"string","internalType":"string"}],"stateMutability":"view"},{"type":"function","name":"approve","inputs":[{"name":"to","type":"address","internalType":"address"},{"name":"tokenId","type":"uint256","internalType":"uint256"}],"outputs":[],"stateMutability":"nonpayable"},{"type":"function","name":"approvedMarkets","inputs":[{"name":"","type":"address","internalType":"address"}],"outputs":[{"name":"","type":"bool","internalType":"bool"}],"stateMutability":"view"},{"type":"function","name":"balanceOf","inputs":[{"name":"owner","type":"address","internalType":"address"}],"outputs":[{"name":"","type":"uint256","internalType":"uint256"}],"stateMutability":"view"},{"type":"function","name":"factory","inputs":[],"outputs":[{"name":"","type":"address","internalType":"address"}],"stateMutability":"view"},{"type":"function","name":"getActivePositionCount","inputs":[{"name":"lender","type":"address","internalType":"address"}],"outputs":[{"name":"","type":"uint256","internalType":"uint256"}],"stateMutability":"view"},{"type":"function","name":"getApproved","inputs":[{"name":"tokenId","type":"uint256","internalType":"uint256"}],"outputs":[{"name":"","type":"address","internalType":"address"}],"stateMutability":"view"},{"type":"function","name":"getLenderByTokenId","inputs":[{"name":"tokenId","type":"uint256","internalType":"uint256"}],"outputs":[{"name":"","type":"address","internalType":"address"}],"stateMutability":"view"},{"type":"function","name":"getLenderPositions","inputs":[{"name":"lender","type":"address","internalType":"address"}],"outputs":[{"name":"","type":"uint256[]","internalType":"uint256[]"}],"stateMutability":"view"},{"type":"function","name":"getPosition","inputs":[{"name":"tokenId","type":"uint256","internalType":"uint256"}],"outputs":[{"name":"","type":"tuple","internalType":"struct RevvFiPositionNFT.Position","components":[{"name":"tokenId","type":"uint256","internalType":"uint256"},{"name":"market","type":"address","internalType":"address"},{"name":"principal","type":"uint256","internalType":"uint256"},{"name":"apr","type":"uint256","internalType":"uint256"},{"name":"seniority","type":"uint8","internalType":"uint8"},{"name":"startTime","type":"uint256","internalType":"uint256"},{"name":"active","type":"bool","internalType":"bool"},{"name":"isSenior","type":"bool","internalType":"bool"}]}],"stateMutability":"view"},{"type":"function","name":"getPositionMetadata","inputs":[{"name":"tokenId","type":"uint256","internalType":"uint256"}],"outputs":[{"name":"name","type":"string","internalType":"string"},{"name":"description","type":"string","internalType":"string"},{"name":"image","type":"string","internalType":"string"},{"name":"attributes","type":"string","internalType":"string"}],"stateMutability":"view"},{"type":"function","name":"isApprovedForAll","inputs":[{"name":"owner","type":"address","internalType":"address"},{"name":"operator","type":"address","internalType":"address"}],"outputs":[{"name":"","type":"bool","internalType":"bool"}],"stateMutability":"view"},{"type":"function","name":"isPositionActive","inputs":[{"name":"tokenId","type":"uint256","internalType":"uint256"}],"outputs":[{"name":"","type":"bool","internalType":"bool"}],"stateMutability":"view"},{"type":"function","name":"lenderPositionIndex","inputs":[{"name":"","type":"address","internalType":"address"},{"name":"","type":"uint256","internalType":"uint256"}],"outputs":[{"name":"","type":"uint256","internalType":"uint256"}],"stateMutability":"view"},{"type":"function","name":"lenderPositions","inputs":[{"name":"","type":"address","internalType":"address"},{"name":"","type":"uint256","internalType":"uint256"}],"outputs":[{"name":"","type":"uint256","internalType":"uint256"}],"stateMutability":"view"},{"type":"function","name":"mintPosition","inputs":[{"name":"lender","type":"address","internalType":"address"},{"name":"market","type":"address","internalType":"address"},{"name":"principal","type":"uint256","internalType":"uint256"},{"name":"apr","type":"uint256","internalType":"uint256"},{"name":"seniority","type":"uint8","internalType":"uint8"}],"outputs":[{"name":"tokenId","type":"uint256","internalType":"uint256"}],"stateMutability":"nonpayable"},{"type":"function","name":"name","inputs":[],"outputs":[{"name":"","type":"string","internalType":"string"}],"stateMutability":"view"},{"type":"function","name":"owner","inputs":[],"outputs":[{"name":"","type":"address","internalType":"address"}],"stateMutability":"view"},{"type":"function","name":"ownerOf","inputs":[{"name":"tokenId","type":"uint256","internalType":"uint256"}],"outputs":[{"name":"","type":"address","internalType":"address"}],"stateMutability":"view"},{"type":"function","name":"positions","inputs":[{"name":"","type":"uint256","internalType":"uint256"}],"outputs":[{"name":"tokenId","type":"uint256","internalType":"uint256"},{"name":"market","type":"address","internalType":"address"},{"name":"principal","type":"uint256","internalType":"uint256"},{"name":"apr","type":"uint256","internalType":"uint256"},{"name":"seniority","type":"uint8","internalType":"uint8"},{"name":"startTime","type":"uint256","internalType":"uint256"},{"name":"active","type":"bool","internalType":"bool"},{"name":"isSenior","type":"bool","internalType":"bool"}],"stateMutability":"view"},{"type":"function","name":"redeemPosition","inputs":[{"name":"tokenId","type":"uint256","internalType":"uint256"}],"outputs":[],"stateMutability":"nonpayable"},{"type":"function","name":"registerMarket","inputs":[{"name":"market","type":"address","internalType":"address"}],"outputs":[],"stateMutability":"nonpayable"},{"type":"function","name":"renounceOwnership","inputs":[],"outputs":[],"stateMutability":"nonpayable"},{"type":"function","name":"safeTransferFrom","inputs":[{"name":"from","type":"address","internalType":"address"},{"name":"to","type":"address","internalType":"address"},{"name":"tokenId","type":"uint256","internalType":"uint256"}],"outputs":[],"stateMutability":"nonpayable"},{"type":"function","name":"safeTransferFrom","inputs":[{"name":"from","type":"address","internalType":"address"},{"name":"to","type":"address","internalType":"address"},{"name":"tokenId","type":"uint256","internalType":"uint256"},{"name":"data","type":"bytes","internalType":"bytes"}],"outputs":[],"stateMutability":"nonpayable"},{"type":"function","name":"setApprovalForAll","inputs":[{"name":"operator","type":"address","internalType":"address"},{"name":"approved","type":"bool","internalType":"bool"}],"outputs":[],"stateMutability":"nonpayable"},{"type":"function","name":"setBaseURI","inputs":[{"name":"baseURI","type":"string","internalType":"string"}],"outputs":[],"stateMutability":"nonpayable"},{"type":"function","name":"supportsInterface","inputs":[{"name":"interfaceId","type":"bytes4","internalType":"bytes4"}],"outputs":[{"name":"","type":"bool","internalType":"bool"}],"stateMutability":"view"},{"type":"function","name":"symbol","inputs":[],"outputs":[{"name":"","type":"string","internalType":"string"}],"stateMutability":"view"},{"type":"function","name":"tokenByIndex","inputs":[{"name":"index","type":"uint256","internalType":"uint256"}],"outputs":[{"name":"","type":"uint256","internalType":"uint256"}],"stateMutability":"view"},{"type":"function","name":"tokenOfOwnerByIndex","inputs":[{"name":"owner","type":"address","internalType":"address"},{"name":"index","type":"uint256","internalType":"uint256"}],"outputs":[{"name":"","type":"uint256","internalType":"uint256"}],"stateMutability":"view"},{"type":"function","name":"tokenURI","inputs":[{"name":"tokenId","type":"uint256","internalType":"uint256"}],"outputs":[{"name":"","type":"string","internalType":"string"}],"stateMutability":"view"},{"type":"function","name":"totalSupply","inputs":[],"outputs":[{"name":"","type":"uint256","internalType":"uint256"}],"stateMutability":"view"},{"type":"function","name":"transferFrom","inputs":[{"name":"from","type":"address","internalType":"address"},{"name":"to","type":"address","internalType":"address"},{"name":"tokenId","type":"uint256","internalType":"uint256"}],"outputs":[],"stateMutability":"nonpayable"},{"type":"function","name":"transferOwnership","inputs":[{"name":"newOwner","type":"address","internalType":"address"}],"outputs":[],"stateMutability":"nonpayable"},{"type":"function","name":"unregisterMarket","inputs":[{"name":"market","type":"address","internalType":"address"}],"outputs":[],"stateMutability":"nonpayable"},{"type":"event","name":"Approval","inputs":[{"name":"owner","type":"address","indexed":true,"internalType":"address"},{"name":"approved","type":"address","indexed":true,"internalType":"address"},{"name":"tokenId","type":"uint256","indexed":true,"internalType":"uint256"}],"anonymous":false},{"type":"event","name":"ApprovalForAll","inputs":[{"name":"owner","type":"address","indexed":true,"internalType":"address"},{"name":"operator","type":"address","indexed":true,"internalType":"address"},{"name":"approved","type":"bool","indexed":false,"internalType":"bool"}],"anonymous":false},{"type":"event","name":"MarketRegistered","inputs":[{"name":"market","type":"address","indexed":true,"internalType":"address"}],"anonymous":false},{"type":"event","name":"MarketUnregistered","inputs":[{"name":"market","type":"address","indexed":true,"internalType":"address"}],"anonymous":false},{"type":"event","name":"OwnershipTransferred","inputs":[{"name":"previousOwner","type":"address","indexed":true,"internalType":"address"},{"name":"newOwner","type":"address","indexed":true,"internalType":"address"}],"anonymous":false},{"type":"event","name":"PositionMinted","inputs":[{"name":"tokenId","type":"uint256","indexed":true,"internalType":"uint256"},{"name":"lender","type":"address","indexed":true,"internalType":"address"},{"name":"market","type":"address","indexed":true,"internalType":"address"},{"name":"principal","type":"uint256","indexed":false,"internalType":"uint256"},{"name":"apr","type":"uint256","indexed":false,"internalType":"uint256"},{"name":"seniority","type":"uint8","indexed":false,"internalType":"uint8"}],"anonymous":false},{"type":"event","name":"PositionRedeemed","inputs":[{"name":"tokenId","type":"uint256","indexed":true,"internalType":"uint256"},{"name":"principalAmount","type":"uint256","indexed":false,"internalType":"uint256"},{"name":"interestAmount","type":"uint256","indexed":false,"internalType":"uint256"}],"anonymous":false},{"type":"event","name":"Transfer","inputs":[{"name":"from","type":"address","indexed":true,"internalType":"address"},{"name":"to","type":"address","indexed":true,"internalType":"address"},{"name":"tokenId","type":"uint256","indexed":true,"internalType":"uint256"}],"anonymous":false},{"type":"error","name":"ERC721EnumerableForbiddenBatchMint","inputs":[]},{"type":"error","name":"ERC721IncorrectOwner","inputs":[{"name":"sender","type":"address","internalType":"address"},{"name":"tokenId","type":"uint256","internalType":"uint256"},{"name":"owner","type":"address","internalType":"address"}]},{"type":"error","name":"ERC721InsufficientApproval","inputs":[{"name":"operator","type":"address","internalType":"address"},{"name":"tokenId","type":"uint256","internalType":"uint256"}]},{"type":"error","name":"ERC721InvalidApprover","inputs":[{"name":"approver","type":"address","internalType":"address"}]},{"type":"error","name":"ERC721InvalidOperator","inputs":[{"name":"operator","type":"address","internalType":"address"}]},{"type":"error","name":"ERC721InvalidOwner","inputs":[{"name":"owner","type":"address","internalType":"address"}]},{"type":"error","name":"ERC721InvalidReceiver","inputs":[{"name":"receiver","type":"address","internalType":"address"}]},{"type":"error","name":"ERC721InvalidSender","inputs":[{"name":"sender","type":"address","internalType":"address"}]},{"type":"error","name":"ERC721NonexistentToken","inputs":[{"name":"tokenId","type":"uint256","internalType":"uint256"}]},{"type":"error","name":"ERC721OutOfBoundsIndex","inputs":[{"name":"owner","type":"address","internalType":"address"},{"name":"index","type":"uint256","internalType":"uint256"}]},{"type":"error","name":"MarketAlreadyRegistered","inputs":[]},{"type":"error","name":"MarketNotRegistered","inputs":[]},{"type":"error","name":"OwnableInvalidOwner","inputs":[{"name":"owner","type":"address","internalType":"address"}]},{"type":"error","name":"OwnableUnauthorizedAccount","inputs":[{"name":"account","type":"address","internalType":"address"}]},{"type":"error","name":"PositionNotFound","inputs":[]},{"type":"error","name":"UnauthorizedCaller","inputs":[]},{"type":"error","name":"ZeroAddress","inputs":[]}],"bytecode":{"object":"0x60a0604052346103ca57612c696020813803918261001c816103ce565b9384928339810103126103ca57516001600160a01b0381168082036103ca5761004560406103ce565b91600f83526e2932bb3b2334902837b9b4ba34b7b760891b602084015261006c60406103ce565b60078152665256462d504f5360c81b602082015283519092906001600160401b0381116102f35761009d5f546103f3565b601f8111610373575b50602094601f8211600114610312579481929394955f92610307575b50508160011b915f199060031b1c1916175f555b82516001600160401b0381116102f3576100f16001546103f3565b601f8111610292575b506020601f821160011461022f57819293945f92610224575b50508160011b915f199060031b1c1916176001555b331561021157600a8054336001600160a01b0319821681179092556001600160a01b03167f8be0079c531659141344cd1fd0a4f28419497f9722a3daafe3b4186f6b6457e05f80a315610202576080526001600f556101886010546103f3565b601f81116101c2575b5f601055604051612822908161044782396080518181816106770152818161072f01528181610847015261131e0152f35b80156101915760105f526101fc90601f0160051c7f1b6847dc741a1b0cd08d278845f9d819d87b734759afb55fe2de5cb82a9ae67261042b565b5f610191565b63d92e233d60e01b5f5260045ffd5b631e4fbdf760e01b5f525f60045260245ffd5b015190505f80610113565b601f1982169060015f52805f20915f5b81811061027a57509583600195969710610262575b505050811b01600155610128565b01515f1960f88460031b161c191690555f8080610254565b9192602060018192868b01518155019401920161023f565b818111156100fa5760015f526102e5907fb10e2d527612073b26eecdfd717e6a320cf44b4afac2b0732d9fcbe2b7fa0cf690601f840160051c90602085106102eb575b601f82910160051c03910161042b565b5f6100fa565b5f91506102d5565b634e487b7160e01b5f52604160045260245ffd5b015190505f806100c2565b601f198216955f8052805f20915f5b88811061035b57508360019596979810610343575b505050811b015f556100d6565b01515f1960f88460031b161c191690555f8080610336565b91926020600181928685015181550194019201610321565b818111156100a6575f80526103c4907f290decd9548b62a8d60345a988386fc84ba6bc95484008f6362f93160ef3e56390601f840160051c90602085106102eb57601f82910160051c03910161042b565b5f6100a6565b5f80fd5b6040519190601f01601f191682016001600160401b038111838210176102f357604052565b90600182811c92168015610421575b602083101461040d57565b634e487b7160e01b5f52602260045260245ffd5b91607f1691610402565b5f5b82811061043957505050565b5f8282015560010161042d56fe6080806040526004361015610012575f80fd5b5f3560e01c9081630178528514611d6b5750806301ffc9a714611ce35780630649fcd114611c9f57806306fdde0314611bfd578063081812fc14611bc1578063095ea7b314611ad75780630e2b2a7a14611a2357806318160ddd14611a0657806318821400146119eb57806323b872dd146119d45780632a9053181461198b5780632f745c59146119195780632fefd77f1461151857806342842e0e146114e95780634f6ccce7146114aa57806355f804b3146112da5780636352211e146108f35780636513b4361461129d5780636b991c2d14610c6a57806370a0823114610c3f578063715018a614610be4578063769cba4b14610b5a5780638da5cb5b14610b3257806395d89b4114610a6857806399fbab88146109e0578063a22cb46514610923578063a380c55a146108f3578063a79b9ec91461082c578063a93d789f146107d4578063ab5ab93014610714578063b88d4fde146106a6578063c45a015514610662578063c87b56dd1461062f578063d6983a35146103aa578063e985e9c514610353578063eb02c3011461023d5763f2fde38b146101b3575f80fd5b34610239576020366003190112610239576101cc611d99565b6101d4612522565b6001600160a01b0316801561022657600a80546001600160a01b0319811683179091556001600160a01b03167f8be0079c531659141344cd1fd0a4f28419497f9722a3daafe3b4186f6b6457e05f80a3005b631e4fbdf760e01b5f525f60045260245ffd5b5f80fd5b34610239576020366003190112610239575f60e060405161025d81611de9565b8281528260208201528260408201528260608201528260808201528260a08201528260c082015201526004355f52600b60205261010060405f20604051906102a482611de9565b80549182815260018060a01b03600183015416916020820192835260ff600282015460408401908152600383015460608501908152826004850154169160808601928352600660058601549560a088019687520154968460e060c0890198828b1615158a52019860081c161515885260405198895260018060a01b039051166020890152516040880152516060870152511660808501525160a084015251151560c083015251151560e0820152f35b346102395760403660031901126102395761036c611d99565b610374611daf565b9060018060a01b03165f52600560205260405f209060018060a01b03165f52602052602060ff60405f2054166040519015158152f35b3461023957602036600319011261023957600435600f54811080610626575b15610617576020816105b8925f52600b82526104a1600260405f209260ff60e06006604051966103f888611de9565b8054885260018101546001600160a01b03168989015285810154604089015260038101546060890152600481015484166080890152600581015460a08901520154808316151560c088015260081c90911615159401938452848061046361045d611e44565b9361267f565b6040519784899551918291018487015e84019061202360f01b83830152805192839101602283015e01015f838201520301601f198101845283611e06565b51156105e6576105e26020610541601260436040516104c1604082611e06565b600681526529b2b734b7b960d11b858201525b6040519485917f52657676466920506f736974696f6e204e465420726570726573656e74696e67828401526201030960ed1b60408401528051918291018484015e810171103632b73234b733903837b9b4ba34b7b71760711b838201520301600d19810184520182611e06565b6105d4604051610552606082611e06565b602a81527f68747470733a2f2f7265767666692e636f6d2f696d616765732f706f736974696020820152696f6e2d6e66742e706e6760b01b60408201526105c6604051936105a1602086611e06565b5f8552604051978897608089526080890190611dc5565b908782036020890152611dc5565b908582036040870152611dc5565b908382036060850152611dc5565b0390f35b6105e2602061054160126043604051610600604082611e06565b6006815265253ab734b7b960d11b858201526104d4565b636ec9be1160e01b5f5260045ffd5b508015156103c9565b34610239576020366003190112610239576105e261064e600435612380565b604051918291602083526020830190611dc5565b34610239575f366003190112610239576040517f00000000000000000000000000000000000000000000000000000000000000006001600160a01b03168152602090f35b34610239576080366003190112610239576106bf611d99565b6106c7611daf565b906044356064359267ffffffffffffffff8411610239573660238501121561023957610700610712943690602481600401359101611eab565b9261070c838383611f5a565b33612549565b005b346102395760203660031901126102395761072d611d99565b7f00000000000000000000000000000000000000000000000000000000000000006001600160a01b031633036107c5576001600160a01b03165f818152600e602052604090205460ff16156107b657805f52600e60205260405f2060ff1981541690557f2647d54498c3c18e1fe998f0217b8033cdde1c1b8fb71c2d52447111aca1de355f80a2005b631d5a9fa160e01b5f5260045ffd5b635c427cd960e01b5f5260045ffd5b34610239576040366003190112610239576107ed611d99565b6001600160a01b03165f908152600c60205260409020805460243591908210156102395760209161081d91611f0d565b90549060031b1c604051908152f35b3461023957602036600319011261023957610845611d99565b7f00000000000000000000000000000000000000000000000000000000000000006001600160a01b031633036107c5576001600160a01b031680156108e457805f52600e60205260ff60405f2054166108d557805f52600e60205260405f20600160ff198254161790557fd2392e8674082692962920b6bc022067ae83f52fc1de409f5c74de7aa893bd025f80a2005b63043bf2f760e51b5f5260045ffd5b63d92e233d60e01b5f5260045ffd5b346102395760203660031901126102395760206109116004356124d2565b6040516001600160a01b039091168152f35b346102395760403660031901126102395761093c611d99565b60243590811515908183036102395733156109cd576001600160a01b03169182156109ba5761098c90335f52600560205260405f20845f5260205260405f209060ff801983541691151516179055565b6040519081527f17307eab39ab6107e8899845ad3d59bd9653f200f220920489ca2b5937696c3160203392a3005b82630b61174360e31b5f5260045260245ffd5b63a9fbf51f60e01b5f525f60045260245ffd5b34610239576020366003190112610239576004355f52600b60205261010060405f2060ff81549160018060a01b03600182015416906002810154600382015484600484015416916006600585015494015494604051978852602088015260408701526060860152608085015260a0840152818116151560c084015260081c16151560e0820152f35b34610239575f366003190112610239576040515f600154610a8881611f22565b8084529060018116908115610b0e5750600114610ab0575b6105e28361064e81850382611e06565b60015f9081527fb10e2d527612073b26eecdfd717e6a320cf44b4afac2b0732d9fcbe2b7fa0cf6939250905b808210610af45750909150810160200161064e610aa0565b919260018160209254838588010152019101909291610adc565b60ff191660208086019190915291151560051b8401909101915061064e9050610aa0565b34610239575f36600319011261023957600a546040516001600160a01b039091168152602090f35b3461023957602036600319011261023957610b73611d99565b6001600160a01b03165f908152600c60205260408120805490825b828110610ba057602084604051908152f35b610baa8183611f0d565b90549060031b1c5f52600b60205260ff600660405f20015416610bd0575b600101610b8e565b92610bdc6001916122f7565b939050610bc8565b34610239575f36600319011261023957610bfc612522565b600a80546001600160a01b031981169091555f906001600160a01b03167f8be0079c531659141344cd1fd0a4f28419497f9722a3daafe3b4186f6b6457e08280a3005b34610239576020366003190112610239576020610c62610c5d611d99565b61234f565b604051908152f35b346102395760a036600319011261023957610c83611d99565b610c8b611daf565b9060443591606435926084359160ff8316809303610239576001600160a01b03165f818152600e602052604090205490919060ff16156107b657600f5492610cd2846122f7565b600f55604051610ce181611de9565b84815260208101848152610d9360066040840193868552606081018b81526080820187815260a083019142835260c08401976001895260e08501978a1589528d5f52600b60205260405f209551865560018060a01b03905116600186019060018060a01b03166001600160601b0360a01b82541617905551600285015551600384015560ff6004840191511660ff198254161790555160058201550192511515839060ff801983541691151516179055565b51815461ff00191690151560081b61ff00161790556001600160a01b0385165f818152600c60205260409020909690610dcd90869061232c565b865f52600c60205260405f20545f19810190811161115757875f52600d60205260405f20865f5260205260405f205560209560405190610e0d8883611e06565b5f8252881561128a575f8781526002895260409020546001600160a01b03168015158080611282575b156112135750805f52600c895260405f20815f52600d8a5260405f20895f528a5260405f2054908054915f19830192831161115757610e78610ebf9383611f0d565b90549060031b1c610ea581610e8d8486611f0d565b90919082549060031b91821b915f19901b1916179055565b845f52600d8d5260405f20905f528c5260405f2055612506565b5f52600d885260405f20875f5288525f6040812055885f52600c885260405f2054895f52600d895260405f20885f52895260405f2055885f52600c8852610f098760405f2061232c565b5f8781526002895260409020546001600160a01b0316801580159190826111e2575b8b5f5260038b5260405f2060018154019055895f5260028b5260405f208c6001600160601b0360a01b825416179055898c837fddf252ad1be2c89b69c2b068fc378daa952ba7f163c4a11628f55a4df523b3ef5f80a41561116b57600854895f5260098b5260405f2055610f9e89612305565b8a810361111c575b50611109573b610ff2575b506060879386937f2ded751e875944a2c31c15a5af9674e47ede7eaabeb532b56306a392a191718d93604051928352898301526040820152a4604051908152f35b8661102b9160405180938192630a85bd0160e11b83523360048401525f60248401528a6044840152608060648401526084830190611dc5565b03815f8c5af15f91816110c9575b5061108e5787873d15611086573d9061105182611e28565b9161105f6040519384611e06565b82523d5f8284013e5b815191826110835783633250574960e11b5f5260045260245ffd5b01fd5b606090611068565b959694959394936001600160e01b03191663757a42ff60e11b016110b6578594939695610fb1565b83633250574960e11b5f5260045260245ffd5b9091508781813d8311611102575b6110e18183611e06565b8101031261023957516001600160e01b031981168103610239579089611039565b503d6110d7565b6339e3563760e11b5f525f60045260245ffd5b6111258361234f565b5f198101908111611157578b5f5260068b5260405f20815f528b528960405f2055895f5260078b5260405f2055610fa6565b634e487b7160e01b5f52601160045260245ffd5b808b14610f9e5761117b8161234f565b895f5260078b5260405f205490825f5260068c5260405f20918181036111b9575b508a5f5260078c525f60408120555f528a525f6040812055610f9e565b815f52828d528c8360405f205491835f52528060405f20555f5260078d5260405f20558d61119c565b5f8a81526004602052604080822080546001600160a01b031916905583825260038d52902080545f19019055610f2b565b8061127b575b611224575b50610f09565b805f52600c895260405f20815f52600d8a5260405f20895f528a5260405f2054908054915f19830192831161115757610e786112609383611f0d565b5f52600d885260405f20875f5288525f60408120558961121e565b505f611219565b506001610e36565b633250574960e11b5f525f60045260245ffd5b34610239576020366003190112610239576001600160a01b036112be611d99565b165f52600e602052602060ff60405f2054166040519015158152f35b346102395760203660031901126102395760043567ffffffffffffffff811161023957366023820112156102395761131c903690602481600401359101611eab565b7f00000000000000000000000000000000000000000000000000000000000000006001600160a01b031633036107c557805167ffffffffffffffff811161149657611368601054611f22565b601f8111611428575b50602091601f82116001146113ad579181925f926113a2575b50505f19600383901b1c191660019190911b17601055005b01519050828061138a565b601f1982169260105f527f1b6847dc741a1b0cd08d278845f9d819d87b734759afb55fe2de5cb82a9ae672915f5b858110611410575083600195106113f8575b505050811b01601055005b01515f1960f88460031b161c191690558280806113ed565b919260206001819286850151815501940192016113db565b818111156113715760105f52601f820160051c906020831061148e575b601f82910160051c03905f5b82811061145f575050611371565b5f8282017f1b6847dc741a1b0cd08d278845f9d819d87b734759afb55fe2de5cb82a9ae6720155600101611451565b5f9150611445565b634e487b7160e01b5f52604160045260245ffd5b34610239576020366003190112610239576004356008548110156114d35761081d602091611ee1565b63295f44f760e21b5f525f60045260245260445ffd5b34610239576107126114fa36611e71565b906040519261150a602085611e06565b5f845261070c838383611f5a565b3461023957602036600319011261023957600435805f52600b60205260018060a01b03600160405f200154165f52600e60205260ff60405f205416156107b657805f52600b60205260405f2060068101805460ff8116156106175760ff191690555f828152600260205260409020546001600160a01b03168015158080611912575b1561189d5750805f52600c60205260405f20815f52600d60205260405f20845f5260205260405f2054908054915f198301928311611157576115df6116109383611f0d565b90549060031b1c6115f481610e8d8486611f0d565b845f52600d60205260405f20905f5260205260405f2055612506565b5f908152600d6020908152604080832085845282528083208390557f13649b2456f1b42fef0f0040b3aaeabcd21a76a0f3f5defd4f583839455116e880547f81955a0a11e65eac625c29e8882660bae4e165a75d72780094acae8ece9a29ee845291842091909155918052600c905261168a90839061232c565b5f828152600260205260409020546001600160a01b031680159081158061186a575b5f85815260026020526040812080546001600160a01b03191690558590837fddf252ad1be2c89b69c2b068fc378daa952ba7f163c4a11628f55a4df523b3ef8280a482156117ef5750600854845f52600960205260405f205561170e84612305565b6008545f19810190811161115757845f52600960205261173260405f205491611ee1565b90549060031b1c61174681610e8d84611ee1565b5f52600960205260405f2055835f5260096020525f604081205560085480156117db575f190161178a61177a826008611f0d565b8154905f199060031b1b19169055565b600855506117c857604060027f2603df6f11a0e6645f74d36203c0fd88d5f298ed69769d43fe98cdb7774b848392015481519081525f6020820152a2005b50637e27328960e01b5f5260045260245ffd5b634e487b7160e01b5f52603160045260245ffd5b1561170e576117fd8161234f565b845f52600760205260405f205490825f52600660205260405f209181810361183f575b50855f5260076020525f60408120555f526020525f604081205561170e565b815f528260205260405f2054815f52836020528060405f20555f52600760205260405f205586611820565b5f85815260046020526040902080546001600160a01b0319169055815f52600360205260405f205f1981540190556116ac565b8061190a575b6118ae575b5061168a565b805f52600c60205260405f20815f52600d60205260405f20845f5260205260405f2054908054915f198301928311611157576115df6118ed9383611f0d565b5f52600d60205260405f20825f526020525f6040812055826118a8565b5060016118a3565b505f61159a565b3461023957604036600319011261023957611932611d99565b6024359061193f8161234f565b82101561196e5760018060a01b03165f52600660205260405f20905f52602052602060405f2054604051908152f35b63295f44f760e21b5f5260018060a01b031660045260245260445ffd5b34610239575f366003190112610239576105e26040516119ac604082611e06565b60078152665256462d504f5360c81b6020820152604051918291602083526020830190611dc5565b34610239576107126119e536611e71565b91611f5a565b34610239575f366003190112610239576105e261064e611e44565b34610239575f366003190112610239576020600854604051908152f35b34610239576020366003190112610239576001600160a01b03611a44611d99565b165f52600c60205260405f20604051806020835491828152019081935f5260205f20905f5b818110611ac15750505081611a7f910382611e06565b604051918291602083019060208452518091526040830191905f5b818110611aa8575050500390f35b8251845285945060209384019390920191600101611a9a565b8254845260209093019260019283019201611a69565b3461023957604036600319011261023957611af0611d99565b602435611afc816124d2565b33151580611bae575b80611b81575b611b6e5781906001600160a01b0384811691167f8c5be1e5ebec7d5bd14f71427d1e84f3dd0314c0f7b2291e5b200ac8c7c3b9255f80a45f90815260046020526040902080546001600160a01b0319166001600160a01b03909216919091179055005b63a9fbf51f60e01b5f523360045260245ffd5b506001600160a01b0381165f90815260056020908152604080832033845290915290205460ff1615611b0b565b506001600160a01b038116331415611b05565b3461023957602036600319011261023957600435611bde816124d2565b505f526004602052602060018060a01b0360405f205416604051908152f35b34610239575f366003190112610239576040515f5f54611c1c81611f22565b8084529060018116908115610b0e5750600114611c43576105e28361064e81850382611e06565b5f8080527f290decd9548b62a8d60345a988386fc84ba6bc95484008f6362f93160ef3e563939250905b808210611c855750909150810160200161064e610aa0565b919260018160209254838588010152019101909291611c6d565b34610239576040366003190112610239576001600160a01b03611cc0611d99565b165f52600d60205260405f206024355f52602052602060405f2054604051908152f35b346102395760203660031901126102395760043563ffffffff60e01b81168091036102395760209063780e9d6360e01b8114908115611d28575b506040519015158152f35b6380ac58cd60e01b811491508115611d5a575b8115611d49575b5082611d1d565b6301ffc9a760e01b14905082611d42565b635b5e139f60e01b81149150611d3b565b34610239576020366003190112610239576020906004355f52600b825260ff600660405f2001541615158152f35b600435906001600160a01b038216820361023957565b602435906001600160a01b038216820361023957565b805180835260209291819084018484015e5f828201840152601f01601f1916010190565b610100810190811067ffffffffffffffff82111761149657604052565b90601f8019910116810190811067ffffffffffffffff82111761149657604052565b67ffffffffffffffff811161149657601f01601f191660200190565b60405190611e53604083611e06565b600f82526e2932bb3b2334902837b9b4ba34b7b760891b6020830152565b6060906003190112610239576004356001600160a01b038116810361023957906024356001600160a01b0381168103610239579060443590565b929192611eb782611e28565b91611ec56040519384611e06565b829481845281830111610239578281602093845f960137010152565b600854811015611ef95760085f5260205f2001905f90565b634e487b7160e01b5f52603260045260245ffd5b8054821015611ef9575f5260205f2001905f90565b90600182811c92168015611f50575b6020831014611f3c57565b634e487b7160e01b5f52602260045260245ffd5b91607f1691611f31565b9091906001600160a01b038316801561128a575f838152600260205260409020546001600160a01b031680151580806122ef575b1561227b5750805f52600c60205260405f20815f52600d60205260405f20855f5260205260405f2054908054915f198301928311611157576115df611fd39383611f0d565b5f52600d60205260405f20835f526020525f6040812055805f52600c60205260405f2054815f52600d60205260405f20845f5260205260405f2055805f52600c6020526120238360405f2061232c565b5f838152600260205260409020546001600160a01b031693331515806121eb575b50841580156121b8575b825f52600360205260405f2060018154019055845f52600260205260405f20836001600160601b0360a01b8254161790558483877fddf252ad1be2c89b69c2b068fc378daa952ba7f163c4a11628f55a4df523b3ef5f80a41561213b57600854845f52600960205260405f20556120c484612305565b8185036120fb575b50506001600160a01b03168083036120e357505050565b6364283d7b60e01b5f5260045260245260445260645ffd5b6121049061234f565b5f19810191908211611157575f52600660205260405f20815f526020528260405f2055825f52600760205260405f20555f806120cc565b8482146120c45761214b8561234f565b845f52600760205260405f205490865f52600660205260405f209181810361218d575b50855f5260076020525f60408120555f526020525f60408120556120c4565b815f528260205260405f2054815f52836020528060405f20555f52600760205260405f20555f61216e565b5f85815260046020526040902080546001600160a01b0319169055855f52600360205260405f205f19815401905561204e565b8061222a575b156121fc575f612044565b838561221457637e27328960e01b5f5260045260245ffd5b63177e802f60e01b5f523360045260245260445ffd5b503385148015612259575b806121f157505f848152600460205260409020546001600160a01b031633146121f1565b505f85815260056020908152604080832033845290915290205460ff16612235565b806122e8575b61228c575b50612023565b805f52600c60205260405f20815f52600d60205260405f20855f5260205260405f2054908054915f198301928311611157576115df6122cb9383611f0d565b5f52600d60205260405f20835f526020525f60408120555f612286565b505f612281565b506001611f8e565b5f1981146111575760010190565b60085490600160401b82101561149657610e8d82600161232a94016008556008611f0d565b565b90815491600160401b8310156114965782610e8d91600161232a95018155611f0d565b6001600160a01b0316801561236d575f52600360205260405f205490565b6322718ad960e21b5f525f60045260245ffd5b600f548110806124c9575b156106175760405160105491905f816123a385611f22565b9182825260208201956001811690815f146124ad575060011461244e575b6123cd92500382611e06565b80511561243757600a6005916020806123e86124349661267f565b6040519788945180918487015e840190692f706f736974696f6e2f60b01b83830152805192839101602a83015e010164173539b7b760d91b838201520301601a19810184520182611e06565b90565b505050604051612448602082611e06565b5f815290565b5060105f90815290917f1b6847dc741a1b0cd08d278845f9d819d87b734759afb55fe2de5cb82a9ae6725b8183106124915750509060206123cd928201016123c1565b6020919350806001915483858801015201910190918392612479565b60ff19168752506123cd92151560051b820160200190506123c1565b5080151561238b565b5f818152600260205260409020546001600160a01b03169081156124f4575090565b637e27328960e01b5f5260045260245ffd5b805480156117db575f19019061251f61177a8383611f0d565b55565b600a546001600160a01b0316330361253657565b63118cdaa760e01b5f523360045260245ffd5b823b612557575b5050505050565b604051630a85bd0160e11b81526001600160a01b0391821660048201529181166024830152604482019390935260806064820152911691602090829081906125a3906084830190611dc5565b03815f865af15f918161263a575b5061260657503d156125ff573d6125c781611e28565b906125d56040519283611e06565b81523d5f602083013e5b805190816125fa5782633250574960e11b5f5260045260245ffd5b602001fd5b60606125df565b6001600160e01b03191663757a42ff60e11b0161262857505f80808080612550565b633250574960e11b5f5260045260245ffd5b9091506020813d602011612677575b8161265660209383611e06565b8101031261023957516001600160e01b03198116810361023957905f6125b1565b3d9150612649565b805f9172184f03e93ff9f4daa797ed6e38ed64bf6a1f0160401b8210156127c9575b806d04ee2d6d415b85acef8100000000600a9210156127ae575b662386f26fc1000081101561279a575b6305f5e100811015612789575b61271081101561277a575b606481101561276c575b1015612761575b600a6021600184019361270685611e28565b946127146040519687611e06565b808652612723601f1991611e28565b013660208701378401015b5f1901916f181899199a1a9b1b9c1cb0b131b232b360811b8282061a835304801561275c57600a909161272e565b505090565b6001909101906126f4565b6064600291049301926126ed565b612710600491049301926126e3565b6305f5e100600891049301926126d8565b662386f26fc10000601091049301926126cb565b6d04ee2d6d415b85acef8100000000602091049301926126bb565b506040915072184f03e93ff9f4daa797ed6e38ed64bf6a1f0160401b81046126a156fea2646970667358221220d451a604fb6574f9ef40340bd015bfb15e3a9294728237ad01e0427adbb6e9c664736f6c63430008210033","linkReferences":{}},"methodIdentifiers":{"TOKEN_NAME()":"18821400","TOKEN_SYMBOL()":"2a905318","approve(address,uint256)":"095ea7b3","approvedMarkets(address)":"6513b436","balanceOf(address)":"70a08231","factory()":"c45a0155","getActivePositionCount(address)":"769cba4b","getApproved(uint256)":"081812fc","getLenderByTokenId(uint256)":"a380c55a","getLenderPositions(address)":"0e2b2a7a","getPosition(uint256)":"eb02c301","getPositionMetadata(uint256)":"d6983a35","isApprovedForAll(address,address)":"e985e9c5","isPositionActive(uint256)":"01785285","lenderPositionIndex(address,uint256)":"0649fcd1","lenderPositions(address,uint256)":"a93d789f","mintPosition(address,address,uint256,uint256,uint8)":"6b991c2d","name()":"06fdde03","owner()":"8da5cb5b","ownerOf(uint256)":"6352211e","positions(uint256)":"99fbab88","redeemPosition(uint256)":"2fefd77f","registerMarket(address)":"a79b9ec9","renounceOwnership()":"715018a6","safeTransferFrom(address,address,uint256)":"42842e0e","safeTransferFrom(address,address,uint256,bytes)":"b88d4fde","setApprovalForAll(address,bool)":"a22cb465","setBaseURI(string)":"55f804b3","supportsInterface(bytes4)":"01ffc9a7","symbol()":"95d89b41","tokenByIndex(uint256)":"4f6ccce7","tokenOfOwnerByIndex(address,uint256)":"2f745c59","tokenURI(uint256)":"c87b56dd","totalSupply()":"18160ddd","transferFrom(address,address,uint256)":"23b872dd","transferOwnership(address)":"f2fde38b","unregisterMarket(address)":"ab5ab930"},"id":62}