{"abi":[{"type":"constructor","inputs":[{"name":"_factory","type":"address","internalType":"address"}],"stateMutability":"nonpayable"},{"type":"function","name":"approvedMarkets","inputs":[{"name":"","type":"address","internalType":"address"}],"outputs":[{"name":"","type":"bool","internalType":"bool"}],"stateMutability":"view"},{"type":"function","name":"auctionDuration","inputs":[],"outputs":[{"name":"","type":"uint256","internalType":"uint256"}],"stateMutability":"view"},{"type":"function","name":"auctionExtensionWindow","inputs":[],"outputs":[{"name":"","type":"uint256","internalType":"uint256"}],"stateMutability":"view"},{"type":"function","name":"auctions","inputs":[{"name":"","type":"uint256","internalType":"uint256"}],"outputs":[{"name":"id","type":"uint256","internalType":"uint256"},{"name":"market","type":"address","internalType":"address"},{"name":"borrower","type":"address","internalType":"address"},{"name":"borrowAsset","type":"address","internalType":"address"},{"name":"collateralAsset","type":"address","internalType":"address"},{"name":"collateralAmount","type":"uint256","internalType":"uint256"},{"name":"debtAmount","type":"uint256","internalType":"uint256"},{"name":"reservePrice","type":"uint256","internalType":"uint256"},{"name":"startTime","type":"uint256","internalType":"uint256"},{"name":"endTime","type":"uint256","internalType":"uint256"},{"name":"highestBid","type":"uint256","internalType":"uint256"},{"name":"highestBidder","type":"address","internalType":"address"},{"name":"active","type":"bool","internalType":"bool"},{"name":"settled","type":"bool","internalType":"bool"},{"name":"collateralTransferred","type":"bool","internalType":"bool"}],"stateMutability":"view"},{"type":"function","name":"cancelAuction","inputs":[{"name":"auctionId","type":"uint256","internalType":"uint256"}],"outputs":[],"stateMutability":"nonpayable"},{"type":"function","name":"createAuction","inputs":[{"name":"market","type":"address","internalType":"address"},{"name":"borrower","type":"address","internalType":"address"},{"name":"borrowAsset","type":"address","internalType":"address"},{"name":"collateralAsset","type":"address","internalType":"address"},{"name":"collateralAmount","type":"uint256","internalType":"uint256"},{"name":"debtAmount","type":"uint256","internalType":"uint256"}],"outputs":[{"name":"auctionId","type":"uint256","internalType":"uint256"}],"stateMutability":"nonpayable"},{"type":"function","name":"dutchAuctionPriceDecrementBps","inputs":[],"outputs":[{"name":"","type":"uint256","internalType":"uint256"}],"stateMutability":"view"},{"type":"function","name":"dutchAuctionStepDuration","inputs":[],"outputs":[{"name":"","type":"uint256","internalType":"uint256"}],"stateMutability":"view"},{"type":"function","name":"factory","inputs":[],"outputs":[{"name":"","type":"address","internalType":"address"}],"stateMutability":"view"},{"type":"function","name":"getAuction","inputs":[{"name":"auctionId","type":"uint256","internalType":"uint256"}],"outputs":[{"name":"","type":"tuple","internalType":"struct IRevvFiLiquidator.Auction","components":[{"name":"id","type":"uint256","internalType":"uint256"},{"name":"market","type":"address","internalType":"address"},{"name":"borrower","type":"address","internalType":"address"},{"name":"borrowAsset","type":"address","internalType":"address"},{"name":"collateralAsset","type":"address","internalType":"address"},{"name":"collateralAmount","type":"uint256","internalType":"uint256"},{"name":"debtAmount","type":"uint256","internalType":"uint256"},{"name":"reservePrice","type":"uint256","internalType":"uint256"},{"name":"startTime","type":"uint256","internalType":"uint256"},{"name":"endTime","type":"uint256","internalType":"uint256"},{"name":"highestBid","type":"uint256","internalType":"uint256"},{"name":"highestBidder","type":"address","internalType":"address"},{"name":"active","type":"bool","internalType":"bool"},{"name":"settled","type":"bool","internalType":"bool"},{"name":"collateralTransferred","type":"bool","internalType":"bool"}]}],"stateMutability":"view"},{"type":"function","name":"getCurrentPrice","inputs":[{"name":"auctionId","type":"uint256","internalType":"uint256"}],"outputs":[{"name":"currentPrice","type":"uint256","internalType":"uint256"}],"stateMutability":"view"},{"type":"function","name":"getWinningBid","inputs":[{"name":"auctionId","type":"uint256","internalType":"uint256"}],"outputs":[{"name":"winner","type":"address","internalType":"address"},{"name":"bidAmount","type":"uint256","internalType":"uint256"},{"name":"collateralAmount","type":"uint256","internalType":"uint256"}],"stateMutability":"view"},{"type":"function","name":"minBidIncrementBps","inputs":[],"outputs":[{"name":"","type":"uint256","internalType":"uint256"}],"stateMutability":"view"},{"type":"function","name":"nextAuctionId","inputs":[],"outputs":[{"name":"","type":"uint256","internalType":"uint256"}],"stateMutability":"view"},{"type":"function","name":"placeBid","inputs":[{"name":"auctionId","type":"uint256","internalType":"uint256"},{"name":"bidAmount","type":"uint256","internalType":"uint256"}],"outputs":[],"stateMutability":"nonpayable"},{"type":"function","name":"receiveCollateral","inputs":[{"name":"auctionId","type":"uint256","internalType":"uint256"}],"outputs":[],"stateMutability":"nonpayable"},{"type":"function","name":"registerMarket","inputs":[{"name":"market","type":"address","internalType":"address"}],"outputs":[],"stateMutability":"nonpayable"},{"type":"function","name":"setAuctionDuration","inputs":[{"name":"newDuration","type":"uint256","internalType":"uint256"}],"outputs":[],"stateMutability":"nonpayable"},{"type":"function","name":"setAuctionExtensionWindow","inputs":[{"name":"newWindow","type":"uint256","internalType":"uint256"}],"outputs":[],"stateMutability":"nonpayable"},{"type":"function","name":"setDutchAuctionParams","inputs":[{"name":"stepDuration","type":"uint256","internalType":"uint256"},{"name":"decrementBps","type":"uint256","internalType":"uint256"}],"outputs":[],"stateMutability":"nonpayable"},{"type":"function","name":"setMinBidIncrementBps","inputs":[{"name":"newIncrementBps","type":"uint256","internalType":"uint256"}],"outputs":[],"stateMutability":"nonpayable"},{"type":"function","name":"settleAuction","inputs":[{"name":"auctionId","type":"uint256","internalType":"uint256"}],"outputs":[],"stateMutability":"nonpayable"},{"type":"event","name":"AuctionCancelled","inputs":[{"name":"auctionId","type":"uint256","indexed":true,"internalType":"uint256"}],"anonymous":false},{"type":"event","name":"AuctionCreated","inputs":[{"name":"auctionId","type":"uint256","indexed":true,"internalType":"uint256"},{"name":"market","type":"address","indexed":true,"internalType":"address"},{"name":"borrower","type":"address","indexed":true,"internalType":"address"},{"name":"borrowAsset","type":"address","indexed":false,"internalType":"address"},{"name":"collateralAsset","type":"address","indexed":false,"internalType":"address"},{"name":"collateralAmount","type":"uint256","indexed":false,"internalType":"uint256"},{"name":"debtAmount","type":"uint256","indexed":false,"internalType":"uint256"},{"name":"startTime","type":"uint256","indexed":false,"internalType":"uint256"},{"name":"endTime","type":"uint256","indexed":false,"internalType":"uint256"}],"anonymous":false},{"type":"event","name":"AuctionSettled","inputs":[{"name":"auctionId","type":"uint256","indexed":true,"internalType":"uint256"},{"name":"winner","type":"address","indexed":true,"internalType":"address"},{"name":"collateralAsset","type":"address","indexed":false,"internalType":"address"},{"name":"collateralAmount","type":"uint256","indexed":false,"internalType":"uint256"},{"name":"bidAmount","type":"uint256","indexed":false,"internalType":"uint256"},{"name":"debtRepaid","type":"uint256","indexed":false,"internalType":"uint256"}],"anonymous":false},{"type":"event","name":"BidPlaced","inputs":[{"name":"auctionId","type":"uint256","indexed":true,"internalType":"uint256"},{"name":"bidder","type":"address","indexed":true,"internalType":"address"},{"name":"bidAmount","type":"uint256","indexed":false,"internalType":"uint256"},{"name":"collateralAmount","type":"uint256","indexed":false,"internalType":"uint256"}],"anonymous":false},{"type":"error","name":"AuctionAlreadySettled","inputs":[]},{"type":"error","name":"AuctionEnded","inputs":[]},{"type":"error","name":"AuctionNotActive","inputs":[]},{"type":"error","name":"AuctionNotFound","inputs":[]},{"type":"error","name":"BidTooLow","inputs":[]},{"type":"error","name":"ReentrancyGuardReentrantCall","inputs":[]},{"type":"error","name":"SafeERC20FailedOperation","inputs":[{"name":"token","type":"address","internalType":"address"}]},{"type":"error","name":"UnauthorizedCaller","inputs":[]},{"type":"error","name":"ZeroAddress","inputs":[]}],"bytecode":{"object":"0x60a0346100fe57601f61138338819003918201601f19168301916001600160401b03831184841017610102578084926020946040528339810103126100fe57516001600160a01b0381168082036100fe5760017f9b779b17422d0df92223018b32b4d1fa46e071723d6817e2486d003becc55f00556203f4806003556064600455610384600555610e106006556101f4600755156100ef57608052600160025560405161126c90816101178239608051818181610187015281816101ca01528181610275015281816102c60152818161033f0152818161038b01528181610a8001528181610b4c0152610bd00152f35b63d92e233d60e01b5f5260045ffd5b5f80fd5b634e487b7160e01b5f52604160045260245ffdfe6080806040526004361015610012575f80fd5b5f3560e01c9081630cbf54c814610b82575080630cdca8ca14610b3b5780631af6591e14610ad35780631c11715014610ab65780631d320fe114610a6d5780632e99361114610a365780633171eac614610a19578063571a26a01461092257806357c90de51461073457806362b96031146107175780636513b436146106da5780636891939d1461068f57806378bd79351461045557806396b5a75514610375578063a497e6741461032c578063a79b9ec9146102ab578063b0c9a27c14610262578063b355bbcc146101b6578063c45a015514610172578063c55d0f561461014c578063fc2c7fca1461012f5763fc5284821461010e575f80fd5b3461012b575f36600319011261012b576020600254604051908152f35b5f80fd5b3461012b575f36600319011261012b576020600754604051908152f35b3461012b57602036600319011261012b57602061016a6004356110d4565b604051908152f35b3461012b575f36600319011261012b576040517f00000000000000000000000000000000000000000000000000000000000000006001600160a01b03168152602090f35b3461012b57602036600319011261012b57337f00000000000000000000000000000000000000000000000000000000000000006001600160a01b031614158061024b575b61023c576004355f525f602052600b60405f2001805460ff8160a01c161561022d5760ff60b01b1916600160b01b179055005b6307145c5f60e11b5f5260045ffd5b635c427cd960e01b5f5260045ffd5b50335f52600160205260ff60405f205416156101fa565b3461012b57602036600319011261012b577f00000000000000000000000000000000000000000000000000000000000000006001600160a01b0316330361023c57600435600555005b3461012b57602036600319011261012b576102c4610bb2565b7f00000000000000000000000000000000000000000000000000000000000000006001600160a01b0316330361023c576001600160a01b0316801561031d575f52600160205260405f20600160ff198254161790555f80f35b63d92e233d60e01b5f5260045ffd5b3461012b57602036600319011261012b577f00000000000000000000000000000000000000000000000000000000000000006001600160a01b0316330361023c57600435600355005b3461012b57602036600319011261012b576004357f00000000000000000000000000000000000000000000000000000000000000006001600160a01b0316330361023c57805f525f60205260405f20600b810190815460ff8160a01c161561022d576001600160a01b03169081151580610448575b610422575b5050805460ff60a01b191690557f2809c7e17bf978fbc7194c0a694b638c4215e9140cacc6c38ca36010b45697df5f80a2005b6003810154600a909101546104419290916001600160a01b031661119e565b82806103ef565b50600a81015415156103ea565b3461012b57602036600319011261012b5761046e610ef4565b5f8152602081015f9052604081015f9052606081015f9052608081015f905260a081015f905260c081015f905260e081015f905261010081015f905261012081015f905261014081015f905261016081015f905261018081015f90526101a081015f90526101c0015f90526004355f525f60205260405f206104ee610ef4565b908054808352600160a01b600190036001830154169260208101938452600160a01b6001900360028401541660408201908152600160a01b600190036003850154169360608301948552600160a01b6001900360048201541660808401908152600582015460a08501908152600683015460c0860190815260078401549060e0870191825260088501549261010088019384526009860154946101208901958652600a870154966101408a01978852600b01549a8b9a6101608b0199600160a01b600190038d168b526101808c019b8d60a01c60ff1615158d526101a08101809e60a81c60ff16151590526101c001809e60b01c60ff16151590526040519e8f928352600160a01b600190039051166020830152600160a01b600190039051169060400152600160a01b6001900390511660608d0152600160a01b6001900390511660808c01525160a08b01525160c08a01525160e0890152516101008801525161012087015251610140860152600160a01b600190039051166101608501525115156101808401525115156101a08301525115156101c08201526101e090f35b3461012b57602036600319011261012b576004355f525f602052606060405f2060018060a01b03600b82015416906005600a8201549101549060405192835260208301526040820152f35b3461012b57602036600319011261012b576001600160a01b036106fb610bb2565b165f526001602052602060ff60405f2054166040519015158152f35b3461012b575f36600319011261012b576020600554604051908152f35b3461012b5761074236610b9c565b61074a611166565b815f525f60205260405f2091600b83019283549360ff8560a01c161561022d5760098201908154421161091357610780846110d4565b95600a8401968754801591825f146108f4575b88106108e557600686015488116108e55760038601546001600160a01b0390811693169182151590816108dc575b506108cb575b50506040516323b872dd60e01b5f5233600452306024528660445260205f60648180865af19060015f51148216156108aa575b6040525f6060521561089857508460059495965560018060a01b0333166001600160601b0360a01b8254161790556108334282546110c7565b8354809110610885575b5050015460405192835260208301527f51db8e23b3f4479b162fd48823b8402895442b8f6cfd94f66239391881ec7b6f60403393a360015f5160206112175f395f51905f5255005b61088f9042610ee7565b9055848061083d565b635274afe760e01b5f5260045260245ffd5b9060018115166108c257823b15153d151616906107fa565b503d5f823e3d90fd5b6108d5918361119e565b87806107c7565b9050158a6107c1565b635069375b60e11b5f5260045ffd5b5061090e61271061090760045484610ed4565b0482610ee7565b610793565b63283a4a6160e21b5f5260045ffd5b3461012b57602036600319011261012b576004355f525f6020526101e060405f2060ff81549160018060a01b036001820154169060018060a01b0360028201541660018060a01b0360038301541660018060a01b036004840154166005840154600685015490600786015492600887015494600988015496600b600a8a0154990154996040519c8d5260208d015260408c015260608b015260808a015260a089015260c088015260e087015261010086015261012085015261014084015260018060a01b038116610160840152818160a01c161515610180840152818160a81c1615156101a084015260b01c1615156101c0820152f35b3461012b575f36600319011261012b576020600654604051908152f35b3461012b57602036600319011261012b57610a4f611166565b610a5a600435610f29565b60015f5160206112175f395f51905f5255005b3461012b57602036600319011261012b577f00000000000000000000000000000000000000000000000000000000000000006001600160a01b0316330361023c57600480359055005b3461012b575f36600319011261012b576020600454604051908152f35b3461012b5760c036600319011261012b57610aec610bb2565b6024356001600160a01b038116810361012b57604435906001600160a01b038216820361012b57606435926001600160a01b038416840361012b5760209361016a9360a4359360843593610bc8565b3461012b57610b4936610b9c565b907f00000000000000000000000000000000000000000000000000000000000000006001600160a01b0316330361023c57600655600755005b3461012b575f36600319011261012b576020906003548152f35b604090600319011261012b576004359060243590565b600435906001600160a01b038216820361012b57565b9293909290337f00000000000000000000000000000000000000000000000000000000000000006001600160a01b0316141580610ebd575b61023c57600254955f198714610ea95760018701600255605081029181830460501482151715610ea9578794856003544290610c3b91610ee7565b95610c44610ef4565b98828a5260208a0191600160a01b6001900316998a83526040810191600160a01b60019003169b8c83526060820195600160a01b6001900316998a87526080830191600160a01b6001900316998a835260a084019089825260c085018b815260e086019160649004825261010086019242845261012087019485526101408701955f875261016088019b5f8d5261018089019960018b526101a08a019b5f8d526101c08b019d5f8f525f525f60205260405f209a518b55600160a01b6001900390511660018b0190600160a01b60019003166001600160601b0360a01b825416179055600160a01b6001900390511660028a0190600160a01b60019003166001600160601b0360a01b825416179055600160a01b600190039051166003890190600160a01b60019003166001600160601b0360a01b825416179055600160a01b600190039051166004880190600160a01b60019003166001600160601b0360a01b82541617905551600587015551600686015551600785015551600884015551600983015551600a820155600b0193600160a01b6001900390600160a01b60019003905116166001600160601b0360a01b85541617845551151583549060ff60a01b90151560a01b169060ff60a01b191617835551151582549060ff60a81b90151560a81b169060ff60a81b191617825551151581549060ff60b01b90151560b01b169060ff60b01b19161790556003544290610e6091610ee7565b9260405194855260208501526040840152606083015242608083015260a082015260c07fa7fc29bef0deb3ca05e0e792df3196284ccaa75747c5346f72ace0e6e7e821ea91a490565b634e487b7160e01b5f52601160045260245ffd5b50335f52600160205260ff60405f20541615610c00565b81810292918115918404141715610ea957565b91908201809211610ea957565b604051906101e0820182811067ffffffffffffffff821117610f1557604052565b634e487b7160e01b5f52604160045260245ffd5b805f525f60205260405f2090600b8201805460ff8160a01c161561022d5760098401544211156110b85760ff8160a81c166110a9576001600160a01b0316156110235760038301546001840154600a850180547f0fd449c00a8fcbc38da3f998ca7b1775cb5042749ee6103189e016704a8b9fc0946080949093610fba92916001600160a01b03918216911661119e565b6004860180548354600590980180549098610fe1926001600160a01b03918216911661119e565b825461ffff60a01b198116600160a81b179093555495549054604080516001600160a01b039889168152602081019390935282018190526060820152941693a3565b505f818152602081905260409020600181015460028201546003830154600484015460058501546006860154969750600b9661107695909491936001600160a01b03938416939081169281169116610bc8565b5001805460ff60a01b191690557f2809c7e17bf978fbc7194c0a694b638c4215e9140cacc6c38ca36010b45697df5f80a2565b634f4fee1760e01b5f5260045ffd5b6334dc687f60e11b5f5260045ffd5b91908203918211610ea957565b5f525f60205260405f2060ff600b82015460a01c1615611161576110fc6008820154426110c7565b60065490811561114d5704906007612710611126600684015494611121845487610ed4565b610ed4565b049101549161113583826110c7565b821061114057505090565b61114a92506110c7565b90565b634e487b7160e01b5f52601260045260245ffd5b505f90565b60025f5160206112175f395f51905f52541461118f5760025f5160206112175f395f51905f5255565b633ee5aeb560e01b5f5260045ffd5b916040519163a9059cbb60e01b5f5260018060a01b031660045260245260205f60448180865af19060015f51148216156111fe575b604052156111de5750565b635274afe760e01b5f9081526001600160a01b0391909116600452602490fd5b9060018115166108c257823b15153d151616906111d356fe9b779b17422d0df92223018b32b4d1fa46e071723d6817e2486d003becc55f00a26469706673582212207c12aa132120fdd0e797ceaaeb46a16414c8e5c94951064eb720bfe5fcbce41264736f6c63430008210033","linkReferences":{}},"methodIdentifiers":{"approvedMarkets(address)":"6513b436","auctionDuration()":"0cbf54c8","auctionExtensionWindow()":"62b96031","auctions(uint256)":"571a26a0","cancelAuction(uint256)":"96b5a755","createAuction(address,address,address,address,uint256,uint256)":"1af6591e","dutchAuctionPriceDecrementBps()":"fc2c7fca","dutchAuctionStepDuration()":"3171eac6","factory()":"c45a0155","getAuction(uint256)":"78bd7935","getCurrentPrice(uint256)":"c55d0f56","getWinningBid(uint256)":"6891939d","minBidIncrementBps()":"1c117150","nextAuctionId()":"fc528482","placeBid(uint256,uint256)":"57c90de5","receiveCollateral(uint256)":"b355bbcc","registerMarket(address)":"a79b9ec9","setAuctionDuration(uint256)":"a497e674","setAuctionExtensionWindow(uint256)":"b0c9a27c","setDutchAuctionParams(uint256,uint256)":"0cdca8ca","setMinBidIncrementBps(uint256)":"1d320fe1","settleAuction(uint256)":"2e993611"},"id":58}