{"abi":[{"type":"constructor","inputs":[],"stateMutability":"nonpayable"},{"type":"function","name":"addBlacklist","inputs":[{"name":"asset","type":"address","internalType":"address"}],"outputs":[],"stateMutability":"nonpayable"},{"type":"function","name":"getBlacklistedAssets","inputs":[],"outputs":[{"name":"","type":"address[]","internalType":"address[]"}],"stateMutability":"view"},{"type":"function","name":"getBlacklistedAssets","inputs":[{"name":"start","type":"uint256","internalType":"uint256"},{"name":"end","type":"uint256","internalType":"uint256"}],"outputs":[{"name":"arr","type":"address[]","internalType":"address[]"}],"stateMutability":"view"},{"type":"function","name":"getBlacklistedAssetsCount","inputs":[],"outputs":[{"name":"","type":"uint256","internalType":"uint256"}],"stateMutability":"view"},{"type":"function","name":"getRegisteredBorrowers","inputs":[],"outputs":[{"name":"","type":"address[]","internalType":"address[]"}],"stateMutability":"view"},{"type":"function","name":"getRegisteredBorrowers","inputs":[{"name":"start","type":"uint256","internalType":"uint256"},{"name":"end","type":"uint256","internalType":"uint256"}],"outputs":[{"name":"arr","type":"address[]","internalType":"address[]"}],"stateMutability":"view"},{"type":"function","name":"getRegisteredBorrowersCount","inputs":[],"outputs":[{"name":"","type":"uint256","internalType":"uint256"}],"stateMutability":"view"},{"type":"function","name":"getRegisteredControllerFactories","inputs":[{"name":"start","type":"uint256","internalType":"uint256"},{"name":"end","type":"uint256","internalType":"uint256"}],"outputs":[{"name":"arr","type":"address[]","internalType":"address[]"}],"stateMutability":"view"},{"type":"function","name":"getRegisteredControllerFactories","inputs":[],"outputs":[{"name":"","type":"address[]","internalType":"address[]"}],"stateMutability":"view"},{"type":"function","name":"getRegisteredControllerFactoriesCount","inputs":[],"outputs":[{"name":"","type":"uint256","internalType":"uint256"}],"stateMutability":"view"},{"type":"function","name":"getRegisteredControllers","inputs":[{"name":"start","type":"uint256","internalType":"uint256"},{"name":"end","type":"uint256","internalType":"uint256"}],"outputs":[{"name":"arr","type":"address[]","internalType":"address[]"}],"stateMutability":"view"},{"type":"function","name":"getRegisteredControllers","inputs":[],"outputs":[{"name":"","type":"address[]","internalType":"address[]"}],"stateMutability":"view"},{"type":"function","name":"getRegisteredControllersCount","inputs":[],"outputs":[{"name":"","type":"uint256","internalType":"uint256"}],"stateMutability":"view"},{"type":"function","name":"getRegisteredMarkets","inputs":[],"outputs":[{"name":"","type":"address[]","internalType":"address[]"}],"stateMutability":"view"},{"type":"function","name":"getRegisteredMarkets","inputs":[{"name":"start","type":"uint256","internalType":"uint256"},{"name":"end","type":"uint256","internalType":"uint256"}],"outputs":[{"name":"arr","type":"address[]","internalType":"address[]"}],"stateMutability":"view"},{"type":"function","name":"getRegisteredMarketsCount","inputs":[],"outputs":[{"name":"","type":"uint256","internalType":"uint256"}],"stateMutability":"view"},{"type":"function","name":"isBlacklistedAsset","inputs":[{"name":"asset","type":"address","internalType":"address"}],"outputs":[{"name":"","type":"bool","internalType":"bool"}],"stateMutability":"view"},{"type":"function","name":"isRegisteredBorrower","inputs":[{"name":"borrower","type":"address","internalType":"address"}],"outputs":[{"name":"","type":"bool","internalType":"bool"}],"stateMutability":"view"},{"type":"function","name":"isRegisteredController","inputs":[{"name":"controller","type":"address","internalType":"address"}],"outputs":[{"name":"","type":"bool","internalType":"bool"}],"stateMutability":"view"},{"type":"function","name":"isRegisteredControllerFactory","inputs":[{"name":"factory","type":"address","internalType":"address"}],"outputs":[{"name":"","type":"bool","internalType":"bool"}],"stateMutability":"view"},{"type":"function","name":"isRegisteredMarket","inputs":[{"name":"market","type":"address","internalType":"address"}],"outputs":[{"name":"","type":"bool","internalType":"bool"}],"stateMutability":"view"},{"type":"function","name":"owner","inputs":[],"outputs":[{"name":"","type":"address","internalType":"address"}],"stateMutability":"view"},{"type":"function","name":"registerBorrower","inputs":[{"name":"borrower","type":"address","internalType":"address"}],"outputs":[],"stateMutability":"nonpayable"},{"type":"function","name":"registerController","inputs":[{"name":"controller","type":"address","internalType":"address"}],"outputs":[],"stateMutability":"nonpayable"},{"type":"function","name":"registerControllerFactory","inputs":[{"name":"factory","type":"address","internalType":"address"}],"outputs":[],"stateMutability":"nonpayable"},{"type":"function","name":"registerMarket","inputs":[{"name":"market","type":"address","internalType":"address"}],"outputs":[],"stateMutability":"nonpayable"},{"type":"function","name":"removeBlacklist","inputs":[{"name":"asset","type":"address","internalType":"address"}],"outputs":[],"stateMutability":"nonpayable"},{"type":"function","name":"removeBorrower","inputs":[{"name":"borrower","type":"address","internalType":"address"}],"outputs":[],"stateMutability":"nonpayable"},{"type":"function","name":"removeController","inputs":[{"name":"controller","type":"address","internalType":"address"}],"outputs":[],"stateMutability":"nonpayable"},{"type":"function","name":"removeControllerFactory","inputs":[{"name":"factory","type":"address","internalType":"address"}],"outputs":[],"stateMutability":"nonpayable"},{"type":"function","name":"removeMarket","inputs":[{"name":"market","type":"address","internalType":"address"}],"outputs":[],"stateMutability":"nonpayable"},{"type":"function","name":"renounceOwnership","inputs":[],"outputs":[],"stateMutability":"nonpayable"},{"type":"function","name":"transferOwnership","inputs":[{"name":"newOwner","type":"address","internalType":"address"}],"outputs":[],"stateMutability":"nonpayable"},{"type":"event","name":"AssetBlacklisted","inputs":[{"name":"asset","type":"address","indexed":false,"internalType":"address"}],"anonymous":false},{"type":"event","name":"AssetPermitted","inputs":[{"name":"asset","type":"address","indexed":false,"internalType":"address"}],"anonymous":false},{"type":"event","name":"BorrowerAdded","inputs":[{"name":"borrower","type":"address","indexed":false,"internalType":"address"}],"anonymous":false},{"type":"event","name":"BorrowerRemoved","inputs":[{"name":"borrower","type":"address","indexed":false,"internalType":"address"}],"anonymous":false},{"type":"event","name":"ControllerAdded","inputs":[{"name":"controllerFactory","type":"address","indexed":true,"internalType":"address"},{"name":"controller","type":"address","indexed":false,"internalType":"address"}],"anonymous":false},{"type":"event","name":"ControllerFactoryAdded","inputs":[{"name":"controllerFactory","type":"address","indexed":false,"internalType":"address"}],"anonymous":false},{"type":"event","name":"ControllerFactoryRemoved","inputs":[{"name":"controllerFactory","type":"address","indexed":false,"internalType":"address"}],"anonymous":false},{"type":"event","name":"ControllerRemoved","inputs":[{"name":"controller","type":"address","indexed":false,"internalType":"address"}],"anonymous":false},{"type":"event","name":"MarketAdded","inputs":[{"name":"controller","type":"address","indexed":true,"internalType":"address"},{"name":"market","type":"address","indexed":false,"internalType":"address"}],"anonymous":false},{"type":"event","name":"MarketRemoved","inputs":[{"name":"market","type":"address","indexed":false,"internalType":"address"}],"anonymous":false},{"type":"event","name":"OwnershipTransferred","inputs":[{"name":"previousOwner","type":"address","indexed":true,"internalType":"address"},{"name":"newOwner","type":"address","indexed":true,"internalType":"address"}],"anonymous":false},{"type":"error","name":"AssetAlreadyBlacklisted","inputs":[]},{"type":"error","name":"AssetNotBlacklisted","inputs":[]},{"type":"error","name":"BorrowerAlreadyExists","inputs":[]},{"type":"error","name":"BorrowerDoesNotExist","inputs":[]},{"type":"error","name":"ControllerAlreadyExists","inputs":[]},{"type":"error","name":"ControllerDoesNotExist","inputs":[]},{"type":"error","name":"ControllerFactoryAlreadyExists","inputs":[]},{"type":"error","name":"ControllerFactoryDoesNotExist","inputs":[]},{"type":"error","name":"MarketAlreadyExists","inputs":[]},{"type":"error","name":"MarketDoesNotExist","inputs":[]},{"type":"error","name":"NotController","inputs":[]},{"type":"error","name":"NotControllerFactory","inputs":[]},{"type":"error","name":"OwnableInvalidOwner","inputs":[{"name":"owner","type":"address","internalType":"address"}]},{"type":"error","name":"OwnableUnauthorizedAccount","inputs":[{"name":"account","type":"address","internalType":"address"}]},{"type":"error","name":"UnauthorizedCaller","inputs":[]},{"type":"error","name":"ZeroAddressNotAllowed","inputs":[]}],"bytecode":{"object":"0x608080604052346071573315605e575f8054336001600160a01b0319821681178355916001600160a01b03909116907f8be0079c531659141344cd1fd0a4f28419497f9722a3daafe3b4186f6b6457e09080a36116d190816100768239f35b631e4fbdf760e01b5f525f60045260245ffd5b5f80fdfe60806040526004361015610011575f80fd5b5f3560e01c80630787c1fe14610c5b5780630e57208214610c415780631b4f512c14610b7f5780631ce28ab714610b625780633d05a1d314610b455780634676210114610ad15780634a58e49e14610a935780636e0fb58d14610a1f578063715018a6146109c857806376c7fc551461095057806378e9c2241461093357806379adfa6c146108bf5780637ade7f20146108a557806384b870ab146108885780638b13e382146108105780638b984bb3146107f65780638cdcb3e6146107b95780638da5cb5b1461079257806399882f701461074b5780639cfe42da146106cd578063a1c4bff8146106b3578063a79b9ec914610613578063abad742614610595578063b0018c6014610557578063b9bccae8146104e3578063b9d5dfe8146104c6578063be736ff8146104ac578063d91ae8c2146103fd578063db316dbc14610379578063db91323614610301578063eb91e65114610289578063f2fde38b146102005763f6a74ed714610184575f80fd5b346101fc5760203660031901126101fc576004356001600160a01b038116908190036101fc576101b2611144565b6101bb816115f0565b156101ed5760207f33d83959be2573f5453b12eb9d43b3499bc57d96bd2f067ba44803c859e8111391604051908152a1005b6385e1605f60e01b5f5260045ffd5b5f80fd5b346101fc5760203660031901126101fc576004356001600160a01b038116908190036101fc5761022e611144565b8015610276575f80546001600160a01b03198116831782556001600160a01b0316907f8be0079c531659141344cd1fd0a4f28419497f9722a3daafe3b4186f6b6457e09080a3005b631e4fbdf760e01b5f525f60045260245ffd5b346101fc5760203660031901126101fc576004356001600160a01b038116908190036101fc576102b7611144565b6102c081611545565b156102f25760207fbfd78d1acd7fdf715658096e9116ace58b0b335d6d8d4fc53e0aec7edbd7d44191604051908152a1005b630195408d60e01b5f5260045ffd5b346101fc5760203660031901126101fc576004356001600160a01b038116908190036101fc5761032f611144565b6103388161149a565b1561036a5760207f59d7b1e52008dc342c9421dadfc773114b914a65682a4e4b53cf60a970df0d7791604051908152a1005b63b0cfa44760e01b5f5260045ffd5b346101fc575f3660031901126101fc5760405180602060075491828152019060075f527fa66cc928b5edb82af9bd49922954155ab7b0942694bea4ce44661d9a8736c688905f5b8181106103e7576103e3856103d781870382610cf1565b60405191829182610caf565b0390f35b82548452602090930192600192830192016103c0565b346101fc5760203660031901126101fc576004356001600160a01b038116908190036101fc57610438335f52600460205260405f2054151590565b1561049d57801561048e5761044c816112da565b1561047f576040519081527f09703263c91de41f96b822b3995609acf9858ba081d151c4e7ec3398085ae32660203392a2005b63983b8f4b60e01b5f5260045ffd5b6342bcdf7f60e11b5f5260045ffd5b63d11dcc5360e01b5f5260045ffd5b346101fc576103e36103d76104c036610c99565b90611098565b346101fc575f3660031901126101fc576020600954604051908152f35b346101fc575f3660031901126101fc5760405180602060055491828152019060055f527f036b6384b5eca791c62761152d0c79bb0604c104a5fb6f4eb0703f3154bb3db0905f5b818110610541576103e3856103d781870382610cf1565b825484526020909301926001928301920161052a565b346101fc5760203660031901126101fc576004356001600160a01b038116908190036101fc575f52600a602052602060405f20541515604051908152f35b346101fc5760203660031901126101fc576004356001600160a01b038116908190036101fc576105c3611144565b801561048e576105d28161128a565b156106045760207ff936762bbd5951fd80f529c57a3ca1141f0b79ab926abd60a3879f75eb6b72a691604051908152a1005b6312635b0b60e21b5f5260045ffd5b346101fc5760203660031901126101fc576004356001600160a01b038116908190036101fc5761064e335f52600860205260405f2054151590565b156106a457801561048e576106628161123a565b15610695576040519081527f7772c85e68debdf74fad87834e2cc05fa763e74faf14de7096da30529065114260203392a2005b630313b28560e01b5f5260045ffd5b6323019e6760e01b5f5260045ffd5b346101fc576103e36103d76106c736610c99565b90610fec565b346101fc5760203660031901126101fc576004356001600160a01b038116908190036101fc576106fb611144565b801561048e5761070a816111ea565b1561073c5760207f10c0fc3aa3fe3ed617ce4c1f51f37e0203828eeab656b100bfb44b569779d63891604051908152a1005b63a99bf01360e01b5f5260045ffd5b346101fc5760203660031901126101fc576004356001600160a01b038116908190036101fc576107886020915f52600460205260405f2054151590565b6040519015158152f35b346101fc575f3660031901126101fc575f546040516001600160a01b039091168152602090f35b346101fc5760203660031901126101fc576004356001600160a01b038116908190036101fc576107886020915f52600860205260405f2054151590565b346101fc576103e36103d761080a36610c99565b90610f40565b346101fc5760203660031901126101fc576004356001600160a01b038116908190036101fc5761083e611144565b610847816113ef565b156108795760207f92b171cd00b60c6242c08403ef5f6b7258d81b3cba5956c115799d7a118874f991604051908152a1005b6342ab212760e01b5f5260045ffd5b346101fc575f3660031901126101fc576020600154604051908152f35b346101fc576103e36103d76108b936610c99565b90610e96565b346101fc575f3660031901126101fc5760405180602060095491828152019060095f527f6e1540171b6c0c960b71a7020d9f60077f6af931a8bbf590da0223dacf75c7af905f5b81811061091d576103e3856103d781870382610cf1565b8254845260209093019260019283019201610906565b346101fc575f3660031901126101fc576020600354604051908152f35b346101fc5760203660031901126101fc576004356001600160a01b038116908190036101fc5761097e611144565b6109878161132a565b156109b95760207feb31998799e9a09df1e8e5fd968bfeb5519b82b1b88d59dec8c860eac026586491604051908152a1005b6332ffc55b60e11b5f5260045ffd5b346101fc575f3660031901126101fc576109e0611144565b5f80546001600160a01b0319811682556001600160a01b03167f8be0079c531659141344cd1fd0a4f28419497f9722a3daafe3b4186f6b6457e08280a3005b346101fc575f3660031901126101fc5760405180602060035491828152019060035f527fc2575a0e9e593c00f959f8c92f12db2869c3395a3b0502d05e2516446f71f85b905f5b818110610a7d576103e3856103d781870382610cf1565b8254845260209093019260019283019201610a66565b346101fc5760203660031901126101fc576004356001600160a01b038116908190036101fc575f526002602052602060405f20541515604051908152f35b346101fc575f3660031901126101fc5760405180602060015491828152019060015f527fb10e2d527612073b26eecdfd717e6a320cf44b4afac2b0732d9fcbe2b7fa0cf6905f5b818110610b2f576103e3856103d781870382610cf1565b8254845260209093019260019283019201610b18565b346101fc575f3660031901126101fc576020600754604051908152f35b346101fc575f3660031901126101fc576020600554604051908152f35b346101fc5760203660031901126101fc576004356001600160a01b038116908190036101fc575f546001600160a01b031633141580610c1c575b610c0d57801561048e57610bcc8161117f565b15610bfe5760207f8968daf7b2953d00c089355179545009ad3fc90082d096e28b028bbdad5cc5ab91604051908152a1005b6304aa819d60e41b5f5260045ffd5b635c427cd960e01b5f5260045ffd5b503381141580610bb95750610c3c815f52600460205260405f2054151590565b610bb9565b346101fc576103e36103d7610c5536610c99565b90610dc7565b346101fc5760203660031901126101fc576004356001600160a01b038116908190036101fc575f526006602052602060405f20541515604051908152f35b60409060031901126101fc576004359060243590565b60206040818301928281528451809452019201905f5b818110610cd25750505090565b82516001600160a01b0316845260209384019390920191600101610cc5565b90601f8019910116810190811067ffffffffffffffff821117610d1357604052565b634e487b7160e01b5f52604160045260245ffd5b67ffffffffffffffff8111610d135760051b60200190565b90610d4982610d27565b610d566040519182610cf1565b8281528092610d67601f1991610d27565b0190602036910137565b91908203918211610d7e57565b634e487b7160e01b5f52601160045260245ffd5b91908201809211610d7e57565b8051821015610db35760209160051b010190565b634e487b7160e01b5f52603260045260245ffd5b919060035490808410801590610e8c575b610e7057610df091849181811115610e695750610d71565b91610dfa83610d3f565b925f91600354925b828110610e0f5750505050565b610e198183610d92565b9084821015610db35760035f527fc2575a0e9e593c00f959f8c92f12db2869c3395a3b0502d05e2516446f71f85b90910154600191906001600160a01b0316610e628289610d9f565b5201610e02565b9050610d71565b50509050604051610e82602082610cf1565b5f81525f36813790565b5081841015610dd8565b919060015490808410801590610f36575b610e7057610ebf91849181811115610e695750610d71565b91610ec983610d3f565b925f91600154925b828110610ede5750505050565b610ee88183610d92565b9084821015610db35760015f8190527fb10e2d527612073b26eecdfd717e6a320cf44b4afac2b0732d9fcbe2b7fa0cf6909201546001600160a01b0316610f2f8289610d9f565b5201610ed1565b5081841015610ea7565b919060095490808410801590610fe2575b610e7057610f6991849181811115610e695750610d71565b91610f7383610d3f565b925f91600954925b828110610f885750505050565b610f928183610d92565b9084821015610db35760095f527f6e1540171b6c0c960b71a7020d9f60077f6af931a8bbf590da0223dacf75c7af90910154600191906001600160a01b0316610fdb8289610d9f565b5201610f7b565b5081841015610f51565b91906007549080841080159061108e575b610e705761101591849181811115610e695750610d71565b9161101f83610d3f565b925f91600754925b8281106110345750505050565b61103e8183610d92565b9084821015610db35760075f527fa66cc928b5edb82af9bd49922954155ab7b0942694bea4ce44661d9a8736c68890910154600191906001600160a01b03166110878289610d9f565b5201611027565b5081841015610ffd565b91906005549080841080159061113a575b610e70576110c191849181811115610e695750610d71565b916110cb83610d3f565b925f91600554925b8281106110e05750505050565b6110ea8183610d92565b9084821015610db35760055f527f036b6384b5eca791c62761152d0c79bb0604c104a5fb6f4eb0703f3154bb3db090910154600191906001600160a01b03166111338289610d9f565b52016110d3565b50818410156110a9565b5f546001600160a01b0316330361115757565b63118cdaa760e01b5f523360045260245ffd5b8054821015610db3575f5260205f2001905f90565b805f52600460205260405f2054155f146111e557600354600160401b811015610d13576111ce6111b8826001859401600355600361116a565b819391549060031b91821b915f19901b19161790565b9055600354905f52600460205260405f2055600190565b505f90565b805f52600a60205260405f2054155f146111e557600954600160401b811015610d13576112236111b8826001859401600955600961116a565b9055600954905f52600a60205260405f2055600190565b805f52600260205260405f2054155f146111e557600154600160401b811015610d13576112736111b8826001859401600155600161116a565b9055600154905f52600260205260405f2055600190565b805f52600660205260405f2054155f146111e557600554600160401b811015610d13576112c36111b8826001859401600555600561116a565b9055600554905f52600660205260405f2055600190565b805f52600860205260405f2054155f146111e557600754600160401b811015610d13576113136111b8826001859401600755600761116a565b9055600754905f52600860205260405f2055600190565b5f8181526006602052604090205480156113e9575f198101818111610d7e576005545f19810191908211610d7e578181036113b1575b505050600554801561139d575f190161137a81600561116a565b8154905f199060031b1b191690556005555f5260066020525f6040812055600190565b634e487b7160e01b5f52603160045260245ffd5b6113d36113c26111b893600561116a565b90549060031b1c928392600561116a565b90555f52600660205260405f20555f8080611360565b50505f90565b5f8181526004602052604090205480156113e9575f198101818111610d7e576003545f19810191908211610d7e57818103611462575b505050600354801561139d575f190161143f81600361116a565b8154905f199060031b1b191690556003555f5260046020525f6040812055600190565b6114846114736111b893600361116a565b90549060031b1c928392600361116a565b90555f52600460205260405f20555f8080611425565b5f8181526002602052604090205480156113e9575f198101818111610d7e576001545f19810191908211610d7e5781810361150d575b505050600154801561139d575f19016114ea81600161116a565b8154905f199060031b1b191690556001555f5260026020525f6040812055600190565b61152f61151e6111b893600161116a565b90549060031b1c928392600161116a565b90555f52600260205260405f20555f80806114d0565b5f818152600a602052604090205480156113e9575f198101818111610d7e576009545f19810191908211610d7e578181036115b8575b505050600954801561139d575f190161159581600961116a565b8154905f199060031b1b191690556009555f52600a6020525f6040812055600190565b6115da6115c96111b893600961116a565b90549060031b1c928392600961116a565b90555f52600a60205260405f20555f808061157b565b5f8181526008602052604090205480156113e9575f198101818111610d7e576007545f19810191908211610d7e57818103611663575b505050600754801561139d575f190161164081600761116a565b8154905f199060031b1b191690556007555f5260086020525f6040812055600190565b6116856116746111b893600761116a565b90549060031b1c928392600761116a565b90555f52600860205260405f20555f808061162656fea2646970667358221220b1f7c995d59a10afaf34e7d74c52b1d98d5c86cbff0de751c7db0a7e027ec16664736f6c63430008210033","linkReferences":{}},"methodIdentifiers":{"addBlacklist(address)":"9cfe42da","getBlacklistedAssets()":"79adfa6c","getBlacklistedAssets(uint256,uint256)":"8b984bb3","getBlacklistedAssetsCount()":"b9d5dfe8","getRegisteredBorrowers()":"b9bccae8","getRegisteredBorrowers(uint256,uint256)":"be736ff8","getRegisteredBorrowersCount()":"1ce28ab7","getRegisteredControllerFactories()":"6e0fb58d","getRegisteredControllerFactories(uint256,uint256)":"0e572082","getRegisteredControllerFactoriesCount()":"78e9c224","getRegisteredControllers()":"db316dbc","getRegisteredControllers(uint256,uint256)":"a1c4bff8","getRegisteredControllersCount()":"3d05a1d3","getRegisteredMarkets()":"46762101","getRegisteredMarkets(uint256,uint256)":"7ade7f20","getRegisteredMarketsCount()":"84b870ab","isBlacklistedAsset(address)":"b0018c60","isRegisteredBorrower(address)":"0787c1fe","isRegisteredController(address)":"8cdcb3e6","isRegisteredControllerFactory(address)":"99882f70","isRegisteredMarket(address)":"4a58e49e","owner()":"8da5cb5b","registerBorrower(address)":"abad7426","registerController(address)":"d91ae8c2","registerControllerFactory(address)":"1b4f512c","registerMarket(address)":"a79b9ec9","removeBlacklist(address)":"eb91e651","removeBorrower(address)":"76c7fc55","removeController(address)":"f6a74ed7","removeControllerFactory(address)":"8b13e382","removeMarket(address)":"db913236","renounceOwnership()":"715018a6","transferOwnership(address)":"f2fde38b"},"id":55}